:1000000034C0000057C0000055C0000053C00000BD
:1000100051C000004FC000004DC000004BC00000A8
:1000200049C0000047C0000045C0000043C00000B8
:1000300041C00000ECC000003DC000003BC000001B
:10004000C4C2000037C000006FC400009FC400009D
:1000500031C000002FC000002DC000002BC00000E8
:1000600029C0000027C00000EB0411241FBECFEF01
:10007000D8E0DEBFCDBF11E0A0E0B1E0EEEDFAE0E8
:1000800002C005900D92A431B107D9F721E0A4E197
:10009000B1E001C01D92AA3DB207E1F710E0C5E34F
:1000A000D0E003C02197FE0112D5C433D107D1F7A8
:1000B00010D113C5A5CFCF92DF92EF92FF9280911E
:1000C000CF01811108C081E08093CF01FF90EF90B4
:1000D000DF90CF900895C090C701D090C801E09004
:1000E000C901F090CA0120E030E040E050E4C701CF
:1000F000B60104D287FD4CC020E030E040E951E475
:100100006091C3017091C4018091C5019091C601B5
:10011000F9D16093D0017093D1018093D201909373
:10012000D3011092C7011092C8011092C901109218
:10013000CA01C090CB01D090CC01E090CD01F090ED
:10014000CE0120E030E040E85FE3C701B601D6D140
:1001500087FD37C020E030E040EA51E46091BF0104
:100160007091C0018091C1019091C201E9D060936A
:10017000D4017093D5018093D6019093D70110924A
:10018000CB011092CC011092CD011092CE019ECFE6
:1001900020E030E040E050E4C701B60136D187FFEF
:1001A000C8CF20E030E040E85FE3C701B601C9D026
:1001B0006093C7017093C8018093C9019093CA01ED
:1001C000B8CF20E030E040E85FE3C701B6011DD1C1
:1001D00087FF7CCF20E030E040E85FE3C701B60155
:1001E000B0D06093CB017093CC018093CD019093FC
:1001F000CE016CCF0895089540E855E260E070E0CC
:1002000090E080E000C026E082E291E02DC31F92E2
:100210000F920FB60F9211242F933F934F935F933A
:100220006F937F938F939F93AF93BF93EF93FF93BE
:1002300087EF92EC909385008093840032D0FF91F9
:10024000EF91BF91AF919F918F917F916F915F914E
:100250004F913F912F910F900FBE0F901F901895C7
:1002600087EF92EC9093850080938400AFE6B0E036
:100270008C918E7F8C93E0E8F0E080818C7F80838E
:10028000E1E8F0E08081877E8083808185608083E3
:1002900080818D7F80838C9181608C93089581E033
:1002A00008958091160191E0980F9093160188238C
:1002B00049F021E030E0309318012093170180933A
:1002C000160108957894F7DEF89480911601815014
:1002D000F6CFCF93DF931092D9011092D801BFD1FE
:1002E0008BDFC0910001D09101011982188282DF59
:1002F000F894B6DF81E028813981232B09F080E072
:100300008093D801789478948091D801811107C0A6
:1003100072DFF89490E080E0DF91CF91089581E062
:1003200028813981232B09F480E08093D9019091B1
:10033000D90181E0911180E08093D801B0DFE4CF52
:100340005058BB27AA270ED09FC090D030F095D030
:1003500020F031F49F3F11F41EF485C00EF4E095B7
:10036000E7FB7BC0E92FA1D080F3BA1762077307C0
:100370008407950718F071F49EF5B9C00EF4E09566
:100380000B2EBA2FA02D0B01B90190010C01CA014F
:10039000A0011124FF27591B99F0593F50F4503EFA
:1003A00068F11A16F040A22F232F342F4427585FEC
:1003B000F3CF469537952795A795F0405395C9F704
:1003C0007EF41F16BA0B620B730B840BBAF09150BC
:1003D000A1F0FF0FBB1F661F771F881FC2F70EC05B
:1003E000BA0F621F731F841F48F48795779567952E
:1003F000B795F7959E3F08F0B3CF9395880F08F017
:100400009927EE0F97958795089503D008F481E01A
:100410000895990F0008550FAA0BE0E8FEEF161695
:100420001706E807F907C0F012161306E407F507E8
:1004300098F0621B730B840B950B39F40A2661F05C
:10044000232B242B252B21F408950A2609F4A140FF
:10045000A6958FEF811D811D089597F99F6780E80C
:1004600070E060E008959FEF80EC089500240A9406
:100470001616170618060906089500240A9412167F
:100480001306140605060895092E0394000C11F4B2
:10049000882352F0BB0F40F4BF2B11F460FF04C05F
:1004A0006F5F7F4F8F4F9F4F089557FD9058440FB8
:1004B000551F59F05F3F71F04795880F97FB991FC3
:1004C00061F09F3F79F08795089512161306140680
:1004D000551FF2CF4695F1DF08C01616170618060D
:1004E000991FF1CF86957105610508940895E894E8
:1004F000BB2766277727CB0197F908958ADF08F491
:100500008FEF08950BD0C0CFB1DF28F0B6DF18F021
:10051000952309F0A2CFA7CF1124EACFC6DFA0F31D
:10052000959FD1F3950F50E0551F629FF001729F88
:10053000BB27F00DB11D639FAA27F00DB11DAA1FA7
:10054000649F6627B00DA11D661F829F2227B00DF4
:10055000A11D621F739FB00DA11D621F839FA00D7F
:10056000611D221F749F3327A00D611D231F849FCF
:10057000600D211D822F762F6A2F11249F57504026
:100580008AF0E1F088234AF0EE0FFF1FBB1F661FC1
:10059000771F881F91505040A9F79E3F510570F07A
:1005A0005CCFA6CF5F3FECF3983EDCF38695779562
:1005B0006795B795F795E7959F5FC1F7FE2B880F75
:1005C000911D9695879597F908951F920F920FB6F2
:1005D0000F9211242F933F938F939F93AF93BF93C9
:1005E00080911A0190911B01A0911C01B0911D01F5
:1005F0003091190123E0230F2D3758F50196A11DE5
:10060000B11D2093190180931A0190931B01A093AF
:100610001C01B0931D0180911E0190911F01A091BA
:100620002001B09121010196A11DB11D80931E01F1
:1006300090931F01A0932001B0932101BF91AF912E
:100640009F918F913F912F910F900FBE0F901F9010
:10065000189526E8230F0296A11DB11DD2CF7894DC
:1006600084B5826084BD84B5816084BD85B58260B7
:1006700085BD85B5816085BDEEE6F0E08081816055
:100680008083E1E8F0E01082808182608083808155
:1006900081608083E0E8F0E0808181608083E1EB2D
:1006A000F0E0808184608083E0EBF0E08081816015
:1006B0008083EAE7F0E080818460808380818260CB
:1006C00080838081816080838081806880831092B4
:1006D000C1000895FC01918D228D892F90E0805CEE
:1006E0009F4F821B91098F7399270895FC01918D6B
:1006F000828D981731F0828DE80FF11D858D90E085
:1007000008958FEF9FEF0895FC01918D828D9817CA
:1007100061F0A28DAE0FBF2FB11D5D968C91928DB1
:100720009F5F9F73928F90E008958FEF9FEF0895E2
:10073000FC01538D448D252F30E0842F90E0821BE7
:10074000930B541710F0CF96089501970895FC016C
:10075000A48DA80FB92FB11DA35ABF4F2C91848D22
:1007600090E001968F739927848FA689B7892C937F
:10077000A089B1898C91837080648C93938D848DD2
:10078000981306C00288F389E02D80818F7D8083D5
:100790000895CF93DF93EC01888D8823B1F0AA8967
:1007A000BB89E889F9898C9185FD03C0808186FD2C
:1007B0000CC00FB607FCF7CF8C9185FFF2CF80817C
:1007C00085FFEDCFCE01C3DFEACFDF91CF91089552
:1007D000EF92FF920F931F93CF93DF93EC0181E091
:1007E000888F9B8D8C8D98131AC0E889F989808138
:1007F00085FF15C09FB7F894EE89FF896083E8896B
:10080000F98980818370806480839FBF81E090E05C
:10081000DF91CF911F910F91FF90EF900895F62EE9
:100820000B8D10E00F5F1F4F0F731127E02E8C8D83
:100830008E110BC00FB607FCFACFE889F9898081C9
:1008400085FFF5CFCE0183DFF2CFEB8DEC0FFD2FCF
:10085000F11DE35AFF4FF0829FB7F8940B8FEA899E
:10086000FB8980818062D0CFCF92DF92EF92FF929E
:100870001F93CF93DF93EC016A017B01122FE8896C
:10088000F98982E08083C11481EED806E104F10485
:1008900099F060E079E08DE390E0A7019601F5D052
:1008A00021503109410951095695479537952795AA
:1008B000211580E1380790F0E889F989108260E815
:1008C00074E88EE190E0A7019601DFD02150310954
:1008D000410951095695479537952795EC85FD8532
:1008E0003083EE85FF852083188EEC89FD89108387
:1008F000EA89FB89808180618083EA89FB89808124
:1009000088608083EA89FB89808180688083EA89A6
:10091000FB8980818F7D8083DF91CF911F91FF9034
:10092000EF90DF90CF9008951F920F920FB60F9225
:1009300011242F938F939F93EF93FF93E0913201B4
:10094000F09133018081E0913801F091390182FD0D
:100950001BC0908180913B018F5F8F7320913C0180
:10096000821741F0E0913B01F0E0EE5DFE4F958F84
:1009700080933B01FF91EF919F918F912F910F9069
:100980000FBE0F901F9018958081F4CF1F920F9289
:100990000FB60F9211242F933F934F935F936F9352
:1009A0007F938F939F93AF93BF93EF93FF9382E2D5
:1009B00091E0CDDEFF91EF91BF91AF919F918F912B
:1009C0007F916F915F914F913F912F910F900FBE4B
:1009D0000F901F901895E2E2F1E01382128288EEE8
:1009E00093E0A0E0B0E084839583A683B78386E09C
:1009F00091E09183808385EC90E09587848784ECF7
:100A000090E09787868780EC90E0918B808B81ECDB
:100A100090E0938B828B82EC90E0958B848B86ECBC
:100A200090E0978B868B118E128E138E148E089504
:100A3000AF92BF92CF92DF92EF92FF920F931F93EC
:100A4000CF93DF936C017B018B01040F151FEB012A
:100A50005E01AE18BF08C017D10759F06991D601E1
:100A6000ED91FC910190F081E02DC6010995892B53
:100A700079F7C501DF91CF911F910F91FF90EF9012
:100A8000DF90CF90BF90AF900895A1E21A2EAA1BDD
:100A9000BB1BFD010DC0AA1FBB1FEE1FFF1FA2172E
:100AA000B307E407F50720F0A21BB30BE40BF50B2B
:100AB000661F771F881F991F1A9469F760957095B4
:100AC000809590959B01AC01BD01CF010895EE0F7B
:0E0AD000FF1F0590F491E02D0994F894FFCFDC
:100ADE00140100000000E80318059803C9036A0317
:040AEE008403760304
:00000001FF
