:1000000034C0000057C0000055C0000053C00000BD
:1000100051C000004FC000004DC000004BC00000A8
:1000200049C0000047C0000045C0000043C00000B8
:1000300041C000003FC000003DC000003BC00000C8
:100040006EC3000037C000003EC500006EC5000052
:1000500031C000002FC000002DC000002BC00000E8
:1000600029C0000027C00000BA0511241FBECFEF31
:10007000D8E0DEBFCDBF11E0A0E0B1E0ECE7FCE0EE
:1000800002C005900D92A431B107D9F722E0A4E196
:10009000B1E001C01D92A530B207E1F710E0C5E361
:1000A000D0E003C02197FE01E1D5C433D107D1F7D9
:1000B000D8D2E2C5A5CF8091CE01823091F081E007
:1000C0008093CD018093CE0180E090E0A0E8BFE373
:1000D0008093DB019093DC01A093DD01B093DE01FE
:1000E00008958093CD0180E090E0A0E8BFE3809385
:1000F000DF019093E001A093E101B093E201089544
:10010000CF92DF92EF92FF920F931F93CF93DF93E3
:100110008091C70181110EC081E08093C701809357
:10012000C801DF91CF911F910F91FF90EF90DF9069
:10013000CF90C1CFC091C801C130F1F0C23009F4F5
:10014000DFC020E030E040E85FE36091FB017091A8
:10015000FC018091FD019091FE01B9D2811158C03E
:100160001092D7011092D8011092D9011092DA01A1
:1001700081E08093C80186C0D091CD0120E030E0BD
:1001800040E85FE36091FF017091000280910102FD
:10019000909102029CD2811125C0D13079F0D230E9
:1001A000C1F082E08093C80191E09093C9018093EF
:1001B000CB018093CC018093CA0199C01092DB01DE
:1001C0001092DC011092DD011092DE011092CD013F
:1001D000E8CF1092DF011092E0011092E10110923D
:1001E000E201F4CF20E030E040E85FE36091F70106
:1001F0007091F8018091F9019091FA0168D2811112
:1002000028C0D13091F0D230D9F083E08093C8017A
:1002100080E090E0A0E8BFE38093D7019093D801FD
:10022000A093D901B093DA0162C01092DB01109261
:10023000DC011092DD011092DE011092CD01E5CFBC
:100240001092DF011092E0011092E1011092E201A0
:10025000F4CF20E030E040E85FE3D13029F5609151
:10026000EF017091F0018091F1019091F2012FD294
:10027000811131C01092DB011092DC011092DD017E
:100280001092DE0182E08093CD018093CE0180E068
:1002900090E0A0E8BFE38093DF019093E001A0939A
:1002A000E101B093E20123C06091EB017091EC0198
:1002B0008091ED019091EE010AD28111E8CF109268
:1002C000DF011092E0011092E1011092E201C0936F
:1002D000CD01C093CE0180E090E0A0E8BFE3809321
:1002E000DB019093DC01A093DD01B093DE01DF918F
:1002F000CF911F910F91FF90EF90DF90CF900895D5
:100300000091C901013009F0FAC0D091CA0120E082
:1003100030E040E85FE36091F7017091F80180916F
:10032000F9019091FA01D3D11091CC019091CB01B8
:10033000811134C0D13041F41092E7011092E801EC
:100340001092E9011092EA011092CA01113041F4B1
:100350001092D3011092D4011092D5011092D601BF
:100360001092CC01913041F41092CF011092D00143
:100370001092D1011092D2011092CB0182E08093B1
:10038000C90180E090E0A0E8BFE38093E30190938F
:10039000E401A093E501B093E601A9CFC090F30179
:1003A000D090F401E090F501F090F60120E030E00B
:1003B00040E85FE3913009F048C0C701B60187D13A
:1003C00081114AC01092CF011092D0011092D10138
:1003D0001092D201C093CB0120E030E040E85FE30F
:1003E000113009F056C06091EB017091EC018091E1
:1003F000ED019091EE016BD181113BC01092D301C0
:100400001092D4011092D5011092D60182E080930F
:10041000CC01D13009F063C020E030E040E85FE378
:100420006091EF017091F0018091F1019091F201E2
:100430004ED1811157C01092E7011092E80110923D
:10044000E9011092EA0182E0B6CEC701B6013FD1C0
:100450008111C2CF0093CB0180E090E0A0E8BFE320
:100460008093CF019093D001A093D101B093D2019A
:10047000B3CF80E090E0A0E8BFE38093D3019093F6
:10048000D401A093D501B093D601D13009F02FCF7C
:10049000C3CFC701B6011BD181110FC081E080938A
:1004A000CC0180E090E0A0E8BFE38093D30190937B
:1004B000D401A093D501B093D601D13009F4ACCFCB
:1004C00020E030E040E85FE36091EB017091EC01E7
:1004D0008091ED019091EE01FAD0811108CF81E079
:1004E0008093CA0180E090E0A0E8BFE38093E70139
:1004F0009093E801A093E901B093EA01F8CE20E0DF
:1005000030E040E85FE36091EF017091F00180918D
:10051000F1019091F201DBD081110CC01092E30146
:100520001092E4011092E5011092E6011092C901C7
:1005300081E0F5CD20E030E040E85FE36091FB0131
:100540007091FC018091FD019091FE01C0D081115C
:1005500018CF1092E3011092E4011092E50110927D
:10056000E60181E08093C901C093CB01C093CC0127
:10057000C093CA01BCCE0895089540E855E260E0FA
:1005800070E090E080E000C026E08AE291E03BC2AB
:100590000895CF92DF92EF92FF920F931F9309D1AC
:1005A00060931601709317018093180190931901BD
:1005B00000911A0110911B0120911C0130911D0125
:1005C0006B017C01C01AD10AE20AF30A9701860185
:1005D000003A16482140310508F160931A017093E2
:1005E0001B0180931C0190931D0125D0E2D0009146
:1005F0001A0110911B0120911C0130911D01601BFB
:10060000710B820B930B603A76488140910570F034
:1006100081E090E09093200180931F0181E01F9181
:100620000F91FF90EF90DF90CF90089510922001EE
:1006300010921F01F3CF80911E0191E0980F9093CB
:100640001E01882349F021E030E0309320012093FF
:100650001F0180931E01089553DD80911E0181507A
:10066000F8CFCF93DF931092040210920302C6D00A
:1006700084DFC0910001D0910101198218827BDFD3
:10068000F89486DF81E028813981232B09F080E00E
:1006900080930302789480910302811107C06CDF7C
:1006A000F89490E080E0DF91CF91089581E0288177
:1006B0003981232B09F480E0809304029091040295
:1006C00081E0911180E08093030263DFE4CF03D0E7
:1006D00008F481E00895990F0008550FAA0BE0E88F
:1006E000FEEF16161706E807F907C0F012161306F4
:1006F000E407F50798F0621B730B840B950B39F434
:100700000A2661F0232B242B252B21F408950A2699
:1007100009F4A140A6958FEF811D811D08951F92B8
:100720000F920FB60F9211242F933F938F939F93A5
:10073000AF93BF938091220190912301A091240156
:10074000B09125013091210123E0230F2D3758F579
:100750000196A11DB11D2093210180932201909348
:100760002301A0932401B09325018091260190914B
:100770002701A0912801B09129010196A11DB11D69
:100780008093260190932701A0932801B09329011B
:10079000BF91AF919F918F913F912F910F900FBE7D
:1007A0000F901F90189526E8230F0296A11DB11DEA
:1007B000D2CF3FB7F8948091260190912701A09164
:1007C0002801B091290126B5A89B05C02F3F19F03B
:1007D0000196A11DB11D3FBFBA2FA92F982F8827C1
:1007E000BC01CD01620F711D811D911D42E0660F9C
:1007F000771F881F991F4A95D1F70895789484B57B
:10080000826084BD84B5816084BD85B5826085BD0C
:1008100085B5816085BDEEE6F0E0808181608083F2
:10082000E1E8F0E0108280818260808380818160D5
:100830008083E0E8F0E0808181608083E1EBF0E09C
:10084000808184608083E0EBF0E080818160808340
:10085000EAE7F0E080818460808380818260808329
:100860008081816080838081806880831092C10054
:100870000895FC01918D228D892F90E0805C9F4F1F
:10088000821B91098F7399270895FC01918D828DA8
:10089000981731F0828DE80FF11D858D90E0089555
:1008A0008FEF9FEF0895FC01918D828D981761F075
:1008B000A28DAE0FBF2FB11D5D968C91928D9F5F63
:1008C0009F73928F90E008958FEF9FEF0895FC0142
:1008D000538D448D252F30E0842F90E0821B930BA5
:1008E000541710F0CF96089501970895FC01A48D38
:1008F000A80FB92FB11DA35ABF4F2C91848D90E042
:1009000001968F739927848FA689B7892C93A08924
:10091000B1898C91837080648C93938D848D9813AE
:1009200006C00288F389E02D80818F7D8083089541
:10093000CF93DF93EC01888D8823B1F0AA89BB891E
:10094000E889F9898C9185FD03C0808186FD0CC002
:100950000FB607FCF7CF8C9185FFF2CF808185FF22
:10096000EDCFCE01C3DFEACFDF91CF910895EF92B3
:10097000FF920F931F93CF93DF93EC0181E0888F59
:100980009B8D8C8D98131AC0E889F989808185FF29
:1009900015C09FB7F894EE89FF896083E889F989CB
:1009A00080818370806480839FBF81E090E0DF91CD
:1009B000CF911F910F91FF90EF900895F62E0B8D20
:1009C00010E00F5F1F4F0F731127E02E8C8D8E11DB
:1009D0000BC00FB607FCFACFE889F989808185FF43
:1009E000F5CFCE0183DFF2CFEB8DEC0FFD2FF11DA4
:1009F000E35AFF4FF0829FB7F8940B8FEA89FB8987
:100A000080818062D0CFCF92DF92EF92FF921F93CE
:100A1000CF93DF93EC016A017B01122FE889F989FA
:100A200082E08083C11481EED806E104F10499F0DC
:100A300060E079E08DE390E0A7019601F5D02150C8
:100A40003109410951095695479537952795211543
:100A500080E1380790F0E889F989108260E874E84D
:100A60008EE190E0A7019601DFD0215031094109C4
:100A700051095695479537952795EC85FD85308327
:100A8000EE85FF852083188EEC89FD891083EA8925
:100A9000FB89808180618083EA89FB89808188600D
:100AA0008083EA89FB89808180688083EA89FB8969
:100AB00080818F7D8083DF91CF911F91FF90EF9098
:100AC000DF90CF9008951F920F920FB60F921124CE
:100AD0002F938F939F93EF93FF93E0913A01F091BF
:100AE0003B018081E0914001F091410182FD1BC0FA
:100AF0009081809143018F5F8F7320914401821711
:100B000041F0E0914301F0E0E65DFE4F958F809368
:100B10004301FF91EF919F918F912F910F900FBE05
:100B20000F901F9018958081F4CF1F920F920FB6EF
:100B30000F9211242F933F934F935F936F937F9363
:100B40008F939F93AF93BF93EF93FF938AE291E0CC
:100B5000CDDEFF91EF91BF91AF919F918F917F91EA
:100B60006F915F914F913F912F910F900FBE0F901A
:100B70001F901895EAE2F1E01382128288EE93E06A
:100B8000A0E0B0E084839583A683B78386E091E0FC
:100B90009183808385EC90E09587848784EC90E056
:100BA0009787868780EC90E0918B808B81EC90E03A
:100BB000938B828B82EC90E0958B848B86EC90E01B
:100BC000978B868B118E128E138E148E0895AF9292
:100BD000BF92CF92DF92EF92FF920F931F93CF932A
:100BE000DF936C017B018B01040F151FEB015E018C
:100BF000AE18BF08C017D10759F06991D601ED9121
:100C0000FC910190F081E02DC6010995892B79F7BF
:100C1000C501DF91CF911F910F91FF90EF90DF9071
:100C2000CF90BF90AF900895A1E21A2EAA1BBB1BD4
:100C3000FD010DC0AA1FBB1FEE1FFF1FA217B307A8
:100C4000E407F50720F0A21BB30BE40BF50B661FBE
:100C5000771F881F991F1A9469F760957095809582
:100C600090959B01AC01BD01CF010895EE0FFF1FD0
:0C0C70000590F491E02D0994F894FFCF5A
:100C7C00140100000000B704E70567049804390468
:040C8C0053044504C4
:00000001FF
