:10000000ECC000000C94DF0B0C940A0C0C94350C23
:100010000C94600C0C948B0C0C94B60C0C94E10CAE
:100020000C940C0D0BC1000009C1000007C10000B9
:1000300005C100000C94A81201C10000FFC000001F
:10004000FDC00000FBC00000F9C00000F7C00000C8
:10005000F5C00000F3C00000F1C000000C94370DA3
:10006000EDC000000C94FE0F0C943410E7C00000AB
:10007000E5C00000E3C00000E1C00000DFC00000F8
:10008000DDC00000DBC00000D9C00000D7C0000008
:100090000C948A100C94C010D1C00000CFC0000096
:1000A000CDC00000CBC00000C9C00000C7C0000028
:1000B000C5C00000C3C00000C1C00000BFC0000038
:1000C000BDC00000BBC00000B9C000000C941611F8
:1000D0000C944C11B3C000000C94A2110C94D811D4
:1000E000ADC0000000000A0B02090C0D0E0807034A
:1000F00004010000000000000000000000000000FB
:1001000000000000000000000000000000000000EF
:1001100012111000000000000000000000000000AC
:100120000000000000000000000001021020200874
:100130000810204010204080020102010804020142
:1001400001020408102040808040201008040201B1
:10015000800402018040201008040201080402010A
:100160000102040810204080010204081020408091
:1001700005050505070508080808020202020A0A23
:100180000808040404040101010101010101030341
:10019000030303030303040707070C0C0C0C0C0CEC
:1001A0000C0C0202020206060606060606060B0BE9
:1001B0000B0B0B0B0B0B00002200250028002B0063
:1001C0002E003100340002010000050108010B017E
:1001D00002005D10E9107511011211241FBECFEF4E
:1001E000D1E2DEBFCDBF00E00CBF12E0A0E0B2E084
:1001F000EEE1F2E400E00BBF02C007900D92A837D9
:10020000B107D9F727E0A8E7B2E001C01D92A93AEB
:10021000B207E1F710E0CDEED0E000E006C0219794
:100220000109802FFE010E94E820C93ED10780E02D
:100230000807A9F70E948B130C940D21E1CEE091E1
:100240008C02F0918D0280819181A281B381892BF2
:100250008A2B8B2B29F03696F0938D02E0938C023B
:1002600008958730910540F5FC018827E55CFE4F35
:100270008F4F0C94E820420148015301700168013E
:10028000760191016E307105B8F481E090E0089537
:100290006E30710588F46C5D7D4FFB018081082E06
:1002A000000C990B08956730710548F465307105AD
:1002B00060F46330710549F08FEF9FEF0895693066
:1002C000710519F06B307105B9F784E090E008957D
:1002D000615071096D30710578F7695E7D4FDDCF32
:1002E0006330710549F785E090E008956E3071053F
:1002F00018F7FB018827E058FE4F8F4F0C94E82039
:1003000091018E018E018E018E018E018E018E0172
:1003100091015C015C0191018E018E0186E090E00B
:10032000089587E090E00895E0918C02F0918D02AD
:1003300040815181628173818481958135D3892B7C
:1003400019F081E090E008957ADFE0918C02F0915D
:100350008D0280819181A281B381892B8A2B8B2B85
:1003600019F790E080E008951F93CF93DF931F92D9
:10037000CDB7DEB7182F198241E050E060E070E0A1
:10038000CE01019611D3892BC1F4198341E050E0CD
:1003900060E070E0CE01019607D3892B71F481E013
:1003A000D0D331E020E0892B09F430E0832F922F65
:1003B0000F90DF91CF911F91089581E090E0F8CFE9
:1003C000CF93DF931F92CDB7DEB780917E029091DD
:1003D0007F02892BF9F441E050E060E070E0CE014B
:1003E000019644D3698170E070938102609380022A
:1003F0006A30710599F481E090E090938B028093CC
:100400008A0288E090E0B0DF892B21F0109201028F
:10041000109200020F90DF91CF91089580917E029B
:1004200090917F021EDF90937F0280937E0201965F
:1004300089F7ECCF8F929F92AF92BF92CF92EF92BB
:10044000FF920F931F93BCDF80917E0290917F02F9
:100450000197D9F444E050E060E070E086E892E073
:1004600005D3609180027091810280917E0290910B
:100470007F02F7DE90937F0280937E02019629F43B
:10048000109201021092000263C180917E0290914D
:100490007F020297B1F444E050E060E070E082E84F
:1004A00092E0E4D2609180027091810280917E029C
:1004B00090917F02D6DE90937F0280937E02019618
:1004C000F9F280917E0290917F02049709F066C054
:1004D00080917C0290917D02892B89F500918202A6
:1004E0001091830220918402309185024091800214
:1004F00050918102609186027091870280918802FA
:1005000090918902BCE8EB2EB2E0FB2EA0D3892BA0
:10051000A9F5E0918C02F0918D02848195819093F0
:100520007D0280937C0280819181A281B38180933E
:10053000780290937902A0937A02B0937B02409163
:1005400078025091790260917A0270917B028091D9
:100550007C0290917D028AD272DEE0918C02F09151
:100560008D0280819181A281B3810097A105B1059F
:1005700009F06EC010927D0210927C0260918002A0
:100580007091810280917E0290917F026ADE909349
:100590007F0280937E02019609F472CF80917E02E1
:1005A00090917F02039789F5009182021091830256
:1005B0002091840230918502409180025091810205
:1005C00060918602709187028091880290918902E1
:1005D000812C912C5401CC24C394ACE8EA2EA2E0E7
:1005E000FA2EB4D3892B09F448C06091800270912F
:1005F000810280917E0290917F0233DE90937F0290
:1006000080937E02019609F43BCF80917E02909107
:100610007F02059709F057C0E0918002F0918102B6
:10062000EE30F10508F02CCF8827E65EFC4F8F4FA7
:100630000C94E8204B03B203CB032E04DA03E90346
:100640000004530396034002400217044504C1030B
:100650002481358130937D0220937C0268CFEFDDC9
:10066000E0918C02F0918D0280819181A281B38111
:10067000892B8A2B8B2B09F4B8CFE0918C02F09157
:100680008D024081518162817381848195818CD1F9
:10069000892B29F3F5CE44D6892B09F0F1CE7ED2F1
:1006A000892B09F0EDCE60918002709181028091DA
:1006B0007E0290917F02D5DD90937F0280937E022F
:1006C000019609F4DDCE80917E0290917F0206971B
:1006D00009F0FAC0009182021091830220918402F5
:1006E0003091850240918002509181026091860292
:1006F000709187028091880290918902812C912CBF
:100700005401E2E0CE2EFCE8EF2EF2E0FF2E53D3B0
:10071000892B09F0C9C008DE8130910509F4B0CEFB
:10072000892B09F4C1C082E090E00EC0609186027E
:1007300070918702809188029091890225D2892B3D
:1007400009F4B1CF83E090E00FDE892B09F098CE59
:100750001F910F91FF90EF90CF90BF90AF909F901F
:100760008F9008956091860270918702809188022F
:100770009091890242D2892B09F495CF84E090E0D0
:10078000E3CF6091860270918702809188029091F8
:1007900089023FD2F0CF60918602709187028091EA
:1007A0008802909189023FD2892B09F47CCF85E0A1
:1007B00090E0CACF60918602709187028091880292
:1007C0009091890235D4892B09F46DCF88E090E0AF
:1007D000BBCF2091820230918302409184025091DC
:1007E00085026091860270918702809188029091C3
:1007F00089022AD4892B09F456CF89E090E0A4CF4E
:1008000020918202309183024091840250918502AE
:10081000609186027091870280918802909189028E
:100820001DD4892B09F43FCF8AE090E08DCF209131
:10083000820230918302409184025091850260913E
:100840008602709187028091880290918902A9D2D4
:10085000892B09F428CF87E090E076CF209182029F
:10086000309183024091840250918502609186020A
:100870007091870280918802909189027ED2892BA3
:1008800009F411CF86E090E05FCF6091860270910D
:1008900087028091880290918902CFD1892B09F437
:1008A00002CF8BE090E050CF609180027091810286
:1008B00080917E0290917F02D4DC90937F0280939E
:1008C0007E02019609F4DCCD80917E0290917F0238
:1008D000079709F03DCF809180029091810209979E
:1008E00009F436CF81E02DD1892B09F0C9CD1092C2
:1008F0007F0210927E022CCF9DDD809100029091AC
:100900000102892B71F081E090E020918A02309100
:100910008B02232B11F490E080E091958195910951
:10092000089581E090E0089560E870E088E992E041
:1009300025D48823C9F0809198029091990225D4FA
:1009400090939302809392029C012F5F3F4F3093CC
:100950009702209396021092950210929402FC0145
:10096000108290E080E0089581E090E00895609129
:100970009402709195026F5F7F4F809198029091E1
:10098000990206D4811103C083E090E00895CCDF82
:10099000892BD1F790E080E00895EED3813009F4FF
:1009A000C3CF81E090E008954F925F926F927F9263
:1009B000AF92BF92CF92DF92EF92FF920F931F936D
:1009C000CF93DF936C012A013B018AE7A82EB12C5B
:1009D000411451046104710419F490E080E035C0C1
:1009E00080919402909195028A37910559F1E09097
:1009F0009402F0909502E501CE19DF09CE01B0E036
:100A0000A0E084159505A605B70570F5009196023E
:100A100010919702AE01B601C8010E9404214C1A40
:100A20005D0A61087108EC0EFD1EF0929502E092DD
:100A30009402CC0EDD1EC00FD11FD0939702C0933D
:100A40009602C6CF94DF009791F2DF91CF911F916C
:100A50000F91FF90EF90DF90CF90BF90AF907F907D
:100A60006F905F904F900895E201D0CF8F929F9248
:100A7000AF92BF92CF92DF92EF92FF920F931F93AC
:100A8000CF93DF938C016A017B01812C912C54015F
:100A9000C114D104E104F104B1F1C0919002D091EC
:100AA0009102209709F442C0CE01B0E0A0E08C157D
:100AB0009D05AE05BF0508F0E60160918E027091BC
:100AC0008F02AE01C801880D991D0E9404218091FA
:100AD0009002909191028C1B9D0B909391028093B8
:100AE000900280918E0290918F028C0F9D1F9093A7
:100AF0008F0280938E02CE01B0E0A0E0C81AD90A1E
:100B0000EA0AFB0A79F490E080E0DF91CF911F912F
:100B10000F91FF90EF90DF90CF90BF90AF909F909C
:100B20008F900895880E991EAA1EBB1E60E972E080
:100B30008EE892E0CED2019609F0AACF81E090E053
:100B4000E4CFE0919202F0919302882349F082E091
:100B500080830DDF8330910511F090E080E00895EF
:100B600081E0F6CF85D2019719F081E090E00895F9
:100B700014DF892BD1F70BD631E020E0892B09F463
:100B800030E0832F922F0895672B682B692B19F47F
:100B900090E080E0089582E090E00895CF93DF93A5
:100BA0001F92CDB7DEB787E0898341E050E060E077
:100BB00070E0CE010196F8DE892BE1F481E08983B3
:100BC00041E050E060E070E0CE010196EDDE892B5F
:100BD00089F484E0898341E050E060E070E0CE0178
:100BE0000196E2DE892B31F490E080E00F90DF91F6
:100BF000CF91089583E090E0F9CF672B682B692BA4
:100C000029F40E94931C90E080E0089582E090E037
:100C10000895672B682B692B19F082E090E0089506
:100C200090E080E00895672B682B692B19F082E033
:100C300090E0089590E080E00895672B682B692B81
:100C400019F082E090E0089590E080E00895EF923E
:100C5000FF92F70111821082672B682B692B09F034
:100C600072C081E090E04330510509F069C0809185
:100C70009E0290919F02892B09F05CC080E190E078
:100C8000A0E0B0E08093E8029093E902A093EA022A
:100C9000B093EB0223EE36E03093ED022093EC02AA
:100CA0008093EE029093EF02A093F002B093F102D2
:100CB00023EF36E03093F3022093F2028093F402A4
:100CC0009093F502A093F602B093F70223E037E089
:100CD0003093F9022093F8028093FA029093FB027A
:100CE000A093FC02B093FD0223E137E03093FF02B2
:100CF0002093FE028093000390930103A0930203CC
:100D0000B093030383E297E0909305038093040379
:100D10001092060310920703109208031092090321
:100D200010920B0310920A0381E090E090939F02CF
:100D300080939E0288EE92E09183808390E080E031
:100D4000FF90EF90089582E090E0FACFEF92FF924B
:100D5000CF93DF93CDB7DEB7F70111821082672BF7
:100D6000682B692B39F481E090E0DF91CF91FF90FF
:100D7000EF90089582E090E0F8CF672B682B692B05
:100D800051F4213031054105510541F40E94B91358
:100D900090E080E0089582E090E0089581E090E0A6
:100DA0000895672B682B692B19F490E080E0089573
:100DB00082E090E008958F929F92AF92BF92CF927F
:100DC000EF92FF92CF93DF9300D01F921F92CDB787
:100DD000DEB7C9828A829B82AC82BD82F701118212
:100DE0001082672B682B692B09F01FC14130510518
:100DF00039F04330510509F497C081E090E070C0AC
:100E000080919C0290919D02892B09F05EC084E044
:100E100090E0A0E0B0E08093A0029093A102A093A4
:100E2000A202B093A3022BEC36E03093A5022093EC
:100E3000A4028093A6029093A702A093A802B09365
:100E4000A9022FEC36E03093AB022093AA028093E4
:100E5000AC029093AD02A093AE02B093AF0223ED2B
:100E600036E03093B1022093B0028093B2029093A7
:100E7000B302A093B402B093B50287ED96E09093CD
:100E8000B7028093B60288E090E0A0E0B0E08093E3
:100E9000B8029093B902A093BA02B093BB028BED53
:100EA00096E09093BD028093BC021092BE02109215
:100EB000BF021092C0021092C1021092C30210929F
:100EC000C20250939D0240939C0241E050E060E0DA
:100ED00070E0CE01019668DD892B89F083E090E017
:100EE0000F900F900F900F900F90DF91CF91FF9088
:100EF000EF90CF90BF90AF909F908F900895898191
:100F0000883041F080EA92E0F7019183808390E09D
:100F100080E0E6CF44E050E060E070E0CE01029671
:100F200043DD892B79F3DACF80919A0290919B026D
:100F3000892B09F060C084E090E0A0E0B0E08093ED
:100F4000C4029093C502A093C602B093C7022BECD3
:100F500036E03093C9022093C8028093CA0290936E
:100F6000CB02A093CC02B093CD022FEC36E03093AD
:100F7000CF022093CE028093D0029093D102A0930F
:100F8000D202B093D30223ED36E03093D502209302
:100F9000D4028093D6029093D702A093D802B09344
:100FA000D90287ED96E09093DB028093DA0288E025
:100FB00090E0A0E0B0E08093DC029093DD02A0938B
:100FC000DE02B093DF028BED96E09093E102809316
:100FD000E0021092E2021092E3021092E4021092F8
:100FE000E5021092E7021092E60281E090E0909311
:100FF0009B0280939A0241E050E060E070E0CE01F5
:101000000196D2DC892B09F069CF8981883019F0EB
:1010100084EC92E079CF44E050E060E070E0CE01F3
:101020000296C2DC892BA1F359CF82E090E058CF21
:10103000672B682B692B29F40E94941C90E080E0B8
:10104000089582E090E00895672B682B692B19F4CE
:1010500081E090E0089582E090E00895672B682B8E
:10106000692B19F481E090E0089582E090E0089502
:101070000E942B139C0190938D0380938C0381E03D
:1010800090E02F3F3F4F11F490E080E008950097EB
:10109000E9F0FC01CA01B0E0A0E0608381839283A3
:1010A000A383B4839A01AD012B5F3F4F4F4F5F4F36
:1010B000BF0180918C0390918D036DD031E020E0D1
:1010C000019609F430E0832F922F089580E090E09C
:1010D0000895EF92FF920F931F93CF93DF9300D069
:1010E0001F921F92CDB7DEB77C018B0119821A8245
:1010F0001B821C8221E030E040E050E0BE016B5FCB
:101100007F4F80918C0390918D038AD0019671F46A
:1011100090E080E00F900F900F900F900F90DF9174
:10112000CF911F910F91FF90EF90089524E030E050
:1011300040E050E0BE016F5F7F4F80918C03909143
:101140008D036ED0019621F329813A814B815C8118
:101150006CE073E080918C0390918D0361D08CE002
:1011600093E0F7019183808389819A81F8019183CB
:10117000808381E090E0CECF81E008952EE833E0D7
:10118000FC013183208381E0089583E993E0089591
:10119000AB0161E07CCFAF92BF92CF92DF92EF9232
:1011A000FF920F931F93CF93DF931F921F92CDB7A0
:1011B000DEB75C018B0169017A0190E080E0C11427
:1011C000D104E104F10469F40F900F90DF91CF9105
:1011D0001F910F91FF90EF90DF90CF90BF90AF9055
:1011E00008959C2D8D2DC114D10421E0E206F10457
:1011F00010F09FEF8FEF9E012F5F3F4F492F582F29
:10120000B801C5010E9476138F3F9807E9F2298142
:101210003A81C21AD30AE108F108020F131FCFCF97
:10122000AF92BF92CF92DF92EF92FF920F931F93F4
:10123000CF93DF931F921F92CDB7DEB75C018B0176
:1012400069017A0190E080E0C114D104E104F10465
:1012500069F40F900F90DF91CF911F910F91FF9044
:10126000EF90DF90CF90BF90AF9008959C2D8D2D83
:10127000C114D10421E0E206F10410F09FEF8FEFDA
:101280009E012F5F3F4F492F582FB801C5010E9483
:1012900044138F3F9807E9F229813A81C21AD30A91
:1012A000E108F108020F131FCFCFFF920F931F9396
:1012B000CF93DF9300D01F92CDB7DEB7F62E182F55
:1012C0004A832B830C8361E070E0CE01029601D249
:1012D0000097E1F4F98261E070E0CE010196F9D166
:1012E0000097A1F4198361E070E0CE010196F1D17D
:1012F000009761F461E070E0CE010396EAD10097B7
:1013000029F461E070E0CE010496E3D10F900F90D4
:101310000F900F90DF91CF911F910F91FF90089543
:101320000F93CF93DF931F921F92CDB7DEB786E066
:101330008A830E94951C81E0898361E070E0CE0180
:101340000196C7D1892B31F50ED2892B19F585E08D
:10135000898361E070E0CE010196BBD1892BD1F485
:10136000198261E070E0CE010196B3D1892B91F42E
:1013700080919B0780930E0461E070E08EE094E022
:10138000A8D1892B39F480910E04811106C0EBD1CC
:10139000892BA1F081E090E096C160917B0770916C
:1013A0007C0780917D0790917E0700916B022091D0
:1013B0009B0741E07ADF892B51F3ECCF198261E082
:1013C00070E0CE01019685D1892B21F7609133071A
:1013D00070913407809135079091360700914F0244
:1013E00020917F0740E061DF892BA1F660913707EC
:1013F000709138078091390790913A070091510216
:101400002091810741E051DF892B09F0C3CF609122
:101410003B0770913C0780913D0790913E070091FA
:1014200053022091830742E040DF892B09F0B2CFBD
:1014300060913F077091400780914107909142076A
:10144000009155022091850743E02FDF892B09F099
:10145000A1CF89D1892B09F09DCF81E0898361E0FB
:1014600070E0CE01019635D1892B09F093CF6091C0
:101470006707709168078091690790916A070091EA
:101480006902209199074AE010DF892B09F082CF89
:1014900060914307709144078091450790914607FA
:1014A000009157022091870744E0FFDE892B09F065
:1014B00071CF6091470770914807809149079091DB
:1014C0004A07009159022091890745E0EEDE892BF9
:1014D00009F060CF60914B0770914C0780914D07E8
:1014E00090914E0700915B0220918B0746E0DDDE74
:1014F000892B09F04FCF37D1892B09F04BCF82E0F0
:10150000898361E070E0CE010196E3D0892B09F078
:1015100041CF60914F077091500780915107909192
:10152000520700915D0220918D0747E0BEDE892BB6
:1015300009F030CF6091530770915407809155079F
:101540009091560700915F0220918F0748E0ADDE31
:10155000892B09F01FCF6091570770915807809130
:10156000590790915A07009161022091910749E033
:101570009CDE892B09F00ECFF6D0892B09F00ACF1B
:1015800083E0898361E070E0CE010196A2D0892BCF
:1015900009F000CF60915B0770915C0780915D0757
:1015A00090915E0700916302209193074DE07DDEEC
:1015B000892B09F0EFCE60915F07709160078091F1
:1015C00061079091620700916502209195074CE0B8
:1015D0006CDE892B09F0DECE6091630770916407A1
:1015E00080916507909166070091670220919707A7
:1015F0004BE05BDE892B09F0CDCEB5D0892B09F00D
:10160000C9CE84E0898361E070E0CE01019661D0AB
:10161000892B09F0BFCE60916B0770916C078091A8
:101620006D0790916E0700916F0220919F074EE029
:101630003CDE892B09F0AECE60916F077091700788
:101640008091710790917207009171022091A1071A
:101650004FE02BDE892B09F09DCE609173077091CE
:10166000740780917507909176070091730220911D
:10167000A30740E11ADE892B09F08CCE6091770731
:10168000709178078091790790917A07009175029F
:101690002091A50741E109DE892B09F07BCE63D0BB
:1016A000892B09F077CE61E070E0CE01029611D06F
:1016B000892B09F06FCE57D031E020E0892B09F457
:1016C00030E0832F922F0F900F90DF91CF910F91E9
:1016D0000895EF92FF920F931F93CF93DF93E090C3
:1016E0000F04F0901004E60EF71E2CE1E216F10450
:1016F000E8F4EB01BC010091110410911204AE0159
:10170000C8010E940421F0921004E0920F04C00F5F
:10171000D11FD0931204C093110490E080E0DF91B8
:10172000CF911F910F91FF90EF90089582E090E08C
:10173000F6CF60E270E083E194E032D0882381F05C
:10174000809113049091140432D0909312048093EA
:1017500011041092100410920F0490E080E008959C
:1017600081E090E0089560910F04709110048091E1
:101770001304909114041ED0811103C082E090E004
:101780000895D7DF892BD1F790E080E0089506D047
:10179000813009F4CECF81E090E0089581E0089592
:1017A00025E134E0FC013183208381E008958AE162
:1017B00094E00895AB0163E06ACC089508951F9208
:1017C0000F920FB60F9211240BB60F922F933F93E7
:1017D0004F935F936F937F938F939F93AF93BF9339
:1017E000EF93FF93E0910602F09107021995FF91A4
:1017F000EF91BF91AF919F918F917F916F915F9189
:101800004F913F912F910F900BBE0F900FBE0F90F5
:101810001F9018951F920F920FB60F9211240BB6BE
:101820000F922F933F934F935F936F937F938F9379
:101830009F93AF93BF93EF93FF93E0910802F091D2
:1018400009021995FF91EF91BF91AF919F918F91EF
:101850007F916F915F914F913F912F910F900BBEB0
:101860000F900FBE0F901F9018951F920F920FB6FA
:101870000F9211240BB60F922F933F934F935F93C8
:101880006F937F938F939F93AF93BF93EF93FF9348
:10189000E0910A02F0910B021995FF91EF91BF912F
:1018A000AF919F918F917F916F915F914F913F91F8
:1018B0002F910F900BBE0F900FBE0F901F90189599
:1018C0001F920F920FB60F9211240BB60F922F9307
:1018D0003F934F935F936F937F938F939F93AF93B8
:1018E000BF93EF93FF93E0910C02F0910D021995D5
:1018F000FF91EF91BF91AF919F918F917F916F91E8
:101900005F914F913F912F910F900BBE0F900FBEA3
:101910000F901F9018951F920F920FB60F921124DF
:101920000BB60F922F933F934F935F936F937F93D9
:101930008F939F93AF93BF93EF93FF93E091020236
:10194000F09103021995FF91EF91BF91AF919F9193
:101950008F917F916F915F914F913F912F910F9058
:101960000BBE0F900FBE0F901F9018951F920F92F5
:101970000FB60F9211240BB60F922F933F934F93F4
:101980005F936F937F938F939F93AF93BF93EF93E7
:10199000FF93E0910402F09105021995FF91EF91F8
:1019A000BF91AF919F918F917F916F915F914F9177
:1019B0003F912F910F900BBE0F900FBE0F901F9075
:1019C00018951F920F920FB60F9211240BB60F921B
:1019D0002F933F934F935F936F937F938F939F9337
:1019E000AF93BF93EF93FF93E0910E02F0910F023C
:1019F0001995FF91EF91BF91AF919F918F917F9139
:101A00006F915F914F913F912F910F900BBE0F906F
:101A10000FBE0F901F9018951F920F920FB60F9246
:101A200011240BB60F922F933F934F935F936F93B5
:101A30007F938F939F93AF93BF93EF93FF93E09127
:101A40001002F09111021995FF91EF91BF91AF91A2
:101A50009F918F917F916F915F914F913F912F91C6
:101A60000F900BBE0F900FBE0F901F9018951F92F6
:101A70000F920FB60F9211242F933F938F939F9342
:101A8000AF93BF938091360490913704A0913804AE
:101A9000B09139043091350423E0230F2D3758F5E8
:101AA0000196A11DB11D20933504809336049093B7
:101AB0003704A0933804B093390480913A0490918C
:101AC0003B04A0913C04B0913D040196A11DB11DC1
:101AD00080933A0490933B04A0933C04B0933D045C
:101AE000BF91AF919F918F913F912F910F900FBE1A
:101AF0000F901F90189526E8230F0296A11DB11D87
:101B0000D2CF3FB7F89480913A0490913B04A091D2
:101B10003C04B0913D0426B5A89B05C02F3F19F0A9
:101B20000196A11DB11D3FBFBA2FA92F982F88275D
:101B3000BC01CD01620F711D811D911D42E0660F38
:101B4000771F881F991F4A95D1F708958F929F920A
:101B5000AF92BF92CF92DF92EF92FF926B017C0126
:101B6000D0DF4B015C01C114D104E104F104D9F0D0
:101B700024DEC7DF681979098A099B09683E73402A
:101B80008105910580F321E0C21AD108E108F1082E
:101B900088EE880E83E0981EA11CB11CC114D104EC
:101BA000E104F10431F7FF90EF90DF90CF90BF9008
:101BB000AF909F908F900895789484B5826084BD93
:101BC00084B5816084BD85B5826085BD85B5816041
:101BD00085BDEEE6F0E0808181608083E1E8F0E0A1
:101BE0001082808182608083808181608083E0E8D0
:101BF000F0E0808181608083E1EBF0E080818460AF
:101C00008083E0EBF0E0808181608083E1E9F0E0B7
:101C1000808182608083808181608083E0E9F0E060
:101C2000808181608083E1EAF0E08081826080834E
:101C3000808181608083E0EAF0E080818160808340
:101C4000E1E2F1E080818260808380818160808335
:101C5000E0E2F1E0808181608083EAE7F0E080816A
:101C600084608083808182608083808181608083C2
:101C70008081806880831092C100089581508231F4
:101C800008F05AC0E82FF0E08827E65BF14F8F4F4D
:101C90000C94E8206A0E6E0E5C0E620E660E9C0EB0
:101CA000710E770E7B0E810E850E890E8F0E930EB0
:101CB0009C0E970E9D0EA10E809180008F778093D1
:101CC00080000895809180008F7DF9CF8091800001
:101CD000877FF5CF84B58F7784BD089584B58F7DD8
:101CE000FBCF8091B0008F778093B00008958091F2
:101CF000B0008F7DF9CF809190008F778093900016
:101D00000895809190008F7DF9CF80919000877F1A
:101D1000F5CF8091A0008F778093A00008958091E7
:101D2000A0008F7DF9CF8091A000877FF5CF8091B3
:101D300020018F77809320010895809120018F7D6D
:101D4000F9CF80912001877FF5CF1F93CF93DF9349
:101D5000282F30E0F901EC51FF4F8491F901E65D45
:101D6000FE4FD491F901E059FE4FC491CC23A1F06C
:101D7000162F811183DFEC2FF0E0EE0FFF1FEA54E6
:101D8000FE4FA591B4918FB7F894EC91111108C052
:101D9000D095DE23DC938FBFDF91CF911F91089503
:101DA000DE2BF8CFFC01918D228D892F90E0805C95
:101DB0009F4F821B91098F7399270895FC01918D84
:101DC000828D981731F0828DE80FF11D858D90E09E
:101DD00008958FEF9FEF0895FC01918D828D9817E4
:101DE00061F0A28DAE0FBF2FB11D5D968C91928DCB
:101DF0009F5F9F73928F90E008958FEF9FEF0895FC
:101E0000FC01538D448D252F30E0842F90E0821B00
:101E1000930B541710F0CF96089501970895FC0185
:101E2000A48DA80FB92FB11DA35ABF4F2C91848D3B
:101E300090E001968F739927848FA689B7892C9398
:101E4000A089B1898C91837080648C93938D848DEB
:101E5000981306C00288F389E02D80818F7D8083EE
:101E60000895CF93DF93EC01888D8823B1F0AA8980
:101E7000BB89E889F9898C9185FD03C0808186FD45
:101E80000CC00FB607FCF7CF8C9185FFF2CF808195
:101E900085FFEDCFCE01C3DFEACFDF91CF9108956B
:101EA000EF92FF920F931F93CF93DF93EC0181E0AA
:101EB000888F9B8D8C8D98131AC0E889F989808151
:101EC00085FF15C09FB7F894EE89FF896083E88984
:101ED000F98980818370806480839FBF81E090E076
:101EE000DF91CF911F910F91FF90EF900895F62E03
:101EF0000B8D10E00F5F1F4F0F731127E02E8C8D9D
:101F00008E110BC00FB607FCFACFE889F9898081E2
:101F100085FFF5CFCE0183DFF2CFEB8DEC0FFD2FE8
:101F2000F11DE35AFF4FF0829FB7F8940B8FEA89B7
:101F3000FB8980818062D0CFCF92DF92EF92FF92B7
:101F40001F93CF93DF93EC016A017B01122FE88985
:101F5000F98982E08083C11481EED806E104F1049E
:101F6000A1F060E079E08DE390E0A70196010E9486
:101F7000C620215031094109510956954795379599
:101F80002795211580E1380798F0E889F9891082B2
:101F900060E874E88EE190E0A70196010E94C620F7
:101FA0002150310941095109569547953795279593
:101FB000EC85FD853083EE85FF852083188EEC89C6
:101FC000FD891083EA89FB89808180618083EA89A9
:101FD000FB89808188608083EA89FB8980818068B1
:101FE0008083EA89FB8980818F7D8083DF91CF9117
:101FF0001F91FF90EF90DF90CF9008951F920F9266
:102000000FB60F9211240BB60F922F938F939F93BD
:10201000EF93FF93E0914E04F0914F048081E091A3
:102020005404F091550482FD1DC0908180915704A5
:102030008F5F8F7320915804821741F0E09157040D
:10204000F0E0E25CFB4F958F80935704FF91EF9196
:102050009F918F912F910F900BBE0F900FBE0F90FD
:102060001F9018958081F2CF1F920F920FB60F929A
:1020700011240BB60F922F933F934F935F936F935F
:102080007F938F939F93AF93BF93EF93FF938EE3D1
:1020900094E0C5DEFF91EF91BF91AF919F918F9139
:1020A0007F916F915F914F913F912F910F900BBE58
:1020B0000F900FBE0F901F901895EEE3F4E013827F
:1020C000128288EE93E0A0E0B0E084839583A6833B
:1020D000B78386E392E09183808385EC90E09587D7
:1020E000848784EC90E09787868780EC90E0918BE2
:1020F000808B81EC90E0938B828B82EC90E0958BCF
:10210000848B86EC90E0978B868B118E128E138ECB
:10211000148E08951F920F920FB60F9211240BB6D2
:102120000F922F938F939F93EF93FF93E091EB0484
:10213000F091EC048081E091F104F091F20482FDD1
:102140001DC090818091F4048F5F8F732091F504FE
:10215000821741F0E091F404F0E0E552FB4F958FD7
:102160008093F404FF91EF919F918F912F910F90A5
:102170000BBE0F900FBE0F901F9018958081F2CF6D
:102180001F920F920FB60F9211240BB60F922F933E
:102190003F934F935F936F937F938F939F93AF93EF
:1021A000BF93EF93FF938BED94E039DEFF91EF91B6
:1021B000BF91AF919F918F917F916F915F914F915F
:1021C0003F912F910F900BBE0F900FBE0F901F905D
:1021D0001895EBEDF4E01382128288EE93E0A0E014
:1021E000B0E084839583A683B78386E392E09183EE
:1021F00080838DEC90E0958784878CEC90E09787C6
:10220000868788EC90E0918B808B89EC90E0938BB3
:10221000828B8AEC90E0958B848B8EEC90E0978B90
:10222000868B118E128E138E148E08951F920F922C
:102230000FB60F9211240BB60F922F938F939F938B
:10224000EF93FF93E0918805F09189058081E091FB
:102250008E05F0918F0582FD1DC0908180919105C2
:102260008F5F8F7320919205821741F0E091910565
:10227000F0E0E858FA4F958F80939105FF91EF9128
:102280009F918F912F910F900BBE0F900FBE0F90CB
:102290001F9018958081F2CF1F920F920FB60F9268
:1022A00011240BB60F922F933F934F935F936F932D
:1022B0007F938F939F93AF93BF93EF93FF9388E7A1
:1022C00095E0ADDDFF91EF91BF91AF919F918F911F
:1022D0007F916F915F914F913F912F910F900BBE26
:1022E0000F900FBE0F901F901895E8E7F5E013824E
:1022F000128288EE93E0A0E0B0E084839583A68309
:10230000B78386E392E09183808385ED90E09587A3
:10231000848784ED90E09787868780ED90E0918BAD
:10232000808B81ED90E0938B828B82ED90E0958B9A
:10233000848B86ED90E0978B868B118E128E138E98
:10234000148E08951F920F920FB60F9211240BB6A0
:102350000F922F938F939F93EF93FF93E091250616
:10236000F09126068081E0912B06F0912C0682FDEB
:102370001DC0908180912E068F5F8F7320912F0654
:10238000821741F0E0912E06F0E0EB5EF94F958F59
:1023900080932E06FF91EF919F918F912F910F9037
:1023A0000BBE0F900FBE0F901F9018958081F2CF3B
:1023B0001F920F920FB60F9211240BB60F922F930C
:1023C0003F934F935F936F937F938F939F93AF93BD
:1023D000BF93EF93FF9385E196E021DDFF91EF91AD
:1023E000BF91AF919F918F917F916F915F914F912D
:1023F0003F912F910F900BBE0F900FBE0F901F902B
:102400001895E5E1F6E01382128288EE93E0A0E0F1
:10241000B0E084839583A683B78386E392E09183BB
:10242000808385E391E09587848784E391E09787B3
:10243000868780E391E0918B808B81E391E0938BA1
:10244000828B82E391E0958B848B86E391E0978B7E
:10245000868B118E128E138E148E0895AF92BF92BA
:10246000CF92DF92EF92FF920F931F93CF93DF9360
:102470006C017B018B01040F151FEB015E01AE188F
:10248000BF08C017D10759F06991D601ED91FC91B1
:102490000190F081E02DC6011995892B79F7C501CE
:1024A000DF91CF911F910F91FF90EF90DF90CF9030
:1024B000BF90AF9008958230A9F028F4882349F0A6
:1024C000813051F00895843021F1E8F0853039F100
:1024D000089510926E00089580916F008D7F809313
:1024E0006F000895809170008D7F8093700081E06F
:1024F0008093B0008091B100887F84608093B100A8
:102500001092B3000895809171008D7F80937100C7
:102510000895809172008D7F80937200089580915C
:1025200073008D7F809373000895CF93C82F80919F
:102530001202C8130BC0E0EDF1E084919FEF90937D
:102540001202B9DF60E08C2FCF91FFCB8FEFF9CF74
:102550001F920F920FB60F9211240BB60F922F936A
:102560003F934F935F936F937F938F939F93AF931B
:10257000BF93EF93FF938091B5069091B606A0911B
:10258000B706B091B806892B8A2B8B2BE1F190917D
:10259000B206E091B306F091B4068081892780836A
:1025A0008091B5069091B606A091B706B091B80695
:1025B000181619061A061B069CF48091B506909110
:1025C000B606A091B706B091B8060197A109B10966
:1025D0008093B5069093B606A093B706B093B8065D
:1025E000FF91EF91BF91AF919F918F917F916F91EB
:1025F0005F914F913F912F910F900BBE0F900FBEA7
:102600000F901F901895809112028FDFE9CF8130D3
:10261000910571F01CF4892B39F0089582309105F1
:1026200059F0039769F0089526E08EE394E084CC96
:1026300026E08BED94E0FBCF26E088E795E0F7CF2E
:1026400026E085E196E0F3CF40E855E260E070E0F7
:1026500090E080E0DCCF26E040E052EC61E070E00A
:102660008EE394E069DC68EE73E080E090E06EDA7F
:102670008EE394E097DB892B21F08EE394E0ACDBD2
:10268000F7CF90E080E00895CF92DF92EF92FF9233
:102690000F931F93CF93DF936B017A01E9011982A6
:1026A00018828EE394E07EDB892BA9F08601888175
:1026B00099818E159F0578F48EE394E08DDB8F3F32
:1026C0009807A9F3F80181938F0188819981019678
:1026D00099838883ECCF90E080E0DF91CF911F91C8
:1026E0000F91FF90EF90DF90CF9008950F931F937D
:1026F000CF93DF93EA018901F8948EE394E0AEDE94
:102700007894F801D183C08390E080E0DF91CF918D
:102710001F910F910895CF93DF931F921F92CDB712
:10272000DEB781E090E09A83898346DA8DDF70E03E
:1027300060E090E080E00E94B205009721F02981DE
:102740003A81232BE1F729813A81232B29F40F9039
:102750000F90DF91CF9108950E947C049C012F5F20
:102760003F4F2230310578F329813A81232BE1F75D
:10277000EACF4F925F926F927F928F929F92AF9229
:10278000BF92CF92DF92EF92FF92CF93DF93CDB7BC
:10279000DEB72C970FB6F894DEBF0FBECDBF809189
:1027A000BD06811157C081E08093BD0687E080930C
:1027B000BE061092CB061092CC061092CD06109257
:1027C000CE061092D7061092D8061092D906109213
:1027D000DA0680E090E0A0E8BFE38093CF06909314
:1027E000D006A093D106B093D2068093D3069093DF
:1027F000D406A093D506B093D60680E090E0A0E082
:10280000B0E48093DB069093DC06A093DD06B093E2
:10281000DE0680E090E0A0E4B0E48093DF069093D1
:10282000E006A093E106B093E2062C960FB6F8946A
:10283000DEBF0FBECDBFDF91CF91FF90EF90DF9055
:10284000CF90BF90AF909F908F907F906F905F9050
:102850004F9008952091BE062983233009F42CC49B
:1028600008F043C0213009F487C0223009F465C262
:1028700084E08093BE061092CB061092CC06109294
:10288000CD061092CE061092D7061092D80610925E
:10289000D9061092DA0680E090E0A0E0B0E48093E0
:1028A000DB069093DC06A093DD06B093DE0680E0A5
:1028B00090E0A0E4B0E48093DF069093E006A0935C
:1028C000E106B093E20622E02093C90680E090E0A2
:1028D000A0E8BFE38093CF069093D006A093D106E3
:1028E000B093D2062093CA06ABC38981853009F420
:1028F0002FC608F419C5863009F0BACFC0902F074B
:10290000D0903007E0903107F090320740902307D5
:102910005090240760902507709026078091030748
:1029200090910407A0910507B091060789839A83C7
:10293000AB83BC83A3019201C701B6010E946E1F45
:1029400029813A814B815C810E944C2087FD0EC712
:1029500020911307309114074091150750911607E5
:10296000C301B2010E94D31F18160CF4FFC61092C7
:10297000C8061092C7063CC0C0902707D090280711
:10298000E0902907F0902A0740902B0750902C07E1
:1029900060902D0770902E0780910B0790910C0787
:1029A000A0910D07B0910E0789839A83AB83BC83F6
:1029B000A3019201C701B6010E946E1F29813A81CD
:1029C0004B815C810E944C2087FD4AC020911B07EF
:1029D00030911C0740911D0750911E07C301B201A1
:1029E0000E94D31F1816E4F11092C4061092C30679
:1029F00022E02093BE061092CF061092D0061092CD
:102A0000D1061092D2061092D7061092D8061092D4
:102A1000D9061092DA0680E090E0A0E8BFE3809348
:102A2000DB069093DC06A093DD06B093DE0640E063
:102A300050E060E470E44093DF065093E00660935A
:102A4000E1067093E2062093BF068093CB06909335
:102A5000CC06A093CD06B093CE062093C006F0C25C
:102A60008090230790902407A0902507B090260718
:102A7000A3019201C501B4010E946E1F9B01AC012C
:102A800069817A818B819C810E94D31F18169CF0EA
:102A900020911B0730911C0740911D0750911E0784
:102AA000C301B2010E94D31F18162CF01092C40665
:102AB0001092C306DDCE40902F07509030076090F3
:102AC00031077090320780910F0790911007A09105
:102AD0001107B091120789839A83AB83BC83A3014A
:102AE0009201C701B6010E946E1F29813A814B8174
:102AF0005C810E944C2087FD4BC020911F073091C4
:102B000020074091210750912207C301B2010E9482
:102B1000D31F1816ECF11092C4061092C30683E07E
:102B20008093BE061092CF061092D0061092D10666
:102B30001092D2061092D3061092D4061092D506A7
:102B40001092D60680E090E0A0E8BFE38093DB0619
:102B50009093DC06A093DD06B093DE0640E050E0E3
:102B600060E870E44093DF065093E0066093E1066E
:102B70007093E20622E02093C1068093CB069093E7
:102B8000CC06A093CD06B093CE062093C20615C204
:102B9000A3019201C501B4010E946E1F9B01AC010B
:102BA00069817A818B819C810E94D31F18160CF455
:102BB0004BC020911F073091200740912107509171
:102BC0002207C301B2010E94D31F1816ECF1109224
:102BD000C4061092C30685E08093BE061092CB0611
:102BE0001092CC061092CD061092CE061092D3060B
:102BF0001092D4061092D5061092D60680E090E08E
:102C0000A0E8BFE38093DB069093DC06A093DD068B
:102C1000B093DE0640E050E060E470E44093DF06ED
:102C20005093E0066093E1067093E20622E0209361
:102C3000C5068093CF069093D006A093D106B0939B
:102C4000D2062093C606B9C18091C306813009F02F
:102C500040C02091E3063091E4064091E506509192
:102C6000E606C501B4010E94D31F18167CF082E06D
:102C70008093C30680E090E0A0E8BFE38093CB069A
:102C80009093CC06A093CD06B093CE068091C40657
:102C90008130C9F52091E7063091E8064091E906B8
:102CA0005091EA06C701B6010E94D31F18160CF412
:102CB000BCCD82E08093C40680E090E0A0E8BFE352
:102CC0008093CF069093D006A093D106B093D206FE
:102CD000ACCD2091F3063091F4064091F506509169
:102CE000F606C501B4010E944C2087FDCFCF81E0DC
:102CF0008093C3061092CB061092CC061092CD069C
:102D00001092CE06C3CF2091F7063091F80640917D
:102D1000F9065091FA06C701B6010E944C2087FDC2
:102D200084CD81E08093C4061092CF061092D00625
:102D30001092D1061092D20678CDC0902B07D09079
:102D40002C07E0902D07F0902E0740902707509019
:102D500028076090290770902A07809107079091B3
:102D60000807A0910907B0910A078D839E83AF835E
:102D7000B887A3019201C701B6010E946E1F2D8181
:102D80003E814F8158850E944C2087FD4BC0209189
:102D90001707309118074091190750911A07C3017E
:102DA000B2010E94D31F1816ECF11092C0061092C7
:102DB000BF0681E08093BE061092D3061092D4061F
:102DC0001092D5061092D6061092D7061092D80609
:102DD0001092D9061092DA0680E090E0A0E8BFE3F6
:102DE0008093DB069093DC06A093DD06B093DE06AD
:102DF00040E050E060E070E44093DF065093E0066E
:102E00006093E1067093E20629812093C3068093C4
:102E1000CB069093CC06A093CD06B093CE0620931C
:102E2000C4064ECF80912F0790913007A0913107B3
:102E3000B091320789839A83AB83BC8380910F075B
:102E400090911007A0911107B091120789879A8776
:102E5000AB87BC8729813A814B815C81C701B60170
:102E60000E946E1F29853A854B855C850E944C2007
:102E700087FD15C020911F07309120074091210741
:102E80005091220769817A818B819C810E94D31F96
:102E900018162CF01092C0061092BF0640CE8090FB
:102EA000230790902407A0902507B0902607A30140
:102EB0009201C501B4010E946E1F9B01AC016D819E
:102EC0007E818F8198850E94D31F18169CF02091D7
:102ED0001707309118074091190750911A07C3013D
:102EE000B2010E94D31F18162CF01092C006109247
:102EF000BF06BECC29813A814B815C81C501B401FA
:102F0000EDD79B01AC0169857A858B859C850E94F4
:102F1000D31F18160CF45AC020911F0730912007B8
:102F2000409121075091220769817A818B819C8190
:102F30000E94D31F18160CF449C01092C0061092BC
:102F4000BF0686E08093BE061092CB061092CC0698
:102F50001092CD061092CE061092CF061092D00697
:102F60001092D1061092D20680E090E0A0E4B0E486
:102F70008093DB069093DC06A093DD06B093DE061B
:102F800080E090E0A0E8B0E48093DF069093E00654
:102F9000A093E106B093E20622E02093C70680E00A
:102FA00090E0A0E8BFE38093D3069093D406A0936B
:102FB000D506B093D6062093C8068093D706909383
:102FC000D806A093D906B093DA062FCC8091BF061D
:102FD000813009F03EC02091E3063091E406409133
:102FE000E5065091E606C501B401DDD718167CF060
:102FF00082E08093BF0680E090E0A0E8BFE380938A
:10300000CB069093CC06A093CD06B093CE068091CC
:10301000C0068130C1F52091EB063091EC0640915D
:10302000ED065091EE06C701B601BDD718160CF497
:10303000FCCB82E08093C00680E090E0A0E8BFE394
:103040008093D3069093D406A093D506B093D6066A
:10305000ECCB2091F3063091F4064091F5065091A7
:10306000F606C501B4010E944C2087FDD0CF81E057
:103070008093BF061092CB061092CC061092CD061C
:103080001092CE06C4CF2091FB063091FC064091F1
:10309000FD065091FE06C701B601FED787FDC5CBE0
:1030A00081E08093C0061092D3061092D40610924D
:1030B000D5061092D606B9CBC0902F07D090300716
:1030C000E0903107F090320780902B0790902C070A
:1030D000A0902D07B0902E0780910B0790910C07C0
:1030E000A0910D07B0910E0789839A83AB83BC83AF
:1030F000A5019401C701B601F1D629813A814B811E
:103100005C81CAD787FD12C020911B0730911C0734
:1031100040911D0750911E07C501B40144D71816F0
:103120002CF01092C2061092C10662CC4090270784
:10313000509028076090290770902A07A3019201F8
:10314000C701B601CBD620910707309108074091FF
:10315000090750910A07A0D787FD52C08091170731
:1031600090911807A0911907B0911A078D839E833B
:10317000AF83B8879C01AD01C301B20114D7181603
:103180008CF11092C2061092C10681E08093BE06B7
:103190001092D3061092D4061092D5061092D6063D
:1031A0001092D7061092D8061092D9061092DA061D
:1031B00080E090E0A0E8BFE38093DB069093DC061C
:1031C000A093DD06B093DE0640E050E060E070E4DE
:1031D0004093DF065093E0066093E1067093E206A9
:1031E00022E013CE2D813E814F815885C301B2016B
:1031F000DAD618162CF01092C2061092C106EBCC4B
:103200004090230750902407609025077090260770
:10321000A5019401C301B20161D69B01AC01698192
:103220007A818B819C81BFD6181694F020911B0760
:1032300030911C0740911D0750911E07C501B40134
:10324000B2D618162CF01092C2061092C10679CE92
:103250008091C1068130B1F52091E3063091E406FA
:103260004091E5065091E606C301B2019CD61816BE
:103270007CF082E08093C10680E090E0A0E8BFE3AC
:103280008093CB069093CC06A093CD06B093CE0648
:103290008091C206813079F52091EF063091F006D9
:1032A0004091F1065091F206C701B6017CD618167E
:1032B0000CF4BBCA82E08093C20680E090E0A0E8F4
:1032C000BFE37BCE2091F3063091F4064091F506E2
:1032D0005091F606C301B201DFD687FDD9CF81E058
:1032E0008093C1061092CB061092CC061092CD06A8
:1032F0001092CE06CDCF2091FF063091000740916D
:10330000010750910207C701B601C6D687FD8DCAD5
:1033100081E08093C2061092D7061092D8061092D0
:10332000D9061092DA0681CAC0902B07D0902C07DC
:10333000E0902D07F0902E0740902307509024072F
:1033400060902507709026078091030790910407ED
:10335000A0910507B091060789839A83AB83BC834C
:10336000A3019201C701B601B9D529813A814B81E8
:103370005C8192D687FD12C020911307309114070B
:103380004091150750911607C301B2010CD61816CB
:103390002CF01092CA061092C906F7CE809027072B
:1033A00090902807A0902907B0902A07A3019201C6
:1033B000C501B40193D59B01AC0169817A818B81F0
:1033C0009C81F1D5181694F02091130730911407C1
:1033D0004091150750911607C301B201E4D51816A4
:1033E0002CF01092CA061092C90602CB40902F070B
:1033F00050903007609031077090320780910F072E
:1034000090911007A0911107B091120789839A83B8
:10341000AB83BC83A3019201C701B6015FD52981AB
:103420003A814B815C8138D687FD12C020911F07FD
:10343000309120074091210750912207C301B2012A
:10344000B2D518162CF01092CA061092C906C3CB3A
:10345000A3019201C501B40141D59B01AC01698171
:103460007A818B819C819FD5181694F020911F073B
:10347000309120074091210750912207C301B201EA
:1034800092D518162CF01092CA061092C90659CD82
:103490008091C906813091F52091E7063091E806C8
:1034A0004091E9065091EA06C501B4017CD5181691
:1034B0007CF082E08093C90680E090E0A0E8BFE362
:1034C0008093CF069093D006A093D106B093D206F6
:1034D0008091CA06813059F52091EB063091EC06B7
:1034E0004091ED065091EE06C701B6015CD5181665
:1034F0000CF49BC982E08093CA069ECD2091F7060A
:103500003091F8064091F9065091FA06C501B401D0
:10351000C3D587FDDDCF81E08093C9061092CF0629
:103520001092D0061092D1061092D206D1CF2091DF
:10353000FB063091FC064091FD065091FE06C70146
:10354000B601AAD587FD71C981E08093CA06ABCDCB
:10355000C0902F07D0903007E0903107F0903207ED
:103560008090230790902407A0902507B09026070D
:10357000A5019401C701B601B1D420910307309190
:103580000407409105075091060786D587FD12C0B4
:103590002091130730911407409115075091160799
:1035A000C501B40100D518162CF01092C606109271
:1035B000C506EBCD8090270790902807A09029079B
:1035C000B0902A07A7019601C501B40187D42091C4
:1035D0000F073091100740911107509112075CD5E9
:1035E00087FD12C020911F073091200740912107CD
:1035F00050912207C701B601D6D418162CF01092AC
:10360000C6061092C5068BCA40902B0750902C0717
:1036100060902D0770902E0780910B0790910C07FA
:10362000A0910D07B0910E0789839A83AB83BC8369
:10363000A3019201C701B60151D429813A814B817E
:103640005C812AD587FD12C020911B0730911C0791
:1036500040911D0750911E07C301B201A4D4181652
:103660002CF01092C6061092C50602C9A301920161
:10367000C501B40133D49B01AC0169817A818B818E
:103680009C8191D4181694F020911B0730911C074F
:1036900040911D0750911E07C301B20184D4181632
:1036A0002CF01092C6061092C5064BCC8091C50630
:1036B000813091F52091E7063091E8064091E906C6
:1036C0005091EA06C501B4016ED418167CF082E070
:1036D0008093C50680E090E0A0E8BFE38093CF062A
:1036E0009093D006A093D106B093D2068091C606DF
:1036F000813059F52091EF063091F0064091F106A6
:103700005091F206C701B6014ED418160CF48DC8BC
:1037100082E08093C606D1CD2091F7063091F8065D
:103720004091F9065091FA06C501B401B5D487FD60
:10373000DDCF81E08093C5061092CF061092D006AF
:103740001092D1061092D206D1CF2091FF0630916F
:1037500000074091010750910207C701B6019CD4B0
:1037600087FD63C881E08093C606D5CD80902B0786
:1037700090902C07A0902D07B0902E07A3019201E6
:10378000C501B401ABD39B01AC0169817A818B8106
:103790009C8109D4181694F02091130730911407D6
:1037A0004091150750911607C301B201FCD31816BA
:1037B0002CF01092C8061092C706B1C94090270796
:1037C000509028076090290770902A07809107077A
:1037D00090910807A0910907B0910A0789839A83FD
:1037E000AB83BC83A3019201C701B60177D32981C2
:1037F0003A814B815C8150D487FD12C0209117071C
:10380000309118074091190750911A07C301B2016E
:10381000CAD318162CF01092C8061092C70628C8F2
:10382000A3019201C501B40159D39B01AC01698187
:103830007A818B819C81B7D3181694F02091170759
:10384000309118074091190750911A07C301B2012E
:10385000AAD318162CF01092C8061092C706BBC93E
:103860008091C706813099F52091EB063091EC06E6
:103870004091ED065091EE06C501B40194D318169F
:103880007CF082E08093C70680E090E0A0E8BFE390
:103890008093D3069093D406A093D506B093D60612
:1038A0008091C806813061F52091EF063091F006D5
:1038B0004091F1065091F206C701B60174D3181673
:1038C00014F40C94151482E08093C806F6CC209171
:1038D000FB063091FC064091FD065091FE06C501A5
:1038E000B401DAD387FDDCCF81E08093C706109264
:1038F000D3061092D4061092D5061092D606D0CFD9
:103900002091FF0630910007409101075091020776
:10391000C701B601C1D387FF02C00C94151481E022
:103920008093C806F8CC089508954BE757E06FE4FC
:1039300072E08FE797E007D043E357E06FE472E06F
:103940008FE797E004C0FC01158E148E08952F9226
:103950003F924F925F926F927F928F929F92AF921F
:10396000BF92CF92DF92EF92FF920F931F93CF936C
:10397000DF9300D000D01F921F92CDB7DEB77C013D
:103980006B018A0181E090E0F701918F808F84E0E4
:1039900090E09C838B8349EF242E33243A943E821B
:1039A0002D828D819E816B817C81DDD34B018AEFDD
:1039B0009FEF9E838D838D819E816B817C81D3D38C
:1039C0005B01EBEFFFEFFE83ED838D819E816B81C9
:1039D0007C81C9D3FB018CEF9FEF9C838B8387E0B5
:1039E00090E09E838D838D819E816B817C81BBD392
:1039F0009B0186E090E09E838D838D819E816B810B
:103A00007C81B1D33B0185E090E09E838D838D81E5
:103A10009E816B817C81A7D32B013E822D828D817B
:103A20009E816B817C819FD31B018AEF9FEF9E83D8
:103A30008D838D819E816B817C8195D378876F8307
:103A40008BEF9FEF9E838D838D819E816B817C8127
:103A50008AD39EEF89169FEF990609F05AC08EEF20
:103A6000A8168FEFB80609F072C0329609F06FC041
:103A70002E3F3F4F09F06BC0FEEF6F16FFEF7F0642
:103A800009F065C08EEF48168FEF580609F05FC049
:103A90002A94232809F05BC0EF81F885319709F05B
:103AA00056C06130710509F052C0F701178A168AB5
:103AB0001A82198289819A81892B09F44EC083E088
:103AC00090E0F701958B848B88E090E0F70191837B
:103AD000808380E190E0938382839583848380E276
:103AE00090E097838683138E128E11861086268926
:103AF0003789F601868997892230310591F5029739
:103B0000A1F181E090E0F80195A784A717A616A679
:103B100035C089208094D9F4AB20A094C1F43196AB
:103B2000B1F42F3F3F4F99F46720609481F4452012
:103B3000409469F42A94232851F4EF81F885319751
:103B400031F46130710519F481E090E002C082E047
:103B500090E0F701978B868BABCFF701158A148A1B
:103B6000B3CF8230910509F06CC183E090E0F80199
:103B700095A784A781E090E097A786A7F60184899E
:103B800095898230910509F063C123E030E0F801A6
:103B900031A720A793A782A7F601208D318DF701C9
:103BA000808D918D2817390709F066C182E090E079
:103BB000F80191AB80AB13AA12AAF60120813181E2
:103BC000F701808191812817390709F058C182E0F7
:103BD00090E0F8019183808313821282F6012281A2
:103BE0003381F701828193812817390709F04AC18F
:103BF00082E090E0F8019583848317821682F601B3
:103C000024813581F701848195812817390709F0CE
:103C10003CC182E090E0F80191878087138612868C
:103C2000F60126813781F7018681978128173907A8
:103C300009F02EC182E090E0F8019587848717860D
:103C40001686F601828D938D009709F42AC1F7013B
:103C5000228D338D8217930709F01DC182E090E019
:103C6000F80195AB84AB17AA16AAF6012085318519
:103C7000F701808591852817390709F00FC182E087
:103C800090E0F801918B808B138A128A80E290E099
:103C9000F7019387828795878487F60182859385CC
:103CA000809709F006C182E090E0F801958B848B43
:103CB000178A168A82E090E0918F808F138E128E81
:103CC00080E190E0F70197878687F60186859785E2
:103CD000409709F4F1C081E090E0F801958F848F5E
:103CE000178E168E80E190E0F701918B808BF601A4
:103CF00080899189409709F4E2C081E090E0F80161
:103D000091A380A313A212A280E190E0F701938B0C
:103D1000828BF60182899389409709F0D3C082E0B3
:103D200090E0F80195A384A317A216A28091A7079B
:103D30009091A807F70191A380A3F60120A131A1DA
:103D40008217930709F4C1C083E090E0F80191AFB6
:103D500080AF13AE12AE85E090E095AF84AF17AEA2
:103D600016AE609113027091140280911502909129
:103D7000160220E030E040E05FE392D1AA24A39451
:103D8000B12C20E030E0A9010ED1882311F0B12C34
:103D9000A12CF701B5A2A4A2F60184A195A1D80196
:103DA000A05CBF4FF801EE5BFF4F8A159B0509F43D
:103DB0008FC081E090E08D939C931182108260917E
:103DC000B9067091BA068091BB069091BC06AA24F0
:103DD000A394B12C20E030E0A901E5D0882311F0B4
:103DE000B12CA12CF701B7A2A6A2F60186A197A13A
:103DF000D801AC5BBF4FF801EA5BFF4F8A159B050A
:103E000009F469C084E090E08D939C931182108244
:103E100028960FB6F894DEBF0FBECDBFDF91CF91CD
:103E20001F910F91FF90EF90DF90CF90BF90AF90D8
:103E30009F908F907F906F905F904F903F902F90CA
:103E400008952817390709F05CCE82E090E05BCE38
:103E5000F701248935892330310541F482E090E06F
:103E6000F80191A780A713A612A696CE82179307F2
:103E7000A9F381E090E0F4CF81E090E099CE81E079
:103E800090E0A7CE81E090E0B5CE81E090E0C3CE97
:103E900081E090E0D1CE81E090E0E2CE81E090E060
:103EA000F0CE85E090E0F80195AB84AB17AA16AA96
:103EB000E9CE83E090E0F9CE82E090E00ECF82E0A0
:103EC00090E01DCF81E090E02CCF82E090E03ECFEB
:103ED00082E090E070CF82E090E096CF5058BB2710
:103EE000AA270ED09FC090D030F095D020F031F4AA
:103EF0009F3F11F41EF485C00EF4E095E7FB7BC0F4
:103F0000E92FA1D080F3BA176207730784079507DA
:103F100018F071F49EF5B9C00EF4E0950B2EBA2F8F
:103F2000A02D0B01B90190010C01CA01A0011124BF
:103F3000FF27591B99F0593F50F4503E68F11A166B
:103F4000F040A22F232F342F4427585FF3CF4695FC
:103F500037952795A795F0405395C9F77EF41F161E
:103F6000BA0B620B730B840BBAF09150A1F0FF0FE8
:103F7000BB1F661F771F881FC2F70EC0BA0F621FD4
:103F8000731F841F48F4879577956795B795F795C4
:103F90009E3F08F0B3CF9395880F08F09927EE0F56
:103FA00097958795089503D008F481E00895990FB7
:103FB0000008550FAA0BE0E8FEEF16161706E807F3
:103FC000F907C0F012161306E407F50798F0621B14
:103FD000730B840B950B39F40A2661F0232B242BE9
:103FE000252B21F408950A2609F4A140A6958FEF08
:103FF000811D811D089597F99F6780E870E060E05A
:1040000008959FEF80EC089500240A941616170671
:1040100018060906089500240A94121613061406B9
:1040200005060895092E0394000C11F4882352F01C
:10403000BB0F40F4BF2B11F460FF04C06F5F7F4FD4
:104040008F4F9F4F089557FD9058440F551F59F0BB
:104050005F3F71F04795880F97FB991F61F09F3F75
:1040600079F087950895121613061406551FF2CF9E
:104070004695F1DF08C0161617061806991FF1CFEE
:1040800086957105610508940895E894BB27662715
:104090007727CB0197F908958ADF08F48FEF089509
:1040A0000BD0C0CFB1DF28F0B6DF18F0952309F0B0
:1040B000A2CFA7CF1124EACFC6DFA0F3959FD1F3FB
:1040C000950F50E0551F629FF001729FBB27F00DC6
:1040D000B11D639FAA27F00DB11DAA1F649F66271B
:1040E000B00DA11D661F829F2227B00DA11D621F6A
:1040F000739FB00DA11D621F839FA00D611D221F24
:10410000749F3327A00D611D231F849F600D211D07
:10411000822F762F6A2F11249F5750408AF0E1F0AA
:1041200088234AF0EE0FFF1FBB1F661F771F881FF3
:1041300091505040A9F79E3F510570F05CCFA6CF3B
:104140005F3FECF3983EDCF3869577956795B795DE
:10415000F795E7959F5FC1F7FE2B880F911D969508
:10416000879597F9089597FB072E16F4009406D0CB
:1041700077FD08D035D007FC05D03EF490958195A9
:104180009F4F0895709561957F4F0895A1E21A2E73
:10419000AA1BBB1BFD010DC0AA1FBB1FEE1FFF1FEB
:1041A000A217B307E407F50720F0A21BB30BE40B3B
:1041B000F50B661F771F881F991F1A9469F7609582
:1041C0007095809590959B01AC01BD01CF0108953C
:1041D000EE0FFF1F881F8BBF0790F691E02D1994FB
:1041E000AA1BBB1B51E107C0AA1FBB1FA617B7071D
:1041F00010F0A61BB70B881F991F5A95A9F7809539
:104200009095BC01CD010895FB01DC0102C0019035
:0E4210000D9241505040D8F70895F894FFCF1A
:10421E000100DE0BDE0BDE0BDE0BDE0BDE0BDE0B30
:10422E00DE0BFF00008000050503050505FF0507F1
:10423E00FF05050505040402040202060402FF023E
:10424E00040500000000500F2E12000F310FD20E89
:10425E00EC0EDE0E41746D656C2D3E41565200081B
:10426E000010001000200040002000400010001040
:10427E0000100000000100010000000000440200D8
:08428E00000000000000000028
:00000001FF
