:1000000058C000000C94FE0A0C94250B7AC0000026
:1000100078C0000076C0000074C000000C94920EFE
:1000200070C000006EC000006CC000006AC000001C
:1000300068C0000066C0000064C0000062C000002C
:100040000C944C0B5EC000000C94AE0D0C94E00DB3
:1000500058C0000056C0000054C0000052C000004C
:1000600050C000004EC00000000000080002010067
:100070000003040700000000000000000102040863
:100080001020408001020408102001020408102002
:10009000040404040404040402020202020203032E
:1000A0000303030300000000250028002B000200CA
:1000B000050E11241FBECFEFD8E0DEBFCDBF11E08B
:1000C000A0E0B1E0ECE7FAE302C005900D92AC3697
:1000D000B107D9F724E0ACE6B1E001C01D92A63C1F
:1000E000B207E1F710E0C9E5D0E004C02197FE01B6
:1000F0000E94191DC835D107C9F70E94580F0C94EA
:100100003C1D7ECFE0918001F09181018081918141
:10011000A281B381892B8A2B8B2B29F03696F09301
:100120008101E0938001089587309105C0F48456E1
:100130009F4FFC010C94191DA300A900B200D2002E
:10014000C500D800F1006E30710548F481E090E000
:100150000895FB01E85EFE4F6E307105F0F08FEF01
:100160009FEF08956730710548F46530710518F404
:1001700063307105A1F784E090E00895693071055E
:10018000D1F36B307105B9F3EACF615071096D306D
:10019000710528F7655F7E4FFB018081082E000CFA
:1001A000990B089563307105D1F685E090E00895CC
:1001B0006E307105A0F660527F4FFB010C94191D43
:1001C000F100EE00EE00EE00EE00EE00EE00EE00BC
:1001D000F100AF00AF00F100EE00EE0086E090E02D
:1001E000089587E090E00895E0918001F091810109
:1001F00040815181628173818481958133D3892BC0
:1002000019F081E090E008957DDFE0918001F091A8
:10021000810180819181A281B381892B8A2B8B2BD3
:1002200019F790E080E008951F93CF93DF931F921A
:10023000CDB7DEB7182F198241E050E060E070E0E2
:10024000CE0101960FD3892BC1F4198341E050E010
:1002500060E070E0CE01019605D3892B71F481E056
:10026000CED331E020E0892B09F430E0832F922FA8
:100270000F90DF91CF911F91089581E090E0F8CF2A
:10028000CF93DF931F92CDB7DEB78091720190912B
:100290007301892BF9F441E050E060E070E0CE0199
:1002A000019642D3698170E0709375016093740187
:1002B0006A30710599F481E090E090937F0180931A
:1002C0007E0188E090E0B0DF892B21F010920101DF
:1002D000109200010F90DF91CF91089580917201EB
:1002E0009091730121DF90937301809372010196C5
:1002F00089F7ECCF8F929F92AF92BF92CF92EF92FD
:10030000FF920F931F93BCDF809172019091730154
:100310000197D9F444E050E060E070E08AE791E0B2
:1003200003D3609174017091750180917201909175
:100330007301FADE9093730180937201019629F4A0
:10034000109201011092000161C18091720190919F
:1003500073010297B1F444E050E060E070E086E79A
:1003600091E0E2D260917401709175018091720107
:1003700090917301D9DE909373018093720101967D
:10038000F9F28091720190917301049709F066C0AF
:100390008091700190917101892B89F5009176010E
:1003A0001091770120917801309179014091740189
:1003B0005091750160917A0170917B0180917C016F
:1003C00090917D01B0E8EB2EB1E0FB2E9DD3892BFF
:1003D000A9F5E0918001F09181018481958190934C
:1003E00071018093700180819181A281B38180939A
:1003F0006C0190936D01A0936E01B0936F014091D9
:100400006C0150916D0160916E0170916F0180914E
:1004100070019091710188D275DEE0918001F091B8
:10042000810180819181A281B3810097A105B105ED
:1004300009F06CC01092710110927001609174010A
:100440007091750180917201909173016DDE9093AE
:10045000730180937201019609F472CF8091720149
:1004600090917301039789F50091760110917701BE
:10047000209178013091790140917401509175017A
:1004800060917A0170917B0180917C0190917D0156
:10049000812C912C5401CC24C394A0E8EA2EA1E035
:1004A000FA2EB1D3892B09F446C060917401709182
:1004B0007501809172019091730136DE9093730102
:1004C00080937201019609F43BCF80917201909163
:1004D0007301059709F055C0E0917401F091750121
:1004E000EE30F10508F02CCFE858FD4F0C94191DA3
:1004F000A902100329038C03380347035E03B102EA
:10050000F402A001A0017503A3031F032481358118
:1005100030937101209370016ACFF4DDE091800186
:10052000F091810180819181A281B381892B8A2BF5
:100530008B2B09F4BACFE0918001F09181014081C9
:10054000518162817381848195818CD1892B29F3BA
:10055000F7CE06D6892B09F0F3CE7ED2892B09F08F
:10056000EFCE60917401709175018091720190914C
:100570007301DADD9093730180937201019609F49F
:10058000DFCE8091720190917301069709F0FAC055
:1005900000917601109177012091780130917901D5
:1005A000409174015091750160917A0170917B01C5
:1005B00080917C0190917D01812C912C5401E2E08D
:1005C000CE2EF0E8EF2EF1E0FF2E52D3892B09F06A
:1005D000C9C00ADE8130910509F4B2CE892B09F435
:1005E000C1C082E090E00EC060917A0170917B0101
:1005F00080917C0190917D0125D2892B09F4B1CFA6
:1006000083E090E011DE892B09F09ACE1F910F91C3
:10061000FF90EF90CF90BF90AF909F908F900895F4
:1006200060917A0170917B0180917C0190917D01B4
:1006300041D2892B09F495CF84E090E0E3CF60911B
:100640007A0170917B0180917C0190917D013ED275
:10065000F0CF60917A0170917B0180917C01909143
:100660007D013ED2892B09F47CCF85E090E0CACF92
:1006700060917A0170917B0180917C0190917D0164
:10068000FCD3892B09F46DCF88E090E0BBCF20919B
:100690007601309177014091780150917901609114
:1006A0007A0170917B0180917C0190917D01F1D361
:1006B000892B09F456CF89E090E0A4CF20917601F0
:1006C00030917701409178015091790160917A01E0
:1006D00070917B0180917C0190917D01E4D3892B05
:1006E00009F43FCF8AE090E08DCF209176013091E0
:1006F0007701409178015091790160917A01709170
:100700007B0180917C0190917D01A8D2892B09F415
:1007100028CF87E090E076CF209176013091770165
:10072000409178015091790160917A0170917B013B
:1007300080917C0190917D017DD2892B09F411CFAC
:1007400086E090E05FCF60917A0170917B018091AB
:100750007C0190917D01CED1892B09F402CF8BE0F1
:1007600090E050CF60917401709175018091720199
:1007700090917301D9DC909373018093720101967B
:1007800009F4DECD8091720190917301079709F011
:100790003DCF8091740190917501099709F436CF8E
:1007A00081E02DD1892B09F0CBCD109273011092ED
:1007B00072012CCF9FDD8091000190910101892B66
:1007C00071F081E090E020917E0130917F01232B38
:1007D00011F490E080E0919581959109089581E070
:1007E00090E0089560E870E08CE891E0EBD3882316
:1007F000C9F080918C0190918D01EBD3909387018A
:10080000809386019C012F5F3F4F30938B01209393
:100810008A011092890110928801FC01108290E0F7
:1008200080E0089581E090E00895609188017091E2
:1008300089016F5F7F4F80918C0190918D01CCD3A6
:10084000811103C083E090E00895CCDF892BD1F7BC
:1008500090E080E00895B4D3813009F4C3CF81E003
:1008600090E008954F925F926F927F92AF92BF9205
:10087000CF92DF92EF92FF920F931F93CF93DF936C
:100880006C012A013B018AE7A82EB12C41145104C6
:100890006104710419F490E080E035C08091880112
:1008A000909189018A37910559F1E0908801F09083
:1008B0008901E501CE19DF09CE01B0E0A0E0841581
:1008C0009505A605B70570F500918A0110918B0179
:1008D000AE01B601C8010E94331D4C1A5D0A6108C1
:1008E0007108EC0EFD1EF0928901E0928801CC0E99
:1008F000DD1EC00FD11FD0938B01C0938A01C6CFDC
:1009000094DF009791F2DF91CF911F910F91FF90AB
:10091000EF90DF90CF90BF90AF907F906F905F90FF
:100920004F900895E201D0CF8F929F92AF92BF92E5
:10093000CF92DF92EF92FF920F931F93CF93DF93AB
:100940008C016A017B01812C912C5401C114D104CA
:10095000E104F104B1F1C0918401D09185012097A7
:1009600009F442C0CE01B0E0A0E08C159D05AE05B3
:10097000BF0508F0E6016091820170918301AE012C
:10098000C801880D991D0E94331D809184019091AA
:1009900085018C1B9D0B9093850180938401809130
:1009A0008201909183018C0F9D1F9093830180930E
:1009B0008201CE01B0E0A0E0C81AD90AEA0AFB0A17
:1009C00079F490E080E0DF91CF911F910F91FF903B
:1009D000EF90DF90CF90BF90AF909F908F90089551
:1009E000880E991EAA1EBB1E64E871E082E891E0A1
:1009F00094D2019609F0AACF81E090E0E4CFE09193
:100A00008601F0918701882349F082E080830DDF21
:100A10008330910511F090E080E0089581E0F6CFF9
:100A20004CD2019719F081E090E0089514DF892BF2
:100A3000D1F7CCD531E020E0892B09F430E0832FC9
:100A4000922F0895672B682B692B19F490E080E0B2
:100A5000089582E090E00895CF93DF931F92CDB781
:100A6000DEB787E0898341E050E060E070E0CE01CE
:100A70000196F8DE892BD9F4198241E050E060E05C
:100A800070E0CE010196EEDE892B89F484E0898343
:100A900041E050E060E070E0CE010196E3DE892B9A
:100AA00031F490E080E00F90DF91CF91089583E0E2
:100AB00090E0F9CF672B682B692B29F40E94C218AC
:100AC00090E080E0089582E090E00895672B682B25
:100AD000692B19F082E090E0089590E080E008959D
:100AE000672B682B692B19F082E090E0089590E065
:100AF00080E00895672B682B692B19F082E090E065
:100B0000089590E080E00895EF92FF92F70111823E
:100B10001082672B682B692B09F072C081E090E08E
:100B20004330510509F069C0809192019091930181
:100B3000892B09F05CC080E190E0A0E0B0E08093F8
:100B4000C4019093C501A093C601B093C70122EFE1
:100B500033E03093C9012093C8018093CA01909378
:100B6000CB01A093CC01B093CD0122E034E03093CF
:100B7000CF012093CE018093D0019093D101A09317
:100B8000D201B093D30122E134E03093D501209318
:100B9000D4018093D6019093D701A093D801B0934C
:100BA000D90122E234E03093DB012093DA01809313
:100BB000DC019093DD01A093DE01B093DF0182E3BD
:100BC00094E09093E1018093E0011092E201109291
:100BD000E3011092E4011092E5011092E7011092F6
:100BE000E60181E090E0909393018093920184EC80
:100BF00091E09183808390E080E0FF90EF900895F2
:100C000082E090E0FACFEF92FF92CF93DF93CDB7DF
:100C1000DEB7F70111821082672B682B692B39F43C
:100C200081E090E0DF91CF91FF90EF90089582E016
:100C300090E0F8CF672B682B692B51F421303105F8
:100C40004105510541F40E94850F90E080E0089530
:100C500082E090E0089581E090E00895672B682B92
:100C6000692B19F490E080E0089582E090E0089507
:100C70008F929F92AF92BF92CF92EF92FF92CF93BB
:100C8000DF9300D000D01F92CDB7DEB7C9828A8231
:100C90009B82AC82BD82F70111821082672B682B88
:100CA000692B09F0E7C04130510539F04330510557
:100CB00009F47BC081E090E054C080919001909154
:100CC0009101892B09F042C080E190E0A0E0B0E002
:100CD0008093940190939501A0939601B09397010E
:100CE00082EC93E0909399018093980184E090E0E6
:100CF000A0E0B0E080939A0190939B01A0939C01A7
:100D0000B0939D0122ED33E030939F0120939E012B
:100D10008093A0019093A101A093A201B093A3019D
:100D200086ED93E09093A5018093A4011092A60113
:100D30001092A7011092A8011092A9011092AB0184
:100D40001092AA01509391014093900141E050E02C
:100D500060E070E0CE01019685DD892B89F083E0AB
:100D600090E00F900F900F900F900F90DF91CF9128
:100D7000FF90EF90CF90BF90AF909F908F9008958D
:100D80008981883041F084E991E0F7019183808383
:100D900090E080E0E6CF44E050E060E070E0CE011B
:100DA000029660DD892B79F3DACF80918E019091E4
:100DB0008F01892B09F044C080E190E0A0E0B0E011
:100DC0008093AC019093AD01A093AE01B093AF01BD
:100DD00082EC93E09093B1018093B00184E090E0C5
:100DE000A0E0B0E08093B2019093B301A093B4016E
:100DF000B093B50122ED33E03093B7012093B601F3
:100E00008093B8019093B901A093BA01B093BB014C
:100E100086ED93E09093BD018093BC011092BE01DA
:100E20001092BF011092C0011092C1011092C30133
:100E30001092C20181E090E090938F0180938E0127
:100E400041E050E060E070E0CE0101960BDD892BBF
:100E500009F085CF8981883019F08CEA91E095CF2F
:100E600044E050E060E070E0CE010296FBDC892BAC
:100E7000A1F375CF82E090E074CF672B682B692BCC
:100E800029F40E94C31890E080E0089582E090E089
:100E90000895672B682B692B19F481E090E0089581
:100EA00082E090E00895672B682B692B19F481E0AC
:100EB00090E0089582E090E008959AD79C01909385
:100EC00069028093680281E090E02F3F3F4F11F468
:100ED00090E080E008950097E9F0FC01CA01B0E0DD
:100EE000A0E0608381839283A383B4839A01AD01E0
:100EF0002B5F3F4F4F4F5F4FBF0180916802909132
:100F000069026DD031E020E0019609F430E0832FD2
:100F1000922F089580E090E00895EF92FF920F9352
:100F20001F93CF93DF9300D000D01F92CDB7DEB7D1
:100F30007C018B0119821A821B821C8221E030E025
:100F400040E050E0BE016B5F7F4F8091680290915E
:100F5000690288D0019671F490E080E00F900F90C4
:100F60000F900F900F90DF91CF911F910F91FF90F5
:100F7000EF90089524E030E040E050E0BE016F5F64
:100F80007F4F80916802909169026CD0019621F3A5
:100F900029813A814B815C8168EE71E08091680221
:100FA000909169025FD088EE91E0F7019183808390
:100FB00089819A81F8019183808381E090E0CECF8E
:100FC00081E008952AE632E0FC013183208381E04C
:100FD00008958FE692E00895AB0161E07CCFAF9277
:100FE000BF92CF92DF92EF92FF920F931F93CF9316
:100FF000DF9300D0CDB7DEB75C018B0169017A01C8
:1010000090E080E0C114D104E104F10469F40F9090
:101010000F90DF91CF911F910F91FF90EF90DF9094
:10102000CF90BF90AF9008959C2D8D2DC114D10409
:1010300021E0E206F10410F09FEF8FEF9E012F5F99
:101040003F4F492F582FB801C5011DD78F3F980733
:10105000F1F229813A81C21AD30AE108F108020F9C
:10106000131FD0CFAF92BF92CF92DF92EF92FF9239
:101070000F931F93CF93DF9300D0CDB7DEB75C0102
:101080008B0169017A0190E080E0C114D104E10490
:10109000F10469F40F900F90DF91CF911F910F91A0
:1010A000FF90EF90DF90CF90BF90AF9008959C2D70
:1010B0008D2DC114D10421E0E206F10410F09FEF60
:1010C0008FEF9E012F5F3F4F492F582FB801C50169
:1010D000A8D68F3F9807F1F229813A81C21AD30A24
:1010E000E108F108020F131FD0CFFF920F931F9357
:1010F000CF93DF9300D000D0CDB7DEB7F62E182FF8
:101100004A832B830C8361E070E0CE01029600D20B
:101110000097E1F4F98261E070E0CE010196F8D128
:101120000097A1F4198361E070E0CE010196F0D13F
:10113000009761F461E070E0CE010396E9D1009779
:1011400029F461E070E0CE010496E2D10F900F9097
:101150000F900F90DF91CF911F910F91FF90089505
:101160000F93CF93DF9300D0CDB7DEB786E08A83AD
:101170000E94C41881E0898361E070E0CE0101968D
:10118000C7D1892B31F50ED2892B19F585E08983DA
:1011900061E070E0CE010196BBD1892BD1F41982B8
:1011A00061E070E0CE010196B3D1892B91F480917A
:1011B0006C048093EA0261E070E08AEE92E0A8D1CC
:1011C000892B39F48091EA02811106C0EBD1892B79
:1011D000A1F081E090E096C160917804709179046B
:1011E00080917A0490917B0400915F0120916C04BE
:1011F00041E07BDF892B51F3ECCF198261E070E095
:10120000CE01019685D1892B21F760917C047091E4
:101210007D0480917E0490917F0400914301209190
:10122000500440E062DF892BA1F660918004709148
:101230008104809182049091830400914501209162
:10124000520441E052DF892B09F0C3CF609184043E
:1012500070918504809186049091870400914701E4
:101260002091540442E041DF892B09F0B2CF609114
:1012700088047091890480918A0490918B04009174
:1012800049012091560443E030DF892B09F0A1CFBA
:1012900089D1892B09F09DCF81E0898361E070E0DD
:1012A000CE01019635D1892B09F093CF6091B0041E
:1012B0007091B1048091B2049091B30400915D01EA
:1012C00020916A044AE011DF892B09F082CF6091F6
:1012D0008C0470918D0480918E0490918F04009104
:1012E0004B012091580444E000DF892B09F071CFB5
:1012F0006091900470919104809192049091930474
:1013000000914D0120915A0445E0EFDE892B09F050
:1013100060CF6091940470919504809196049091AF
:10132000970400914F0120915C0446E0DEDE892B9A
:1013300009F04FCF37D1892B09F04BCF82E0898359
:1013400061E070E0CE010196E3D0892B09F041CF36
:10135000609198047091990480919A0490919B04F3
:101360000091510120915E0447E0BFDE892B09F016
:1013700030CF60919C0470919D0480919E04909167
:101380009F04009153012091600448E0AEDE892B58
:1013900009F01FCF6091A0047091A1048091A20474
:1013A0009091A304009155012091620449E09DDED3
:1013B000892B09F00ECFF6D0892B09F00ACF83E0F4
:1013C000898361E070E0CE010196A2D0892B09F0FB
:1013D00000CF6091A4047091A5048091A60490911F
:1013E000A70400915701209164044DE07EDE892B13
:1013F00009F0EFCE6091A8047091A9048091AA042D
:101400009091AB0400915901209166044CE06DDE8F
:10141000892B09F0DECE6091AC047091AD0480910F
:10142000AE049091AF0400915B01209168044BE001
:101430005CDE892B09F0CDCEB5D0892B09F0C9CE61
:1014400084E0898361E070E0CE01019661D0892B50
:1014500009F0BFCE6091B4047091B5048091B604D8
:101460009091B70400916301209170044EE03DDE3D
:10147000892B09F0AECE6091B8047091B9048091C7
:10148000BA049091BB0400916501209172044FE071
:101490002CDE892B09F09DCE6091BC047091BD04B7
:1014A0008091BE049091BF04009167012091740463
:1014B00040E11BDE892B09F08CCE6091C004709155
:1014C000C1048091C2049091C304009169012091EC
:1014D000760441E10ADE892B09F07BCE63D0892BAB
:1014E00009F077CE61E070E0CE01029611D0892B31
:1014F00009F06FCE57D031E020E0892B09F430E0BD
:10150000832F922F0F900F90DF91CF910F9108951D
:10151000EF92FF920F931F93CF93DF93E090EB0234
:10152000F090EC02E60EF71E2CE1E216F104E8F46E
:10153000EB01BC010091ED021091EE02AE01C80179
:101540000E94331DF092EC02E092EB02C00FD11F1B
:10155000D093EE02C093ED0290E080E0DF91CF9156
:101560001F910F91FF90EF90089582E090E0F6CFE9
:1015700060E270E08FEE92E032D0882381F08091BB
:10158000EF029091F00232D09093EE028093ED0240
:101590001092EC021092EB0290E080E0089581E05E
:1015A00090E008956091EB027091EC028091EF025F
:1015B0009091F0021ED0811103C082E090E0089566
:1015C000D7DF892BD1F790E080E0089506D08130F5
:1015D00009F4CECF81E090E0089581E0089521EFF5
:1015E00032E0FC013183208381E0089586EF92E0B0
:1015F0000895AB0163E06FCC089508951F920F9298
:101600000FB60F9211242F933F934F935F936F93D5
:101610007F938F939F93AF93BF93EF93FF93E0914B
:101620000201F09103010995FF91EF91BF91AF91F4
:101630009F918F917F916F915F914F913F912F91EA
:101640000F900FBE0F901F9018951F920F920FB61C
:101650000F9211242F933F934F935F936F937F9338
:101660008F939F93AF93BF93EF93FF93E091040108
:10167000F09105010995FF91EF91BF91AF919F9175
:101680008F917F916F915F914F913F912F910F902B
:101690000FBE0F901F9018951F920F920FB60F92CA
:1016A00011242F933F938F939F93AF93BF93809178
:1016B000120390911303A0911403B091150330917C
:1016C000110323E0230F2D3758F50196A11DB11DFD
:1016D000209311038093120390931303A093140398
:1016E000B09315038091160390911703A0911803EE
:1016F000B09119030196A11DB11D8093160390931B
:101700001703A0931803B0931903BF91AF919F9152
:101710008F913F912F910F900FBE0F901F901895B2
:1017200026E8230F0296A11DB11DD2CF3FB7F89432
:101730008091160390911703A0911803B09119039B
:1017400026B5A89B05C02F3F19F00196A11DB11D1C
:101750003FBFBA2FA92F982F8827BC01CD01620F58
:10176000711D811D911D42E0660F771F881F991F13
:101770004A95D1F708958F929F92AF92BF92CF92E0
:10178000DF92EF92FF926B017C01D0DF4B015C0195
:10179000C114D104E104F104D9F02EDFC7DF6819C8
:1017A00079098A099B09683E73408105910580F398
:1017B00021E0C21AD108E108F10888EE880E83E022
:1017C000981EA11CB11CC114D104E104F10431F72D
:1017D000FF90EF90DF90CF90BF90AF909F908F9051
:1017E0000895789484B5826084BD84B5816084BD99
:1017F00085B5826085BD85B5816085BDEEE6F0E08A
:10180000808181608083E1E8F0E0108280818260E5
:101810008083808181608083E0E8F0E08081816066
:101820008083E1EBF0E0808184608083E0EBF0E096
:10183000808181608083EAE7F0E08081846080833A
:1018400080818260808380818160808380818068E4
:1018500080831092C1000895833081F028F4813094
:1018600099F08230A9F008958730A9F08830C9F046
:101870008430B1F4809180008F7D03C0809180001E
:101880008F7780938000089584B58F7784BD089505
:1018900084B58F7DFBCF8091B0008F778093B000AF
:1018A00008958091B0008F7DF9CF1F93CF93DF9380
:1018B000282F30E0F901E859FF4F8491F901E458ED
:1018C000FF4FD491F901E057FF4FC491CC23A1F011
:1018D000162F8111C1DFEC2FF0E0EE0FFF1FEC554A
:1018E000FF4FA591B4918FB7F894EC91111108C0F6
:1018F000D095DE23DC938FBFDF91CF911F910895A8
:10190000DE2BF8CFFC01918D228D892F90E0805C39
:101910009F4F821B91098F7399270895FC01918D28
:10192000828D981731F0828DE80FF11D858D90E042
:1019300008958FEF9FEF0895FC01918D828D981788
:1019400061F0A28DAE0FBF2FB11D5D968C91928D6F
:101950009F5F9F73928F90E008958FEF9FEF0895A0
:10196000FC01538D448D252F30E0842F90E0821BA5
:10197000930B541710F0CF96089501970895FC012A
:10198000A48DA80FB92FB11DA35ABF4F2C91848DE0
:1019900090E001968F739927848FA689B7892C933D
:1019A000A089B1898C91837080648C93938D848D90
:1019B000981306C00288F389E02D80818F7D808393
:1019C0000895CF93DF93EC01888D8823B1F0AA8925
:1019D000BB89E889F9898C9185FD03C0808186FDEA
:1019E0000CC00FB607FCF7CF8C9185FFF2CF80813A
:1019F00085FFEDCFCE01C3DFEACFDF91CF91089510
:101A0000EF92FF920F931F93CF93DF93EC0181E04E
:101A1000888F9B8D8C8D98131AC0E889F9898081F5
:101A200085FF15C09FB7F894EE89FF896083E88928
:101A3000F98980818370806480839FBF81E090E01A
:101A4000DF91CF911F910F91FF90EF900895F62EA7
:101A50000B8D10E00F5F1F4F0F731127E02E8C8D41
:101A60008E110BC00FB607FCFACFE889F989808187
:101A700085FFF5CFCE0183DFF2CFEB8DEC0FFD2F8D
:101A8000F11DE35AFF4FF0829FB7F8940B8FEA895C
:101A9000FB8980818062D0CFCF92DF92EF92FF925C
:101AA0001F93CF93DF93EC016A017B01122FE8892A
:101AB000F98982E08083C11481EED806E104F10443
:101AC000A1F060E079E08DE390E0A70196010E942B
:101AD000F71C215031094109510956954795379511
:101AE0002795211580E1380798F0E889F989108257
:101AF00060E874E88EE190E0A70196010E94F71C6F
:101B00002150310941095109569547953795279537
:101B1000EC85FD853083EE85FF852083188EEC896A
:101B2000FD891083EA89FB89808180618083EA894D
:101B3000FB89808188608083EA89FB898081806855
:101B40008083EA89FB8980818F7D8083DF91CF91BB
:101B50001F91FF90EF90DF90CF9008951F920F920A
:101B60000FB60F9211242F938F939F93EF93FF93B0
:101B7000E0912A03F0912B038081E0913003F091F2
:101B8000310382FD1BC09081809133038F5F8F737F
:101B900020913403821741F0E0913303F0E0E65ED8
:101BA000FC4F958F80933303FF91EF919F918F911D
:101BB0002F910F900FBE0F901F9018958081F4CF3A
:101BC0001F920F920FB60F9211242F933F934F93B2
:101BD0005F936F937F938F939F93AF93BF93EF9395
:101BE000FF938AE193E0CBDEFF91EF91BF91AF913C
:101BF0009F918F917F916F915F914F913F912F9125
:101C00000F900FBE0F901F901895EAE1F3E013823A
:101C1000128288EE93E0A0E0B0E084839583A683EF
:101C2000B7838AE291E09183808385EC90E0958789
:101C3000848784EC90E09787868780EC90E0918B96
:101C4000808B81EC90E0938B828B82EC90E0958B83
:101C5000848B86EC90E0978B868B118E128E138E80
:101C6000148E0895AF92BF92CF92DF92EF92FF92BF
:101C70000F931F93CF93DF936C017B018B01040FB4
:101C8000151FEB015E01AE18BF08C017D10759F050
:101C90006991D601ED91FC910190F081E02DC60192
:101CA0000995892B79F7C501DF91CF911F910F918C
:101CB000FF90EF90DF90CF90BF90AF90089581306C
:101CC00039F018F0823051F0089510926E000895A6
:101CD00080916F008D7F80936F00089580917000D8
:101CE0008D7F8093700081E08093B0008091B1007F
:101CF000887F84608093B1001092B3000895CF93E1
:101D0000C82F80910601C8130BC0EEEAF0E0849161
:101D10009FEF90930601D3DF60E08C2FCF91C5CD6C
:101D20008FEFF9CF1F920F920FB60F9211242F93BE
:101D30003F934F935F936F937F938F939F93AF9353
:101D4000BF93EF93FF938091BA039091BB03A0914F
:101D5000BC03B091BD03892B8A2B8B2BD1F19091C1
:101D6000B703E091B803F091B9038081892780839C
:101D70008091BA039091BB03A091BC03B091BD03C5
:101D8000181619061A061B069CF48091BA03909146
:101D9000BB03A091BC03B091BD030197A109B10998
:101DA0008093BA039093BB03A093BC03B093BD038D
:101DB000FF91EF91BF91AF919F918F917F916F9123
:101DC0005F914F913F912F910F900FBE0F901F90F9
:101DD00018958091060193DFEBCF26E08AE193E02E
:101DE0005BCE40E855E260E070E090E080E0F5CF47
:101DF00026E040E052EC61E070E08AE193E04CDEE6
:101E000068EE73E080E090E0B6DC8AE193E07ADD92
:101E1000892B21F08AE193E08FDDF7CF90E080E01D
:101E20000895CF92DF92EF92FF920F931F93CF937B
:101E3000DF936B017A01E901198218828AE193E04C
:101E400061DD892BA9F08601888199818E159F0516
:101E500078F48AE193E070DD8F3F9807A9F3F801E9
:101E600081938F0188819981019699838883ECCF32
:101E700090E080E0DF91CF911F910F91FF90EF9064
:101E8000DF90CF9008950F931F93CF93DF93EA01D4
:101E90008901F8948AE193E0E5DE7894F801D18332
:101EA000C08390E080E0DF91CF911F910F91089562
:101EB000CF93DF9300D0CDB7DEB781E090E09A8377
:101EC00089838FDC8EDF70E060E090E080E00E942C
:101ED0001005009721F029813A81232BE1F7298110
:101EE0003A81232B29F40F900F90DF91CF91089521
:101EF0000E94DA039C012F5F3F4F2230310578F3B7
:101F000029813A81232BE1F7EACF4F925F926F92BA
:101F10007F928F929F92AF92BF92CF92DF92EF9279
:101F2000FF92CF93DF93CDB7DEB72C970FB6F8941F
:101F3000DEBF0FBECDBF809142048111B7C081E0EA
:101F40008093420487E0809343041092DA03109256
:101F5000DB031092DC031092DD031092E603109273
:101F6000E7031092E8031092E90380E090E0A0E814
:101F7000BFE38093DE039093DF03A093E003B0936D
:101F8000E1038093E2039093E303A093E403B0930F
:101F9000E50380E090E0A0E0B0E48093EA03909352
:101FA000EB03A093EC03B093ED0380E090E0A0E49A
:101FB000B0E48093EE039093EF03A093F003B0930B
:101FC000F1038091DA039091DB03A091DC03B091DF
:101FD000DD038093C2039093C303A093C403B09323
:101FE000C5038091DE039091DF03A091E003B091DF
:101FF000E1038093C6039093C703A093C803B093F3
:10200000C9038091E2039091E303A091E403B091AE
:10201000E5038093CA039093CB03A093CC03B093C2
:10202000CD038091E6039091E703A091E803B0917E
:10203000E9038093CE039093CF03A093D003B09392
:10204000D1038091EA039091EB03A091EC03B0914E
:10205000ED038093D2039093D303A093D403B09362
:10206000D5038091EE039091EF03A091F003B0911E
:10207000F1038093D6039093D703A093D803B09332
:10208000D9032C960FB6F894DEBF0FBECDBFDF91FB
:10209000CF91FF90EF90DF90CF90BF90AF909F9047
:1020A0008F907F906F905F904F90089520914304A0
:1020B0002983233009F42EC408F043C0213009F4E9
:1020C00087C0223009F477C284E0809343041092E1
:1020D000DA031092DB031092DC031092DD031092FE
:1020E000E6031092E7031092E8031092E90380E000
:1020F00090E0A0E0B0E48093EA039093EB03A09318
:10210000EC03B093ED0380E090E0A0E4B0E48093B2
:10211000EE039093EF03A093F003B093F10322E05A
:1021200020934E0480E090E0A0E8BFE38093DE03BC
:102130009093DF03A093E003B093E10320934F0457
:10214000BBC08981853009F431C608F41BC58630CF
:1021500009F0BACFC090FE03D090FF03E0900004D6
:10216000F09001044090F2035090F3036090F40368
:102170007090F5038091120490911304A0911404BF
:10218000B091150489839A83AB83BC83A301920128
:10219000C701B6010E949F1B29813A814B815C8156
:1021A0000E947D1C87FD11C72091320430913304B9
:1021B0004091340450913504C301B2010E94041CC3
:1021C00018160CF402C710924D0410924C043DC036
:1021D000C090F603D090F703E090F803F090F90375
:1021E0004090FA035090FB036090FC037090FD0355
:1021F00080911A0490911B04A0911C04B0911D04BD
:1022000089839A83AB83BC83A3019201C701B60182
:102210000E949F1B29813A814B815C810E947D1C19
:1022200087FD53C020913A0430913B0440913C0417
:1022300050913D04C301B2010E94041C18160CF415
:1022400044C0109249041092480422E020934304B1
:102250001092DE031092DF031092E0031092E1036C
:102260001092E6031092E7031092E8031092E9033C
:1022700080E090E0A0E8BFE38093EA039093EB0353
:10228000A093EC03B093ED0340E050E060E470E411
:102290004093EE035093EF036093F0037093F103C8
:1022A000209344048093DA039093DB03A093DC0330
:1022B000B093DD03209345048093E2039093E303FE
:1022C000A093E403B093E5037CCE8090F20390905A
:1022D000F303A090F403B090F503A3019201C501AC
:1022E000B4010E949F1B9B01AC0169817A818B81A3
:1022F0009C810E94041C18169CF020913A04309195
:102300003B0440913C0450913D04C301B2010E9442
:10231000041C18162CF01092490410924804D4CED4
:102320004090FE035090FF03609000047090010401
:1023300080911E0490911F04A0912004B09121046B
:1023400089839A83AB83BC83A3019201C701B60141
:102350000E949F1B29813A814B815C810E947D1CD8
:1023600087FD54C020913E0430913F0440914004C9
:1023700050914104C301B2010E94041C18160CF4D0
:1023800045C0109249041092480483E080934304AE
:102390001092DE031092DF031092E0031092E1032B
:1023A0001092E2031092E3031092E4031092E5030B
:1023B00080E090E0A0E8BFE38093EA039093EB0312
:1023C000A093EC03B093ED0340E050E060E870E4CC
:1023D0004093EE035093EF036093F0037093F10387
:1023E00022E0209346048093DA039093DB03A093CA
:1023F000DC03B093DD03209347048093E6039093BE
:10240000E703A093E803B093E903DBCDA3019201B6
:10241000C501B4010E949F1B9B01AC0169817A81B7
:102420008B819C810E94041C18160CF44BC02091D7
:102430003E0430913F044091400450914104C30157
:10244000B2010E94041C1816ECF11092490410927B
:10245000480485E0809343041092DA031092DB0372
:102460001092DC031092DD031092E2031092E3035A
:102470001092E4031092E50380E090E0A0E8BFE34F
:102480008093EA039093EB03A093EC03B093ED03E6
:1024900040E050E060E470E44093EE035093EF03BB
:1024A0006093F0037093F10322E020934A04809339
:1024B000DE039093DF03A093E003B093E103209346
:1024C0004B049BCF80914804813009F040C020919B
:1024D0000204309103044091040450910504C501A5
:1024E000B4010E94041C18167CF082E0809348041A
:1024F00080E090E0A0E8BFE38093DA039093DB03F1
:10250000A093DC03B093DD03809149048130C9F5C9
:102510002091060430910704409108045091090469
:10252000C701B6010E94041C18160CF44ACD82E0C3
:102530008093490480E090E0A0E8BFE38093DE034D
:102540009093DF03A093E003B093E1033ACD209191
:102550002204309123044091240450912504C501A4
:10256000B4010E947D1C87FDCFCF81E08093480499
:102570001092DA031092DB031092DC031092DD0359
:10258000C3CF209126043091270440912804509114
:102590002904C701B6010E947D1C87FD12CD81E090
:1025A000809349041092DE031092DF031092E0033F
:1025B0001092E10306CDC090FA03D090FB03E090A7
:1025C000FC03F090FD034090F6035090F7036090F9
:1025D000F8037090F9038091160490911704A0916C
:1025E0001804B09119048D839E83AF83B887A3012B
:1025F0009201C701B6010E949F1B2D813E814F8130
:1026000058850E947D1C87FD4BC020913604309177
:1026100037044091380450913904C301B2010E943B
:10262000041C1816ECF1109245041092440481E049
:10263000809343041092E2031092E3031092E403A8
:102640001092E5031092E6031092E7031092E8035C
:102650001092E90380E090E0A0E8BFE38093EA03F2
:102660009093EB03A093EC03B093ED0340E050E0B4
:1026700060E070E44093EE035093EF036093F00347
:102680007093F1032981209348048093DA03909397
:10269000DB03A093DC03B093DD03209349044ECF0A
:1026A0008091FE039091FF03A0910004B09101047A
:1026B00089839A83AB83BC8380911E0490911F040D
:1026C000A0912004B091210489879A87AB87BC87A9
:1026D00029813A814B815C81C701B6010E949F1B11
:1026E00029853A854B855C850E947D1C87FD15C038
:1026F00020913E0430913F044091400450914104A8
:1027000069817A818B819C810E94041C18162CF0AF
:10271000109245041092440438CE8090F2039090B9
:10272000F303A090F403B090F503A3019201C50157
:10273000B4010E949F1B9B01AC016D817E818F8142
:1027400098850E94041C18169CF020913604309144
:1027500037044091380450913904C301B2010E94FA
:10276000041C18162CF01092450410924404ACCCB2
:1027700029813A814B815C81C501B401E0D79B017D
:10278000AC0169857A858B859C850E94041C18168E
:102790000CF452C020913E0430913F04409140041B
:1027A0005091410469817A818B819C810E94041C33
:1027B00018160CF441C0109245041092440486E0AF
:1027C000809343041092DA031092DB031092DC032F
:1027D0001092DD031092DE031092DF031092E003EB
:1027E0001092E10380E090E0A0E4B0E48093EA037B
:1027F0009093EB03A093EC03B093ED0380E090E0A3
:10280000A0E8B0E48093EE039093EF03A093F0036D
:10281000B093F10322E020934C0480E090E0A0E824
:10282000BFE38093E2039093E303A093E403B093A8
:10283000E50320934D04E1CD809144048130B1F54E
:102840002091020430910304409104045091050446
:10285000C501B401D9D718167CF082E080934404F6
:1028600080E090E0A0E8BFE38093DA039093DB037D
:10287000A093DC03B093DD0380914504813081F5A2
:1028800020910A0430910B0440910C0450910D04E6
:10289000C701B601B9D718160CF493CB82E0809328
:1028A000450480E090E0A0E8BFE306CD209122043B
:1028B000309123044091240450912504C501B401B2
:1028C0000E947D1C87FDD8CF81E080934404109244
:1028D000DA031092DB031092DC031092DD03CCCFFD
:1028E00020912A0430912B0440912C0450912D0406
:1028F000C701B6010E947D1C87FD63CB81E08093F8
:1029000045041092E2031092E3031092E403109244
:10291000E50357CBC090FE03D090FF03E090000486
:10292000F09001048090FA039090FB03A090FC03C8
:10293000B090FD0380911A0490911B04A0911C0497
:10294000B0911D0489839A83AB83BC83A501940154
:10295000C701B601F4D629813A814B815C81CDD77C
:1029600087FD12C020913A0430913B0440913C0411
:1029700050913D04C501B40147D718162CF01092B0
:1029800047041092460461CC4090F6035090F70340
:102990006090F8037090F903A3019201C701B6019A
:1029A000CED620911604309117044091180450910E
:1029B0001904A3D787FD52C0809136049091370443
:1029C000A0913804B09139048D839E83AF83B8877A
:1029D0009C01AD01C301B20117D718168CF11092FA
:1029E00047041092460481E0809343041092E2036E
:1029F0001092E3031092E4031092E5031092E603B1
:102A00001092E7031092E8031092E90380E090E04F
:102A1000A0E8BFE38093EA039093EB03A093EC0359
:102A2000B093ED0340E050E060E070E44093EE03CB
:102A30005093EF036093F0037093F10322E023CEF1
:102A40002D813E814F815885C301B201DDD6181614
:102A50002CF01092470410924604FBCC4090F203F5
:102A60005090F3036090F4037090F503A501940176
:102A7000C301B20164D69B01AC0169817A818B816B
:102A80009C81C2D6181694F020913A0430913B04F0
:102A900040913C0450913D04C501B401B5D61816CF
:102AA0002CF0109247041092460489CE809146047F
:102AB0008130B1F520910204309103044091040467
:102AC00050910504C301B2019FD618167CF082E034
:102AD0008093460480E090E0A0E8BFE38093DA03AF
:102AE0009093DB03A093DC03B093DD038091470454
:102AF000813079F520910E0430910F04409110043B
:102B000050911104C701B6017FD618160CF459CAAA
:102B100082E08093470480E090E0A0E8BFE36DCCC2
:102B200020912204309123044091240450912504E3
:102B3000C301B201E2D687FDD9CF81E0809346047C
:102B40001092DA031092DB031092DC031092DD0383
:102B5000CDCF20912E0430912F044091300450911C
:102B60003104C701B601C9D687FD2BCA81E0809325
:102B700047041092E6031092E7031092E8031092C4
:102B8000E9031FCAC090FA03D090FB03E090FC0356
:102B9000F090FD034090F2035090F3036090F40333
:102BA0007090F5038091120490911304A091140485
:102BB000B091150489839A83AB83BC83A3019201EE
:102BC000C701B601BCD529813A814B815C8195D67C
:102BD00087FD12C0209132043091330440913404B7
:102BE00050913504C301B2010FD618162CF0109283
:102BF0004F0410924E04F7CE8090F6039090F703A6
:102C0000A090F803B090F903A3019201C501B401AB
:102C100096D59B01AC0169817A818B819C81F4D529
:102C2000181694F02091320430913304409134040A
:102C300050913504C301B201E7D518162CF010925B
:102C40004F0410924E0401CB4090FE035090FF03BE
:102C5000609000047090010480911E0490911F0404
:102C6000A0912004B091210489839A83AB83BC8313
:102C7000A3019201C701B60162D529813A814B8136
:102C80005C813BD687FD12C020913E0430913F0409
:102C90004091400450914104C301B201B5D51816CA
:102CA0002CF010924F0410924E04D3CBA30192014A
:102CB000C501B40144D59B01AC0169817A818B8146
:102CC0009C81A2D5181694F020913E0430913F04C7
:102CD0004091400450914104C301B20195D51816AA
:102CE0002CF010924F0410924E0469CD80914E0446
:102CF000813091F520910604309107044091080439
:102D000050910904C501B4017FD518167CF082E00A
:102D100080934E0480E090E0A0E8BFE38093DE0360
:102D20009093DF03A093E003B093E10380914F04FD
:102D3000813059F520910A0430910B0440910C0424
:102D400050910D04C701B6015FD518160CF439C9AE
:102D500082E080934F04A5CD209126043091270472
:102D60004091280450912904C501B401C6D587FDBE
:102D7000DDCF81E080934E041092DE031092DF03DA
:102D80001092E0031092E103D1CF20912A043091F8
:102D90002B0440912C0450912D04C701B601ADD5F0
:102DA00087FD0FC981E080934F04ABCDC090FE0337
:102DB000D090FF03E0900004F09001048090F203B3
:102DC0009090F303A090F403B090F503A501940153
:102DD000C701B601B4D4209112043091130440917C
:102DE00014045091150489D587FD12C02091320436
:102DF000309133044091340450913504C501B4013D
:102E000003D518162CF010924B0410924A04EBCD07
:102E10008090F6039090F703A090F803B090F90328
:102E2000A7019601C501B4018AD420911E043091F6
:102E30001F0440912004509121045FD587FD12C0EA
:102E400020913E0430913F04409140045091410450
:102E5000C701B601D9D418162CF010924B04109269
:102E60004A0493CA4090FA035090FB036090FC031D
:102E70007090FD0380911A0490911B04A0911C0492
:102E8000B0911D0489839A83AB83BC83A301920113
:102E9000C701B60154D429813A814B815C812DD57B
:102EA00087FD12C020913A0430913B0440913C04CC
:102EB00050913D04C301B201A7D418162CF0109212
:102EC0004B0410924A0400C9A3019201C501B40148
:102ED00036D49B01AC0169817A818B819C8194D429
:102EE000181694F020913A0430913B0440913C0430
:102EF00050913D04C301B20187D418162CF01092F2
:102F00004B0410924A045BCC80914A04813091F5C5
:102F1000209106043091070440910804509109045F
:102F2000C501B40171D418167CF082E080934A0484
:102F300080E090E0A0E8BFE38093DE039093DF039E
:102F4000A093E003B093E10380914B04813059F5E5
:102F500020910E0430910F044091100450911104FF
:102F6000C701B60151D418160CF42BC882E0809327
:102F70004B04D1CD209126043091270440912804A0
:102F800050912904C501B401B8D487FDDDCF81E09B
:102F900080934A041092DE031092DF031092E00344
:102FA0001092E103D1CF20912E0430912F04409153
:102FB000300450913104C701B6019FD487FF01C08E
:102FC00000C881E080934B04D4CD8090FA039090A8
:102FD000FB03A090FC03B090FD03A3019201C50187
:102FE000B401ADD39B01AC0169817A818B819C8155
:102FF0000BD4181694F02091320430913304409190
:10300000340450913504C301B201FED318162CF0DC
:1030100010924D0410924C04B8C94090F6035090A1
:10302000F7036090F8037090F90380911604909173
:103030001704A0911804B091190489839A83AB8373
:10304000BC83A3019201C701B60179D329813A81DA
:103050004B815C8152D487FD12C02091360430919F
:1030600037044091380450913904C301B201CCD3E4
:1030700018162CF010924D0410924C0425C8A30190
:103080009201C501B4015BD39B01AC0169817A81D6
:103090008B819C81B9D3181694F02091360430911D
:1030A00037044091380450913904C301B201ACD3C4
:1030B00018162CF010924D0410924C04CAC980913D
:1030C0004C04813099F520910A0430910B04409111
:1030D0000C0450910D04C501B40196D318167CF070
:1030E00082E080934C0480E090E0A0E8BFE380930E
:1030F000E2039093E303A093E403B093E50380918C
:103100004D04813061F520910E0430910F044091FF
:10311000100450911104C701B60176D3181614F4A7
:103120000C94E10F82E080934D04F5CC20912A04A9
:1031300030912B0440912C0450912D04C501B40111
:10314000DCD387FDDCCF81E080934C041092E20356
:103150001092E3031092E4031092E503D0CF209184
:103160002E0430912F044091300450913104C70156
:10317000B601C3D387FF02C00C94E10F81E08093B6
:103180004D04F7CC0895089548E754E063E471E0F6
:1031900080E594E007D04CE754E063E471E080E51B
:1031A00094E004C0FC01158E148E08952F923F9276
:1031B0004F925F926F927F928F929F92AF92BF9247
:1031C000CF92DF92EF92FF920F931F93CF93DF93F3
:1031D000CDB7DEB728970FB6F894DEBF0FBECDBFD0
:1031E0007C016B018A0181E090E0F701918F808F73
:1031F00084E090E09C838B8349EF242E33243A941F
:103200003E822D828D819E816B817C81DDD34B013D
:103210008AEF9FEF9E838D838D819E816B817C8160
:10322000D3D35B01EBEFFFEFFE83ED838D819E81B6
:103230006B817C81C9D3FB018CEF9FEF9C838B83D7
:1032400087E090E09E838D838D819E816B817C8160
:10325000BBD39B0186E090E09E838D838D819E8110
:103260006B817C81B1D33B0185E090E09E838D83AF
:103270008D819E816B817C81A7D32B013E822D8223
:103280008D819E816B817C819FD31B018AEF9FEF93
:103290009E838D838D819E816B817C8195D3788780
:1032A0006F838BEF9FEF9E838D838D819E816B81DA
:1032B0007C818AD39EEF89169FEF990609F05AC048
:1032C0008EEFA8168FEFB80609F072C0329609F09B
:1032D0006FC02E3F3F4F09F06BC0FEEF6F16FFEF40
:1032E0007F0609F065C08EEF48168FEF580609F08B
:1032F0005FC02A94232809F05BC0EF81F8853197DD
:1033000009F056C06130710509F052C0F701178A03
:10331000168A1A82198289819A81892B09F44EC0F2
:1033200083E090E0F701958B848B88E090E0F701D3
:103330009183808380E190E093838283958384836B
:1033400080E290E097838683138E128E118610861A
:1033500026893789F601868997892230310591F5CA
:103360000297A1F181E090E0F80195A784A717A644
:1033700016A635C089208094D9F4AB20A094C1F45E
:103380003196B1F42F3F3F4F99F46720609481F458
:103390004520409469F42A94232851F4EF81F8855C
:1033A000319731F46130710519F481E090E002C089
:1033B00082E090E0F701978B868BABCFF701158AFF
:1033C000148AB3CF8230910509F06CC183E090E09C
:1033D000F80195A784A781E090E097A786A7F6015A
:1033E000848995898230910509F063C123E030E03A
:1033F000F80131A720A793A782A7F601208D318D70
:10340000F701808D918D2817390709F066C182E098
:1034100090E0F80191AB80AB13AA12AAF6012081CB
:103420003181F701808191812817390709F058C14E
:1034300082E090E0F8019183808313821282F6018A
:1034400022813381F701828193812817390709F09E
:103450004AC182E090E0F801958384831782168246
:10346000F60124813581F701848195812817390778
:1034700009F03CC182E090E0F801918780871386D3
:103480001286F60126813781F701868197812817F8
:10349000390709F02EC182E090E0F8019587848712
:1034A00017861686F601828D938D009709F42AC13E
:1034B000F701228D338D8217930709F01DC182E039
:1034C00090E0F80195AB84AB17AA16AAF601208507
:1034D0003185F701808591852817390709F00FC1DB
:1034E00082E090E0F801918B808B138A128A80E24F
:1034F00090E0F7019387828795878487F60182851C
:103500009385809709F006C182E090E0F801958BE1
:10351000848B178A168A82E090E0918F808F138EB9
:10352000128E80E190E0F70197878687F601868505
:103530009785409709F4F1C081E090E0F801958FFC
:10354000848F178E168E80E190E0F701918B808B2F
:10355000F60180899189409709F4E2C081E090E00A
:10356000F80191A380A313A212A280E190E0F701D9
:10357000938B828BF60182899389409709F0D3C09F
:1035800082E090E0F80195A384A317A216A280918F
:10359000C4049091C504F70191A380A3F60120A172
:1035A00031A18217930709F4C1C083E090E0F801CC
:1035B00091AF80AF13AE12AE85E090E095AF84AFCF
:1035C00017AE16AE60910701709108018091090154
:1035D00090910A0120E030E040E05FE392D1AA241C
:1035E000A394B12C20E030E0A9010ED1882311F082
:1035F000B12CA12CF701B5A2A4A2F60184A195A13A
:10360000D801A05CBF4FF801EE5BFF4F8A159B0508
:1036100009F48FC081E090E08D939C931182108219
:103620006091BE037091BF038091C0039091C1036C
:10363000AA24A394B12C20E030E0A901E5D088238E
:1036400011F0B12CA12CF701B7A2A6A2F60186A118
:1036500097A1D801AC5BBF4FF801EA5BFF4F8A1519
:103660009B0509F469C084E090E08D939C931182DE
:10367000108228960FB6F894DEBF0FBECDBFDF9143
:10368000CF911F910F91FF90EF90DF90CF90BF905F
:10369000AF909F908F907F906F905F904F903F90F2
:1036A0002F9008952817390709F05CCE82E090E04A
:1036B0005BCEF701248935892330310541F482E05E
:1036C00090E0F80191A780A713A612A696CE8217C4
:1036D0009307A9F381E090E0F4CF81E090E099CEE8
:1036E00081E090E0A7CE81E090E0B5CE81E090E06F
:1036F000C3CE81E090E0D1CE81E090E0E2CE81E0E7
:1037000090E0F0CE85E090E0F80195AB84AB17AA8D
:1037100016AAE9CE83E090E0F9CE82E090E00ECFE9
:1037200082E090E01DCF81E090E02CCF82E090E03D
:103730003ECF82E090E070CF82E090E096CF50588C
:10374000BB27AA270ED09FC090D030F095D020F094
:1037500031F49F3F11F41EF485C00EF4E095E7FBB1
:103760007BC0E92FA1D080F3BA17620773078407E3
:10377000950718F071F49EF5B9C00EF4E0950B2E84
:10378000BA2FA02D0B01B90190010C01CA01A001B3
:103790001124FF27591B99F0593F50F4503E68F10E
:1037A0001A16F040A22F232F342F4427585FF3CF4F
:1037B000469537952795A795F0405395C9F77EF420
:1037C0001F16BA0B620B730B840BBAF09150A1F069
:1037D000FF0FBB1F661F771F881FC2F70EC0BA0FEF
:1037E000621F731F841F48F4879577956795B79577
:1037F000F7959E3F08F0B3CF9395880F08F099276F
:10380000EE0F97958795089503D008F481E0089509
:10381000990F0008550FAA0BE0E8FEEF16161706E1
:10382000E807F907C0F012161306E407F50798F049
:10383000621B730B840B950B39F40A2661F0232B62
:10384000242B252B21F408950A2609F4A140A695DE
:103850008FEF811D811D089597F99F6780E870E0C3
:1038600060E008959FEF80EC089500240A941616F6
:10387000170618060906089500240A94121613065E
:10388000140605060895092E0394000C11F48823EC
:1038900052F0BB0F40F4BF2B11F460FF04C06F5F08
:1038A0007F4F8F4F9F4F089557FD9058440F551FDE
:1038B00059F05F3F71F04795880F97FB991F61F0B2
:1038C0009F3F79F087950895121613061406551F29
:1038D000F2CF4695F1DF08C0161617061806991F95
:1038E000F1CF86957105610508940895E894BB278A
:1038F00066277727CB0197F908958ADF08F48FEFC1
:1039000008950BD0C0CFB1DF28F0B6DF18F09523B3
:1039100009F0A2CFA7CF1124EACFC6DFA0F3959F6D
:10392000D1F3950F50E0551F629FF001729FBB27A6
:10393000F00DB11D639FAA27F00DB11DAA1F649F52
:103940006627B00DA11D661F829F2227B00DA11D05
:10395000621F739FB00DA11D621F839FA00D611D8B
:10396000221F749F3327A00D611D231F849F600DAC
:10397000211D822F762F6A2F11249F5750408AF0E5
:10398000E1F088234AF0EE0FFF1FBB1F661F771F71
:10399000881F91505040A9F79E3F510570F05CCFB1
:1039A000A6CF5F3FECF3983EDCF38695779567955D
:1039B000B795F795E7959F5FC1F7FE2B880F911D8F
:1039C0009695879597F9089597FB072E16F400941E
:1039D00006D077FD08D033D007FC05D03EF4909593
:1039E00081959F4F0895709561957F4F0895A1E24D
:1039F0001A2EAA1BBB1BFD010DC0AA1FBB1FEE1F69
:103A0000FF1FA217B307E407F50720F0A21BB30BB3
:103A1000E40BF50B661F771F881F991F1A9469F72F
:103A200060957095809590959B01AC01BD01CF018B
:103A30000895EE0FFF1F0590F491E02D0994AA1B45
:103A4000BB1B51E107C0AA1FBB1FA617B70710F089
:103A5000A61BB70B881F991F5A95A9F780959095BB
:103A6000BC01CD010895FB01DC0102C001900D9263
:0C3A700041505040D8F70895F894FFCF63
:103A7C000100FD0AFD0AFF00008000050503050595
:103A8C0005FF0507FF0505050504040204020206EF
:103A9C000402FF02040500000000000D320EB00C01
:103AAC00E10C820C9C0C8E0C41746D656C2D3E41AE
:103ABC00565200080010001000200040002000406A
:103ACC0000100010001000000001000100000001B7
:0C3ADC00003801000000000000000000A5
:00000001FF
