:100000000C945D000C9485000C9485000C94850084
:100010000C9485000C9485000C94EC160C948500CF
:100020000C9485000C9485000C9485000C942D167E
:100030000C9485000C9485000C9485000C9485002C
:100040000C946B150C9485000C94F5150C94CF153D
:100050000C9485000C9485000C9485000C9485000C
:100060000C9485000C9485000000000024002700FB
:100070002A0000000000250028002B0004040404CE
:100080000404040402020202020203030303030342
:10009000010204081020408001020408102001021F
:1000A00004081020000000080002010000030407FB
:1000B00000000000000000005E1511241FBECFEFFD
:1000C000D8E0DEBFCDBF11E0A0E0B1E0ECECF5E39D
:1000D00002C005900D92A435B107D9F722E0A4E53E
:1000E000B1E001C01D92A43BB207E1F710E0CDE5FD
:1000F000D0E004C02197FE010E948B18CC35D107B7
:10010000C9F70E94C6150C94E41A0C9400008330C1
:10011000B1F060F08730E9F0883009F1843021F5E2
:10012000E0E8F0E080818F7D80830895813069F080
:10013000823021F484B58F7D84BD08950895E0E870
:10014000F0E080818F778083089584B58F7784BDB8
:100150000895E0EBF0E080818F7780830895E0EBF5
:10016000F0E080818F7D808308951F93CF93DF938C
:10017000282F30E0F901EC55FF4F8491F901E05749
:10018000FF4F1491F901E458FF4FC491CC23A9F01B
:10019000D62F811116C0EC2FF0E0EE0FFF1FEE58A6
:1001A000FF4FA591B4918FB7F894D1110DC09C91D8
:1001B000E12FE095E923EC938FBFDF91CF911F9161
:1001C00008950E948700E7CFEC91E12BEC93F4CFE8
:1001D000CF93DF9390E0FC01E057FF4F24918458C8
:1001E0009F4FFC018491882319F190E0880F991F9B
:1001F000FC01E859FF4FA591B491FC01EE58FF4F67
:10020000C591D491662349F06230A9F08FB7F89474
:10021000EC91E22BEC938FBF0BC09FB7F8948C91BD
:10022000E22FE0958E238C938881E823E8839FBF9B
:10023000DF91CF9108959FB7F8943C91822F8095DC
:1002400083238C93E881E22BE8839FBFF1CF1F9338
:10025000CF93DF93182FEB0161E00E94E800209715
:10026000D9F0CF3FD10501F1E12FF0E0EC55FF4F80
:10027000E491E33061F1E8F0E730E9F1E83009F4C6
:1002800042C0E43071F1C038D1050CF444C061E0E3
:10029000812F0E94B50004C060E0812F0E94B5004C
:1002A000DF91CF911F91089561E0812F0E94B500E9
:1002B000F7CFE13039F0E23031F784B5806284BDA8
:1002C000C8BDEECF84B5806884BDC7BDE9CFE0E886
:1002D000F0E0808180688083D0938900C09388009B
:1002E000DFCFE0E8F0E0808180628083D0938B00F4
:1002F000C0938A00D5CFE0EBF0E0808180688083F6
:10030000C093B300CDCFE0EBF0E0808180628083CA
:10031000C093B400C5CF60E0812F0E94B500C0CF6C
:100320008E3008F08E508770806480937C00EAE7FE
:10033000F0E080818064808380917A0086FDFCCF2C
:1003400080917800909179000895789484B58260C6
:1003500084BD84B5816084BD85B5826085BD85B569
:10036000816085BDEEE6F0E0808181608083E1E818
:10037000F0E0108280818260808380818160808350
:10038000E0E8F0E0808181608083E1EBF0E0808153
:1003900084608083E0EBF0E0808181608083EAE725
:1003A000F0E08081846080838081826080838081AE
:1003B000816080838081806880831092C10008956D
:1003C0004F925F926F927F92AF92BF92CF92DF92E5
:1003D000EF92FF920F931F93CF93DF93CDB7DEB7CA
:1003E00029013A019B01AC01241935094609570935
:1003F00089899A89AB89BC89BC01CD016A197B09BD
:100400008C099D090E946F18A801970124193509CC
:10041000460957090E941418CA01B9016A0D7B1DCB
:100420008C1D9D1DDF91CF911F910F91FF90EF903B
:10043000DF90CF90BF90AF907F906F905F904F9084
:100440000895DC01ED91FC910190F081E02D09957A
:100450000895CF92DF92EF92FF920F931F93CF9365
:10046000DF938C01DB01D0E0C0E07A0181E0E81A83
:10047000F108452BA1F0F80180819181FC012081D8
:1004800031816D01FFEFCF1ADF0A6C91C801F901CC
:100490000995892B21F02196A701D601E6CFCE013F
:1004A000DF91CF911F910F91FF90EF90DF90CF9050
:1004B0000895019709F008956F3F7F4FE1F7EAE053
:1004C000F2E01382128288EE93E0A0E0B0E0848331
:1004D0009583A683B7838BE091E09183808385EC3D
:1004E00090E09587848784EC90E09787868780ECFE
:1004F00090E0918B808B81EC90E0938B828B82ECEF
:1005000090E0958B848B86EC90E0978B868B118E98
:10051000128E138E148ECFCFFC01938D848D98177D
:1005200020F4891B990B019708952FE330E0291BD4
:100530003109820F932F911D0895FC01918D828DB9
:10054000981761F0A28DAE0FBF2FB11D5D968C91F3
:10055000928D9F5F9F73928F90E008958FEF9FEF32
:100560000895FC01918D828D981731F0828DE80FEE
:10057000F11D858D90E008958FEF9FEF0895FC01A8
:10058000218D30E0205C3F4F828DA901481B51092D
:10059000CA018F73992708958AE092E00E94BF02F2
:1005A00021E0892B09F420E0822F0895CF92DF9279
:1005B000EF92FF921F93CF93DF93EC016A017B01CF
:1005C000122F60E079E08DE390E0A70196010E9490
:1005D0003E182150310941095109569547953795E3
:1005E0002795E889F98982E08083C11481EED806D5
:1005F000E104F10421F0211580E1380798F0E88941
:10060000F989108260E874E88EE190E0A701960114
:100610000E943E18215031094109510956954795CC
:1006200037952795EC85FD853083EE85FF85208302
:10063000188EEC89FD891083EA89FB8980818061AD
:100640008083EA89FB89808188608083EA89FB89CD
:10065000808180688083EA89FB8980818F7D8083A7
:10066000DF91CF911F91FF90EF90DF90CF90089591
:10067000FC01A48DA80FB92FB11DA35ABF4F2C9117
:10068000848D90E001968F739078848FA689B789C6
:100690002C93A089B1898C91837080648C93938D05
:1006A000848D981308950288F389E02D80818F7DD1
:1006B0008083F8CF0F931F93CF93DF93EC0181E0FA
:1006C000888F9B8D8C8D9817B1F0062F8B8D90E0C5
:1006D00001968F739078182F8C8D81131EC00FB6E2
:1006E00007FCFACFE889F989808185FFF5CFCE0133
:1006F0000E943803F1CFE889F989808185FFE5CF31
:100700009FB7F894EE89FF896083E889F989808131
:100710008370806480839FBF10C0EB8DEC0FFD2F32
:10072000F11DE35AFF4F00839FB7F8941B8FEA89AE
:10073000FB898081806280839FBF81E090E0DF91B0
:10074000CF911F910F910895CF93DF93EC01888D86
:10075000811104C00DC00FB607FE0DC0EA89FB89E8
:10076000808185FDF8CFA889B9898C9186FFF3CF68
:10077000DF91CF910895808185FFF0CFE889F989D5
:10078000808185FFEBCFCE010E943803E7CF80E068
:1007900090E0892B21F00E94CC02811101C00895C4
:1007A0000E940000FCCFCF93DF93FC01C081CC30CE
:1007B00008F03FC0418128E830E0241B310947FDA3
:1007C0003395220F331F220F331F621773077CF0FC
:1007D000828128E532E0281B310987FD3395220FFD
:1007E000331F220F331F261737070CF09B01B90167
:1007F00062507109072E000C880B990B689413F84E
:10080000660F771F881F991F1694D1F728E030E0F4
:1008100040E050E00E9414186FB7F894D0E0CE0189
:10082000880F991FC80FD91FCA51DE4F3A832983F9
:100830006FBFDF91CF910895AF92BF92CF92DF92B9
:10084000EF92FF920F931F93CF93DF93EC016032EF
:1008500082E078070CF041C0772334F0653B7105E6
:100860002CF064EB70E002C070E060E08A8128E563
:1008700032E0281B310987FD3395220F331F220FE9
:10088000331F89810F2EF8E8AF2EB12CF02DA81A56
:10089000B10887FDB394AA0CBB1CAA0CBB1C0B2C83
:1008A000000CCC08DD08072E000C880B990B890181
:1008B000330F220B330B3F932F931F930F9314EBA4
:1008C000E12EF12C00E010E020E030E0A9010E94D0
:1008D000E0010F900F900F900F90CE010E94D30374
:1008E000DF91CF911F910F91FF90EF90DF90CF900C
:1008F000BF90AF900895FC019091E5019C3018F0F5
:100900008FEF8083089581E0890F8093E5019083C4
:10091000892F90E0FC01EE0FFF1FE80FF91FEA514D
:10092000FE4F88EB9BE0928381830895AC0190E0B9
:100930009C30B8F49A01220F331F240F351F220F69
:10094000331F220F331F290F311DF901EE0FFF1F37
:10095000E20FF31FEA51FE4F808186FD04C09F5FC6
:10096000E7CF80E0089581E00895892B89F4109203
:10097000800082E0809381001092850010928400B4
:1009800086B3826086BBEFE6F0E080818260808380
:100990000895DF92EF92FF920F931F93CF93DF930F
:1009A000EC01D62E7A01890188818C3048F088814B
:1009B000DF91CF911F910F91FF90EF90DF900895FD
:1009C00061E08D2D0E94E800E8818E2F90E0FC010F
:1009D000EE0FFF1FE80FF91FEA51FE4F8D2D8F73A9
:1009E000D0809D2D907CD92ED82AD08220E232E072
:1009F0002E193F09C901992354F19595879595952D
:100A00008795898320E639E0201B310BC9019923A2
:100A100004F195958795959587958A8388816CE0F3
:100A20000E947F18082F10E0C8010E9496048823B6
:100A300091F0E8818E2F90E0FC01EE0FFF1FE80F90
:100A4000F91FEA51FE4F808180648083B0CF039606
:100A5000D4CF0396DECFC8010E94B504EACF20E6CA
:100A600039E040E252E00E94C90408950FB6F894BC
:100A70000F92FC01828D882321F080E00F900FBE41
:100A8000089581E0FBCFA89588E190EC0FB6F8942B
:100A9000A895809360000FBE90936000089583B185
:100AA000806283B9089584B1806284B985B180621F
:100AB00085B90895E091B901F091BA018081882348
:100AC00071F0E091B901F091BA010580F681E02D55
:100AD000808191819093B5018093B40108958FEF47
:100AE0009FEF9093B5018093B40108950F931F93E6
:100AF000CF93DF938091E301811108C1C091BB01C5
:100B0000D091BC018E010F5F1F4F1093BC01009369
:100B1000BB010115110529F18091B4019091B50136
:100B200008171907B0F580E0E0915401F0915501E4
:100B3000E6892E2F30E0F901EE0FFF1FEE0FFF1FA9
:100B4000EE0FFF1FE20FF31FE354FE4F9081923030
:100B500008F081E09091E201992309F4E1C081E07D
:100B6000DFC08091B9019091BA012091B701309115
:100B7000B8013093BA012093B9019093B8018093E2
:100B8000B7018091B6018F5F8093B6010E945A052C
:100B9000C3CF80E05EC02FEF3FEF3093B5012093CD
:100BA000B401C2CF3093B5012093B401BDCF2681EB
:100BB000378112963C932E9311977EC0158A148A22
:100BC0009C9191509C9326899091E101921710F489
:100BD0002093E10130E0D901AA0FBB1FAA0FBB1F70
:100BE000AA0FBB1FA20FB31FA354BE4F11960D90A7
:100BF000BC91A02DB583A48314962D913C9115979B
:100C00003783268314962D913C911597E9015B83D8
:100C10004A8315965C934E931497A6892A2F30E049
:100C2000D901AA0FBB1FAA0FBB1FAA0FBB1FA20F80
:100C3000B31FA354BE4FB387A2879C919F5F9C9321
:100C40002689E0915401F09155019689291708F001
:100C500081E0E091B901F091BA019081992309F402
:100C60009ACFE091B901F091BA010580F681E02DAB
:100C70000680F781E02D228133810217130708F4E3
:100C800091CFA285B3852481358146815781E901C1
:100C90005D834C832681378144815581E9015B83E3
:100CA0004A83AF014E5F5F4F11962D913C91129791
:100CB0002417350709F47BCF138612869C91915037
:100CC0009C93A489B589109709F47DCF2685378533
:100CD00060897189E9017D836C832089318966850A
:100CE0007785E9017B836A8311966D917C911297D8
:100CF0009F01245F3F4F6217730709F05FCF208980
:100D0000318912963C932E93119758CF8091B2015E
:100D10009091B30101969093B3018093B20180E06A
:100D2000DF91CF911F910F9108950E944305A091EB
:100D30005401B0915501CD91CDBFDD91DEBFFF9142
:100D4000EF91DF91CF91BF91AF919F918F917F9163
:100D50006F915F914F913F912F911F910F91FF9054
:100D6000EF90DF90CF90BF90AF909F908F907F904B
:100D70006F905F904F903F902F901F900F900FBEFD
:100D80000F90089581E00895FC016083319770838E
:100D900031971082319720E820833197108277971E
:100DA00040833197508383970895CF93DF93FC015D
:100DB000A085B185C281D381848195819D838C83F7
:100DC000C481D581828193819B838A8311968D9181
:100DD0009C9112978E179F0749F0118610868C916F
:100DE00081508C938C91DF91CF910895848195816E
:100DF00012969C938E931197F0CFCF93DF93EB01D4
:100E0000488159814F3F540719F0DC01139605C002
:100E1000FC01A781B0850AC0DF011296ED91FC911B
:100E200013972081318142175307B0F71296ED9145
:100E3000FC911397FB83EA83D583C483BD83AC8382
:100E40001396DC93CE93129799878887FC012081B3
:100E50002F5F2083DF91CF910895FC0111861086CA
:100E60000895FC010396928381832FEF3FEF348333
:100E70002383968385839087878310820895FC015E
:100E8000738362839187808746175707A0F0421BC0
:100E9000530B848595854817590710F081E0089514
:100EA000BF016E5F7F4F80919A0190919B010E94DC
:100EB000FD0680E008954217530718F46217730780
:100EC00058F4BF016E5F7F4F80919C0190919D010E
:100ED0000E94FD0680E0089581E00895DC01E09124
:100EE0009C01F0919D01808191E0811190E09C93A3
:100EF000911106C00580F681E02D808191810895D1
:100F000090E080E00895EF92FF920F931F93CF93AC
:100F1000DF93EC018B017A0108C08C859D85080F59
:100F2000191FE889F989CE0109956C857D85600FC7
:100F3000711F9801A701CE010E943F078111EDCFDB
:100F4000DF91CF911F910F91FF90EF900895EF9255
:100F5000FF920F931F93CF93DF938C017B01E0915E
:100F60009C01F0919D010580F681E02DC681D7811D
:100F7000CE0102960E94D5068A8982FD0DC08E7F21
:100F80008A8BE889F989CE010995DF91CF911F916C
:100F90000F91FF90EF900895A701B801CE010E9434
:100FA0008307EFCF09C00580F681E02D6FEF7FEF5B
:100FB000808191810E94A707E0919C01F0919D01A1
:100FC00080818111F0CF80919A0190919B01909343
:100FD0009D0180939C01F0939B01E0939A010895F9
:100FE000FF920F931F93CF93DF93EC01F62E0091A6
:100FF000BB011091BC018091540190915501029662
:101000000E94D506CF3FDC0729F1C00FD11FE09128
:101010005401F0915501D383C283C017D10708F45E
:101020004FC060915401709155018091B901909128
:10103000BA016E5F7F4F0E94FD068091B4019091CE
:10104000B501C817D90708F047C0D093B501C093C0
:10105000B40142C0FF20C9F2EDE8F1E0A181B28104
:10106000C0915401D0915501BD83AC83C09154010E
:10107000D091550114968D919C9115979F838E83E5
:1010800080915401909155011496CD91DC91159762
:1010900002969B838A838091540190915501029618
:1010A00015969C938E931497A0915401B09155017D
:1010B0001B96FC93EE931A9780818F5F80830CC000
:1010C00060915401709155018091B7019091B801E0
:1010D0006E5F7F4F0E94FD06DF91CF911F910F91B0
:1010E000FF900895CF93C0E010C02C2F30E0C901CD
:1010F000880F991F880F991F880F991F820F931FC0
:1011000083549E4F0E943107CF5FC43070F389E74C
:1011100091E00E94310780E791E00E94310787E665
:1011200091E00E94310784E891E00E9431078DE848
:1011300091E00E94310789E791E09093BA01809392
:10114000B90180E791E09093B8018093B701CF9106
:10115000089581E08093E20108952091B601FC0199
:1011600020832091BB013091BC01328321830895FB
:101170001F93CF93DF930FB6F8940F924091BB016A
:101180005091BC01DC011196ED91FC91DA01AE1B8E
:10119000BF0BEB01288139812F3F320721F1EC0190
:1011A0001881C091B6011C1719F04E175F0768F43B
:1011B000A217B30778F0EB011982188281E00F9033
:1011C0000FBEDF91CF911F910895FB011182108214
:1011D00081E0F5CF2A1B3B0BDB012D933C930E9452
:1011E000AD0880E0ECCF80E0EACFCF93DF93DC0165
:1011F0001596ED91FC910680F781E02DA489B589C3
:10120000C685D785808991899D838C83C089D18942
:10121000868597859B838A839F01245F3F4F119624
:101220008D919C9112978217930709F471C0158ACA
:10123000148A8C9181508C938091E301811176C046
:10124000A285B385C481D581868197819D838C8356
:10125000C681D781848195819B838A839F012E5F7C
:101260003F4F11968D919C9112978217930709F425
:1012700056C0138612868C9181508C9386899091EA
:10128000E101981710F48093E10190E0DC01AA0FCE
:10129000BB1FAA0FBB1FAA0FBB1FA80FB91FA354C8
:1012A000BE4F11960D90BC91A02DB583A4831496CA
:1012B0008D919C911597978386831496CD91DC919F
:1012C00015973B832A8315963C932E931497A689F2
:1012D0008A2F90E0DC01AA0FBB1FAA0FBB1FAA0F29
:1012E000BB1FA80FB91FA354BE4FB387A2878C9111
:1012F0008F5F8C939689E0915401F0915501868916
:10130000891780F581E08093E201DF91CF91089504
:101310008089918912969C938E93119788CF8681AC
:10132000978112969C938E931197A3CF47E651E035
:10133000DA011196CD91DC91D787C6878C819D818A
:10134000918B808B8C819D81DC0113963C932E9335
:1013500012973D832C83558B448BDA018C918F5FE0
:101360008C93C8CF80E0D1CF1F93CF93DF93EC0154
:101370000FB6F8940F921E8D03C00E94A908115059
:10138000111654F48989882339F0CE0141960E94C0
:10139000F5088823A1F3F1CF8FEF8E8F0F900FBE4A
:1013A0000FB6F8940F921D8D03C00E94A90811502A
:1013B000111654F48885882339F0CE0108960E94CE
:1013C000F5088823A1F3F1CF8FEF8D8F0F900FBE1B
:1013D000DF91CF911F9108950F931F93CF93DF93C8
:1013E000FC018B01A181B281809154019091550142
:1013F000EC01BF87AE8780915401909155011496FE
:101400002D913C911597EC01398B288B209154013B
:101410003091550114968D919C911597245F3F4F03
:10142000EC013B832A832091540130915501245FC4
:101430003F4F15963C932E931497A0915401B09171
:1014400055015596FC93EE93549790819F5F90833E
:10145000442311F00FEF1FEF642FC8010E94F00723
:10146000DF91CF911F910F910895CF93DF93EC01FE
:101470000FB6F8940F928D8D8F3F71F08E8D8F3F48
:1014800069F00F900FBE8A8D882351F0CE010E9423
:10149000B409DF91CF9108951D8EF0CF1E8EF1CF4C
:1014A000CE0141960E94EC09F1CFCF93DF93EB017F
:1014B0006091540170915501645F7F4F0E94FD0659
:1014C00061E0CE010E94F007DF91CF9108950FB641
:1014D000F8940F928091BB019091BC010F900FBEC8
:1014E00008950F931F93CF93DF938C010E94670A97
:1014F000EC018091980190919901C817D90760F08B
:10150000F8011082D0939901C0939801CE01DF9128
:10151000CF911F910F9108950E94D20781E0F801A9
:101520008083F0CF8091E3018F5F8093E301089582
:10153000019709F008956F3F7F4FE1F780E691E052
:101540000E947B04F7CF08950E94C7030895DF929D
:10155000EF92FF920F931F93CF93DF93CDB7DEB738
:10156000A1970FB6F894DEBF0FBECDBF7C01CB01B3
:10157000BA01D22E19A221E02D1520F48E010F5DA3
:101580001F4F0EC00F2EFAE0DF2EF02DF7CFE95CD3
:10159000D801EE938D01611571058105910579F0F2
:1015A0002D2D30E050E040E00E943E18E62F622FE3
:1015B000732F842F952FEA3054F7E05DE9CF109711
:1015C000F9F0FD0101900020E9F73197AF014A1BC6
:1015D0005B0BD701ED91FC910280F381E02DB80106
:1015E000C7010995A1960FB6F894DEBF0FBECDBF17
:1015F000DF91CF911F910F91FF90EF90DF900895B1
:1016000090E080E0EFCF2115310549F4DC01ED9148
:10161000FC910190F081E02D642F099508950E94BE
:10162000A70A08959A01AB0170E060E00E94030BE5
:101630000895DC01ED91FC910280F381E02D42E000
:1016400050E069E171E0099508956115710581F037
:10165000FB0101900020E9F73197AF01461B570BC2
:10166000DC01ED91FC910280F381E02D0995089554
:1016700090E080E008954F925F926F927F92AF92D8
:10168000BF92CF92DF92EF92FF920F931F93CF936F
:10169000DF9300D000D01F92CDB7DEB75C016A01A6
:1016A0007B012D83AB019601CB01B6010E94CF1ABD
:1016B000811151C026013701E89477F821E0298390
:1016C0002FEF3FEF4FE75FE7C301B2010E94CF1A50
:1016D00081110BC02FEF3FEF4FE75FE7C301B2016E
:1016E0000E94FE1818160CF4198289818823D1F102
:1016F0002FEF3FEF4FE75FE4C701B6010E945D1A8D
:1017000018160CF44AC02FEF3FEF4FE75FECC7010C
:10171000B6010E94FE1888230CF446C020E030E099
:10172000A901C701B6010E94FE1888230CF443C02A
:10173000712C612C10E060E070E080E09FE32D816F
:10174000121708F042C020E030E040E251E40E946D
:1017500003191F5FF4CF6CE171E0C5010E94250BF6
:101760008C0106C060E271E0C5010E94250B8C016E
:10177000C8010F900F900F900F900F90DF91CF91B5
:101780001F910F91FF90EF90DF90CF90BF90AF909F
:101790007F906F905F904F90089564E271E0C50173
:1017A0000E94250B8C01E4CF64E271E0C5010E9428
:1017B000250B8C01DDCF6DE2C5010E9421023C01A9
:1017C000F7FAF094F7F8F094B5CF9B01AC01C7019C
:1017D000B6010E9492186B017C010E947C196983FA
:1017E0007A838B839C830E94AB199B01AC01C70158
:1017F000B6010E9491186B017C012AE030E049811A
:101800005A816B817C81C5010E94030B8301080F03
:10181000191F8D8181112BC02D81215029838D812C
:10182000882309F4A5CF20E030E040E251E4C7016D
:10183000B6010E94621A2B013C010E947C196B01C7
:101840004AE050E0C5010E94120B080F191FB601B3
:1018500090E080E00E94AB199B01AC01C301B20192
:101860000E9491186B017C0129812D83D5CF6EE2F6
:10187000C5010E942102080F191FCECF0E943B0B09
:1018800008950F931F93CF93DF93EC010E943E0CBA
:101890008C01CE010E94190B800F911FDF91CF9117
:1018A0001F910F910895FC01448D4423A9F050E04D
:1018B00026813781240F351F3783268384819581C4
:1018C0002817390720F08081918197838683CB0187
:1018D000668177810E94D41A08950F920FB6F8940A
:1018E0000F921F9211242F923F924F925F926F920C
:1018F0007F928F929F92AF92BF92CF92DF92EF92A0
:10190000FF920F931F932F933F934F935F936F9388
:101910007F938F939F93AF93BF93CF93DF93EF9377
:10192000FF93A0915401B09155010DB60D920EB6E2
:101930000D9213BE8091E301811111C12091BB0171
:101940003091BC012F5F3F4F3093BC012093BB010E
:101950002115310581F58091B9019091BA0140912D
:10196000B7015091B8015093BA014093B9019093D7
:10197000B8018093B7018091B6018F5F8093B60163
:10198000E091B901F091BA018081811107C08FEF18
:101990009FEF9093B5018093B4010DC0E091B90120
:1019A000F091BA010580F681E02D808191819093BC
:1019B000B5018093B4018091B4019091B5012817CD
:1019C000390720F440E0B1C041E001C040E0E091BF
:1019D000B901F091BA018081811107C08FEF9FEFAB
:1019E0009093B5018093B401A0C0E091B901F0914A
:1019F000BA010580F681E02D0680F781E02D828115
:101A000093812817390728F49093B5018093B40186
:101A10008CC0A285B385C481D581668177817D83A1
:101A20006C83C681D781648175817B836A83BF01A2
:101A30006E5F7F4F11968D919C9112978617970735
:101A400031F48681978112969C938E931197138619
:101A500012868C9181508C93A489B589109701F1DD
:101A6000C685D785808991899D838C83C089D189DA
:101A7000868597859B838A831196CD91DC911297F9
:101A8000CF010C96C817D90731F480899189129635
:101A90009C938E931197158A148A8C9181508C9304
:101AA00086899091E101981710F48093E10190E00C
:101AB000DC01AA0FBB1FAA0FBB1FAA0FBB1FA80FD9
:101AC000B91FA354BE4F11960D90BC91A02DB583A4
:101AD000A48314968D919C91159797838683149671
:101AE000CD91DC9115977B836A8315967C936E93D9
:101AF0001497868990E0DC01AA0FBB1FAA0FBB1FB9
:101B0000AA0FBB1FA80FB91FA354BE4FB387A2874C
:101B10008C918F5F8C939689E0915401F0915501DF
:101B20008689981708F050CF52CFE0915401F09178
:101B30005501868990E0FC01EE0FFF1FEE0FFF1F9D
:101B4000EE0FFF1FE80FF91FE354FE4F8081823034
:101B500008F041E08091E20181110CC00CC080913D
:101B6000B2019091B30101969093B3018093B201B9
:101B700040E001C041E0442309F47CC08091E301CE
:101B8000882321F081E08093E20174C01092E20189
:101B9000A0915401B0915501E0915401F09155018B
:101BA0002D913C918789908D82179307D8F0809171
:101BB000540190915501809154019091550184B147
:101BC000806284B985B1806285B92FEF87EA91E69A
:101BD000215080409040E1F700C0000083B1806256
:101BE00083B9F3CF4091E10101C04150842F90E0CF
:101BF000FC01EE0FFF1FEE0FFF1FEE0FFF1FE80FA0
:101C0000F91FE354FE4F2081222379F39C01220F18
:101C1000331F220F331F220F331F280F391FDF01FD
:101C20000180F281E02D0280F381E02D1296FC9379
:101C3000EE93119720543E4FE217F30729F42281C7
:101C40003381FD0132832183FC01EE0FFF1FEE0F74
:101C5000FF1FEE0FFF1FE80FF91FE354FE4F018037
:101C6000F281E02D868197819093550180935401F4
:101C70004093E101A0915401B0915501CD91CDBFA8
:101C8000DD91DEBFFF91EF91DF91CF91BF91AF91D9
:101C90009F918F917F916F915F914F913F912F9184
:101CA0001F910F91FF90EF90DF90CF90BF90AF907A
:101CB0009F908F907F906F905F904F903F902F906C
:101CC0001F900F900FBE0F9008950F920FB6F894CB
:101CD0000F921F9211242F923F924F925F926F9218
:101CE0007F928F929F92AF92BF92CF92DF92EF92AC
:101CF000FF920F931F932F933F934F935F936F9395
:101D00007F938F939F93AF93BF93CF93DF93EF9383
:101D1000FF93A0915401B09155010DB60D920EB6EE
:101D20000D928091E301882321F081E08093E2010C
:101D300074C01092E201A0915401B0915501E0915C
:101D40005401F09155012D913C918789908D821716
:101D50009307D8F0809154019091550180915401DE
:101D60009091550184B1806284B985B1806285B952
:101D70002FEF87EA91E6215080409040E1F700C0C4
:101D8000000083B1806283B9F3CF4091E10101C0CB
:101D90004150842F90E0FC01EE0FFF1FEE0FFF1F5C
:101DA000EE0FFF1FE80FF91FE354FE4F208122239F
:101DB00079F39C01220F331F220F331F220F331F91
:101DC000280F391FDF010180F281E02D0280F381AD
:101DD000E02D1296FC93EE93119720543E4FE2179C
:101DE000F30729F422813381FD0132832183FC0131
:101DF000EE0FFF1FEE0FFF1FEE0FFF1FE80FF91F83
:101E0000E354FE4F0180F281E02D8681978190930B
:101E10005501809354014093E101A0915401B09188
:101E20005501CD91CDBFDD91DEBFFF91EF91DF91E7
:101E3000CF91BF91AF919F918F917F916F915F9162
:101E40004F913F912F911F910F91FF90EF90DF9055
:101E5000CF90BF90AF909F908F907F906F905F904A
:101E60004F903F902F901F900F900FBE0F900895AE
:101E7000CF93DF93009709F447C0FC01238D222301
:101E800009F444C0EC010FB6F8940F92208131811F
:101E9000838D90E0448D50E0849FF001859FF00D8C
:101EA000949FF00D1124E20FF31FFD83EC831A8E33
:101EB0003B832A830197849FF001859FF00D949FB7
:101EC000F00D11242E0F3F1F3F832E838FEF8D8F38
:101ED0008E8F611110C08885811104C00F900FBED4
:101EE00081E015C0CE0108960E94F5088823B1F361
:101EF0000E94650EF3CFCE0108960E943107CE01F5
:101F000041960E943107EACF80E001C080E0DF9176
:101F1000CF9108950F931F93F801662359F05183D1
:101F20004083838F648F61E0CF010E94380F1F913F
:101F30000F91089511830083F4CFCF93DF930FB6F1
:101F4000F8940F928091E30181508093E301809196
:101F5000E3018111C9C080918301882309F4C5C0C0
:101F6000F0E0E0E080916701882309F49AC0E091F5
:101F70006C01F0916D010680F781E02DA489B5898F
:101F8000C685D785808991899D838C83C089D189B5
:101F9000868597859B838A83CF010C9611962D9118
:101FA0003C9112972817390709F46DC0158A148AD5
:101FB0008C9181508C93A285B385C481D581868113
:101FC00097819D838C83C681D781848195819B83F2
:101FD0008A839F012E5F3F4F11968D919C9112979E
:101FE0008217930709F456C0138612868C9181508C
:101FF0008C9386899091E101981710F48093E10108
:1020000090E0DC01AA0FBB1FAA0FBB1FAA0FBB1FCA
:10201000A80FB91FA354BE4F11960D90BC91A02DCF
:10202000B583A48314968D919C911597978386838D
:102030001496CD91DC9115973B832A8315963C939A
:102040002E931497A6898A2F90E0DC01AA0FBB1F5C
:10205000AA0FBB1FAA0FBB1FA80FB91FA354BE4FC7
:10206000B387A2878C918F5F8C939689A09154013E
:10207000B091550156968C91981708F473CF81E072
:102080008093E2016FCF8089918912969C938E9301
:1020900011978CCF8681978112969C938E9311977E
:1020A000A3CFEF2B11F00E945A05C091B201D0913D
:1020B000B301209741F48091E201811111C080E0C9
:1020C00014C0219741F00E9476058823D1F381E066
:1020D0008093E201F6CF1092B3011092B201EBCFE0
:1020E0000E94650E81E001C080E00F900FBEDF917D
:1020F000CF910895CF92DF92EF92FF920F931F93AB
:10210000CF93DF9300D000D01F92CDB7DEB78C0104
:102110006B015D834C83E12C43C0B601C8010E9472
:10212000530CFA94F801F28E8085811111C00F9042
:102130000FBE81E00F900F900F900F900F90DF91E6
:10214000CF911F910F91FF90EF90DF90CF90089566
:10215000C80108960E94F508882349F30E94650E7D
:10216000E6CF0F900FBE80E0E5CFCE0101960E9432
:10217000AD08EE24E39421C0158E2AC0168E2CC023
:10218000C8010E94B4090E949D0F0AC0C8010E94A4
:10219000B4090E949D0FC8010E94360581113DC0FF
:1021A0000FB6F8940F92F801F28CF110B6CF8C8133
:1021B0009D81892BB1F2EE20C1F20F900FBE0E94DB
:1021C000920A0FB6F8940F92F801858D8F3FA1F215
:1021D000F801868D8F3F91F20F900FBEBE016C5FAC
:1021E0007F4FCE0101960E94B8088111CFCFC80160
:1021F0000E943605882309F4C3CF6C817D81C80114
:1022000041960E94550AC8010E94B4090E949D0F80
:102210008111C6CF0E94650EC3CF80E08BCFCF92D5
:10222000DF92EF92FF921F93CF93DF931F92CDB770
:10223000DEB77C01162F0E94920ACE0101960E9401
:10224000710A6C018981811130C0111103C0CE1453
:10225000DF0408F5112341F0E0919A01F0919B0110
:10226000808111E0811110E0B7016C197D09412FC7
:102270008091B0019091B1010E94350A0E949D0F9A
:10228000882381F00F90DF91CF911F91FF90EF9005
:10229000DF90CF9008950E949D0FB601C7010E9464
:1022A000A707F0CF0E94650EEDCF0E949D0FEACFE9
:1022B000CF93DF93EC01892B51F00E94920A60E0EA
:1022C000CE010E94F0070E949D0F811102C00E9462
:1022D000650EDF91CF91089526E040E855E260E079
:1022E00070E08AE092E00E94D60240915C01509139
:1022F0005D0160915E0170915F0122E030E08AE053
:1023000092E00E94410C81E090E00E945811EDCFD4
:1023100020E030E040EA51E46091580170915901A9
:1023200080915A0190915B010E9491180E94751949
:102330008BE00E9427018FE190E00E945811E8CFC6
:102340008EE00E949001BC01990F880B990B0E94AE
:10235000AD190E9475191F921F9223E12F9328E84F
:102360002F93A12CB12C6501EE24EA9413E0F12EF9
:1023700000E010E020E030E0A9010E94E0010F90B1
:102380000F900F900F900E94AD1960935C017093B5
:102390005D0180935E0190935F012FEC3BE64CEC76
:1023A0005DE30E94621A22E538E34BE452E40E94A6
:1023B0009118609358017093590180935A0190933A
:1023C0005B018EE390E00E945811BACFCF93DF9368
:1023D000EC010FB6F8940F92809183018F5F809388
:1023E00083018091540190915501892B89F080914E
:1023F0006401811116C0E0915401F0915501968954
:102400008E89891770F0D0935501C093540109C08B
:10241000D0935501C093540180918301813009F418
:102420004FC0809163018F5F809363018E8990918B
:10243000E101981710F48093E10190E0FC01EE0FA8
:10244000FF1FEE0FFF1FEE0FFF1FE80FF91FE354F2
:10245000FE4F0180F281E02DFD83EC838481958124
:102460009F838E83A481B581CE01029613969C939F
:102470008E93129795838483EE898E2F90E0FC01D2
:10248000EE0FFF1FEE0FFF1FEE0FFF1FE80FF91FEC
:10249000E354FE4FFB87EA8780818F5F80830F9034
:1024A0000FBE80916401882341F0E0915401F091C6
:1024B000550196898E89981730F0DF91CF91089554
:1024C0000E947208AECF0E94650EF7CF0E9453059E
:1024D0002FEF80E792E0215080409040E1F700C06C
:1024E00000000E944F05F4CFCF93DF93009741F097
:1024F000EC010E94920ACE010E948B170E949D0F50
:10250000DF91CF910895EF92FF920F931F93CF9396
:10251000DF9300D000D000D0CDB7DEB750E040E070
:10252000BE016F5F7F4F8091B0019091B1010E9419
:102530007A10882309F47BC0898188237CF30C817D
:102540001D81D8011A968D919C91892B21F0C8018B
:1025500002960E94D506CE0106960E94710A7C0161
:10256000E981E150E930D0F60E2E000CFF0BE55466
:10257000FD4E0C948B18C412C412F112F6120C13F7
:10258000C412C412F112F612F80182898160828BA2
:102590002A813B8164857585620F731FA701C8017D
:1025A0000E943F07882309F4B9CFD80152968C9135
:1025B000529782FD0AC08E7FF801828BD801509617
:1025C000ED91FC91C8010995A9CF6A817B811C9688
:1025D0008D919C91680F791FA701C8010E94830704
:1025E000EDCFF80182898E7F828B98CFD8015296E9
:1025F0008C915297816052968C9352976A817B811D
:102600001D967C936E931C976E0D7F1D9701A701FD
:10261000C8010E943F0782CFF801828981FF03C071
:102620008E7F828B7BCFC8010E94741277CF269653
:102630000FB6F894DEBF0FBECDBFDF91CF911F91D3
:102640000F91FF90EF900895CF93DF931F92CDB736
:10265000DEB7CE0101960E946E0769810E940F11BC
:102660000E948312F6CFCF93DF93EC018F89988D70
:102670000E947412CE010E947412DF91CF910895CE
:10268000CF93DF931CC00FB6F8940F92E0918901AD
:10269000F0918A01C681D781CE0102960E94D506AB
:1026A00080918301815080938301809182018150C8
:1026B000809382010F900FBECE010E943313809150
:1026C00082018111E0CFDF91CF91089502C00E9475
:1026D000A40A0E9440138091BD018230C0F30E9481
:1026E000650EF5CFCF93DF93EC010E94920ACE01E5
:1026F0000E94EF16EC010E949D0F209721F0CE0161
:10270000DF91CF9108950E946612DF92EF92FF92BF
:102710000F931F93CF93DF93882319F1869F900126
:102720001124213E9FEF3907F8F4D42ED62FC82F5D
:10273000C9014F960E9472137C01009749F08C01E9
:102740002D2DAC01415E5F4F6D2F8C2F0E948A0FA3
:10275000C701DF91CF911F910F91FF90EF90DF9014
:102760000895F12CE12CF4CFF12CE12CF1CF0FB630
:10277000F8940F928091B0019091B101892B19F0DA
:102780000F900FBE089587EA91E00E9431078EE90D
:1027900091E00E94310787EA91E090939D01809338
:1027A0009C018EE991E090939B0180939A0140E017
:1027B00065E08AE00E9485139093B1018093B00197
:1027C000DFCF4F925F926F927F928F929F92AF92E4
:1027D000BF92CF92DF92EF92FF920F93CF93DF934E
:1027E0002C015B014A013901E60165EA70E08F893D
:1027F000988D0E94DD1A8F89988D21E0821A9108A8
:10280000880E991EA114B10409F451C020E02830AB
:1028100080F4822F90E0F501E80FF91F30818C0FD2
:102820009D1FDC0159963C938081882311F02F5F16
:10283000EECF18A2043008F003E00E8B09A31AA211
:10284000CE0102960E942D07CE010C960E942D0704
:10285000D987C88784E090E0801B91099D878C8789
:10286000DB8BCA8B84E0FE01B396DF011D928A9553
:10287000E9F71FA2A301B201C4010E94C406998313
:102880008883E114F10419F0F701D183C083DF914B
:10289000CF910F91FF90EF90DF90CF90BF90AF90CE
:1028A0009F908F907F906F905F904F900895198EBA
:1028B000C1CF2F923F924F925F926F927F928F92F1
:1028C0009F92AF92BF92CF92DF92EF92FF920F93BF
:1028D000CF93DF933C011B014A012901CA010E94E9
:1028E00072136C01892B71F188E290E00E947213DF
:1028F000EC01892B19F1D88ECF8A209729F1B12CC0
:10290000A12C6E019201A401B101C3010E94E11347
:10291000CE010E94E61181E0DF91CF910F91FF90EF
:10292000EF90DF90CF90BF90AF909F908F907F906F
:102930006F905F904F903F902F900895C6010E9436
:102940007412DBCF8FEFE8CF8FEFE6CFEF92FF92DD
:102950000F930E94B7138091B0019091B101892B20
:10296000A9F00F2EF6E9EF2EF1E0FF2EF02D03E097
:1029700030E020E045E550E068E271E084E293E178
:102980000E9459140F91FF90EF90089580E0FACFC4
:10299000EF92FF920F930F2EF5E6EF2EF1E0FF2E50
:1029A000F02D00E030E020E040EC50E060E371E02A
:1029B00086E693E10E945914813041F0813049F05C
:1029C000809100010F91FF90EF9008950E94A6144E
:1029D000F5CFF8948FEF9FEF9093B5018093B401FA
:1029E00081E0809364011092BC011092BB010E94AF
:1029F0009506E6CFEF92FF920F9361E08BE00E9485
:102A0000E80061E08AE00E94E80060E08AE00E945D
:102A1000B50066E070E080E691E00E942F056EE16F
:102A200070E080E691E00E941C04F12CE12C01E0B2
:102A300030E020E040E850E065E371E086E595E1B4
:102A40000E94591430E020E040E850E06BE371E070
:102A500080EA91E10E94591430E020E040E850E023
:102A600060E471E088E891E10E94591403E030E0ED
:102A700020E040E850E068E471E08CE691E10E94DB
:102A800059140F91FF90EF90089520910501309116
:102A900006018FEF98E0821B930B909302018093C5
:102AA00001010E94FA140E94C81408958FE00E9448
:102AB00090018DE790E00E945811F8CF6FEF7FEF03
:102AC00081E090E00E9459026FEF7FEF81E090E09B
:102AD0000E94980A08951F920F920FB60F92112428
:102AE0000F931F932F933F934F935F936F937F9316
:102AF0008F939F93AF93BF930091AC021091AD025F
:102B00002091AE023091AF029091AB02B901A801C1
:102B10004F5F5F4F6F4F7F4F83E0890F8D3740F0DE
:102B200086E8890FB901A8014E5F5F4F6F4F7F4F55
:102B30008093AB024093AC025093AD026093AE021F
:102B40007093AF028091A7029091A802A091A90270
:102B5000B091AA020196A11DB11D8093A702909386
:102B6000A802A093A902B093AA02BF91AF919F912E
:102B70008F917F916F915F914F913F912F911F9115
:102B80000F910F900FBE0F901F9018950E94A501F6
:102B90000E9445150E94FA140E94C703FDCF1F92A0
:102BA0000F920FB60F9211242F933F934F935F9381
:102BB0006F937F938F939F93AF93BF93EF93FF9305
:102BC0008AE092E00E943803FF91EF91BF91AF91AC
:102BD0009F918F917F916F915F914F913F912F9135
:102BE0000F900FBE0F901F9018951F920F920FB667
:102BF0000F9211242F938F939F93AF93BF93EF93D3
:102C0000FF93E0911A02F0911B02808182FD14C0B3
:102C1000EAE0F2E0A689B7892C91818D8F5F8F73EE
:102C2000928D891771F0DF01E18DF0E0E65FFD4FD5
:102C3000258F59968C9305C0E0912002F0912102D6
:102C40008081FF91EF91BF91AF919F918F912F91D3
:102C50000F900FBE0F901F9018951F920F920FB6F6
:102C60000F9211242F933F934F935F936F937F9312
:102C70008F939F93AF93BF93EF93FF938091E40162
:102C8000882364F18091E401082E000C990B2091B7
:102C9000E5012817190631F12CF1E091E4018E2F9E
:102CA000EE0F990BFC01EE0FFF1FE80FF91FEA5121
:102CB000FE4F808186FF16C0E091E4018E2FEE0F5B
:102CC000990BFC01EE0FFF1FE80FF91FEA51FE4FB1
:102CD000808160E08F730E94B50004C0109285006F
:102CE000109284008091E4018F5F8093E4018091D1
:102CF000E401082E000C990B2091E5012817190614
:102D000029F024F08091E4018C309CF080918400C3
:102D100090918500049680349C4908F443C08091CA
:102D20008400909185000496909389008093880098
:102D30003FC02091840030918500E091E4018E2F06
:102D4000EE0F990BFC01EE0FFF1FE80FF91FEA5180
:102D5000FE4F81819281820F931F9093890080930F
:102D60008800E091E4018E2FEE0F990BFC01EE0F2D
:102D7000FF1FE80FF91FEA51FE4F808186FF1BC03D
:102D8000E091E4018E2FEE0F990BFC01EE0FFF1F77
:102D9000E80FF91FEA51FE4F808161E08F730E94B6
:102DA000B50009C080E49CE9909389008093880075
:102DB0008FEF8093E401FF91EF91BF91AF919F91CD
:102DC0008F917F916F915F914F913F912F910F90D4
:102DD0000FBE0F901F9018950E946D0C18950F93C1
:102DE0001F93CF93DF938230910510F482E090E03F
:102DF000E091B202F091B30230E020E0B0E0A0E058
:102E0000309799F42115310509F44AC0281B390B74
:102E100024303105D8F58A819B816115710589F1CE
:102E2000FB0193838283FE0111C0408151810281A5
:102E3000138148175907E0F04817590799F410977C
:102E400061F012960C93129713961C933296CF0151
:102E5000DF91CF911F910F9108950093B2021093CB
:102E6000B302F4CF2115310551F04217530738F062
:102E7000A901DB019A01BD01DF01F801C1CFEF011A
:102E8000F9CF9093B3028093B202CDCFFE01E20F4F
:102E9000F31F819391932250310939832883D7CF2F
:102EA0002091B0023091B102232B41F42091030113
:102EB000309104013093B1022093B00220910101BE
:102EC000309102012115310541F42DB73EB74091F3
:102ED000050150910601241B350BE091B002F091E1
:102EE000B102E217F307A0F42E1B3F0B2817390796
:102EF00078F0AC014E5F5F4F2417350748F04E0F56
:102F00005F1F5093B1024093B002819391939FCF82
:102F1000F0E0E0E09CCFCF93DF930097E9F0FC0175
:102F2000329713821282A091B202B091B302ED01E6
:102F300030E020E01097A1F420813181820F931FAF
:102F40002091B0023091B1022817390709F061C011
:102F5000F093B102E093B002DF91CF910895EA01BE
:102F6000CE17DF07E8F54A815B819E0141155105C7
:102F7000B1F7E901FB83EA8349915991C40FD51F49
:102F8000EC17FD0761F4808191810296840F951FF3
:102F9000E90199838883828193819B838A83F0E00E
:102FA000E0E012968D919C9113970097B9F52D91C1
:102FB0003C911197CD010296820F931F2091B00290
:102FC0003091B1022817390739F6309751F5109230
:102FD000B3021092B202B093B102A093B002BCCF80
:102FE000D383C28340815181840F951FC817D907AD
:102FF00061F44E5F5F4F88819981480F591F51835B
:1030000040838A819B81938382832115310509F056
:10301000B0CFF093B302E093B2029ECFFD01DC018A
:10302000C0CF13821282D7CF052E97FB1EF40094D7
:103030000E942B1857FD07D00E943E1807FC03D0B2
:103040004EF40C942B1850954095309521953F4F98
:103050004F4F5F4F089590958095709561957F4F84
:103060008F4F9F4F08950E946018A59F900DB49FA9
:10307000900DA49F800D911D11240895A1E21A2E98
:10308000AA1BBB1BFD010DC0AA1FBB1FEE1FFF1F0C
:10309000A217B307E407F50720F0A21BB30BE40B5C
:1030A000F50B661F771F881F991F1A9469F76095A3
:1030B0007095809590959B01AC01BD01CF0108955D
:1030C000A29FB001B39FC001A39F700D811D112469
:1030D000911DB29F700D811D1124911D0895DB017A
:1030E0008F939F930E943318BF91AF91A29F800D41
:1030F000911DA39F900DB29F900D11240895991BCF
:1031000079E004C0991F961708F0961B881F7A95DE
:10311000C9F780950895EE0FFF1F0590F491E02DFB
:1031200009945058BB27AA270E94A9180C94231A67
:103130000E94151A38F00E941C1A20F039F49F3FA3
:1031400019F426F40C94121A0EF4E095E7FB0C9493
:103150000C1AE92F0E94341A58F3BA176207730742
:103160008407950720F079F4A6F50C94561A0EF40E
:10317000E0950B2EBA2FA02D0B01B90190010C0187
:10318000CA01A0011124FF27591B99F0593F50F49F
:10319000503E68F11A16F040A22F232F342F4427F7
:1031A000585FF3CF469537952795A795F0405395EF
:1031B000C9F77EF41F16BA0B620B730B840BBAF0BF
:1031C0009150A1F0FF0FBB1F661F771F881FC2F72A
:1031D0000EC0BA0F621F731F841F48F4879577953E
:1031E0006795B795F7959E3F08F0B0CF9395880FF8
:1031F00008F09927EE0F9795879508950E94E81992
:1032000008F481E008950E9417190C94231A0E9473
:103210001C1A58F00E94151A40F029F45F3F29F05B
:103220000C940C1A51110C94571A0C94121A0E94F7
:10323000341A68F39923B1F3552391F3951B550B79
:10324000BB27AA2762177307840738F09F5F5F4F79
:10325000220F331F441FAA1FA9F335D00E2E3AF0B8
:10326000E0E832D091505040E695001CCAF72BD0D0
:10327000FE2F29D0660F771F881FBB1F2617370721
:103280004807AB07B0E809F0BB0B802DBF01FF2753
:1032900093585F4F3AF09E3F510578F00C940C1A0A
:1032A0000C94571A5F3FE4F3983ED4F386957795D4
:1032B0006795B795F7959F5FC9F7880F911D96950C
:1032C000879597F90895E1E0660F771F881FBB1F68
:1032D000621773078407BA0720F0621B730B840B15
:1032E000BA0BEE1F88F7E09508950E947C19689448
:1032F000B1110C94571A08950E943C1A88F09F57F8
:1033000098F0B92F9927B751B0F0E1F0660F771F09
:10331000881F991F1AF0BA95C9F714C0B13091F0FF
:103320000E94561AB1E008950C94561A672F782F10
:103330008827B85F39F0B93FCCF3869577956795C4
:10334000B395D9F73EF490958095709561957F4F30
:103350008F4F9F4F0895E89409C097FB3EF49095D6
:103360008095709561957F4F8F4F9F4F9923A9F05E
:10337000F92F96E9BB279395F695879577956795ED
:10338000B795F111F8CFFAF4BB0F11F460FF1BC031
:103390006F5F7F4F8F4F9F4F16C0882311F096E9C4
:1033A00011C0772321F09EE8872F762F05C0662372
:1033B00071F096E8862F70E060E02AF09A95660F2B
:1033C000771F881FDAF7880F9695879597F90895E4
:1033D000990F0008550FAA0BE0E8FEEF1616170626
:1033E000E807F907C0F012161306E407F50798F08E
:1033F000621B730B840B950B39F40A2661F0232BA7
:10340000242B252B21F408950A2609F4A140A69522
:103410008FEF811D811D089597F99F6780E870E007
:1034200060E008959FEF80EC089500240A9416163A
:10343000170618060906089500240A9412161306A2
:10344000140605060895092E0394000C11F4882330
:1034500052F0BB0F40F4BF2B11F460FF04C06F5F4C
:103460007F4F8F4F9F4F089557FD9058440F551F22
:1034700059F05F3F71F04795880F97FB991F61F0F6
:103480009F3F79F087950895121613061406551F6D
:10349000F2CF4695F1DF08C0161617061806991FD9
:1034A000F1CF86957105610508940895E894BB27CE
:1034B00066277727CB0197F908950E94E81908F449
:1034C0008FEF08950E94751A0C94231A0E94151A02
:1034D00038F00E941C1A20F0952311F00C940C1A5D
:1034E0000C94121A11240C94571A0E94341A70F377
:1034F000959FC1F3950F50E0551F629FF001729F99
:10350000BB27F00DB11D639FAA27F00DB11DAA1FA7
:10351000649F6627B00DA11D661F829F2227B00DF4
:10352000A11D621F739FB00DA11D621F839FA00D7F
:10353000611D221F749F3327A00D611D231F849FCF
:10354000600D211D822F762F6A2F11249F57504026
:103550009AF0F1F088234AF0EE0FFF1FBB1F661FA1
:10356000771F881F91505040A9F79E3F510580F06A
:103570000C940C1A0C94571A5F3FE4F3983ED4F362
:10358000869577956795B795F795E7959F5FC1F70E
:10359000FE2B880F911D9695879597F908950E94A7
:1035A000E819880B990B0895FB01DC0102C001901A
:1035B0000D9241505040D8F70895DC0101C06D9341
:0C35C00041505040E0F70895F894FFCF10
:1035CC00030000B4028000000000005A0329028CA2
:1035DC0002A403BF029D02B1020D0A006E616E00CF
:1035EC00696E66006F766600546D722053766300C8
:1035FC0049444C4500466F7263650054656D70001C
:10360C0044434D6F746F7200416E616C6F6752650D
:04361C0061640000E5
:00000001FF
