:1000000075C00000A1C000009FC000009DC000009E
:100010009BC0000099C0000097C0000095C0000080
:1000200093C0000091C000008FC000008DC0000090
:100030008BC0000089C0000087C0000085C00000A0
:1000400083C0000081C000007FC000007DC00000B0
:100050007BC0000079C0000077C000001DC3000015
:1000600073C00000EFC4000023C500006DC0000095
:100070006BC0000069C0000067C0000065C00000E0
:1000800063C0000061C000005FC000005DC00000F0
:1000900065C5000099C5000057C0000055C00000AC
:1000A00053C0000051C000004FC000004DC0000010
:1000B0004BC0000049C0000047C0000045C0000020
:1000C00043C0000041C0000005C10000D3C50000CE
:1000D00007C6000039C0000059C600008DC60000E8
:1000E00033C0000081050D069906250711241FBEA7
:1000F000CFEFD1E2DEBFCDBF00E00CBF12E0A0E049
:10010000B2E0E6E5FFE000E00BBF02C007900D9211
:10011000A431B107D9F724E0A4E1B2E001C01D92F7
:10012000A13BB207E1F710E0C6E7D0E000E005C070
:1001300021970109802FFE0104D7C237D10780E043
:100140000807B1F72DD105C75BCFCF92DF92EF92B1
:10015000FF928091A604811108C081E08093A604DB
:10016000FF90EF90DF90CF900895C0909E04D090C4
:100170009F04E090A004F090A10420E030E040E073
:1001800050E4C701B60121D287FD4CC020E030E029
:1001900040E951E460919A0470919B0480919C0421
:1001A00090919D0416D26093A7047093A804809345
:1001B000A9049093AA0410929E0410929F04109296
:1001C000A0041092A104C090A204D090A304E090D7
:1001D000A404F090A50420E030E040E85FE3C7010C
:1001E000B601F3D187FD37C020E030E040EA51E4AA
:1001F000609196047091970480919804909199046D
:1002000006D16093AB047093AC048093AD049093DB
:10021000AE041092A2041092A3041092A4041092AF
:10022000A5049ECF20E030E040E050E4C701B601D5
:1002300053D187FFC8CF20E030E040E85FE3C7013B
:10024000B601E6D060939E0470939F048093A0044F
:100250009093A104B8CF20E030E040E85FE3C7010D
:10026000B6013AD187FF7CCF20E030E040E85FE381
:10027000C701B601CDD06093A2047093A30480930C
:10028000A4049093A5046CCF0895089540E855E226
:1002900060E070E090E080E000C08130910571F096
:1002A0001CF4892B39F008958230910559F0039799
:1002B00069F0089526E082E292E064C326E08FEBC5
:1002C00092E0FBCF26E08CE593E0F7CF26E089EFC4
:1002D00093E0F3CF1F920F920FB60F9211240BB63B
:1002E0000F922F933F934F935F936F937F938F93CF
:1002F0009F93AF93BF93EF93FF9387EF92EC90930D
:1003000025018093240134D0FF91EF91BF91AF91EB
:100310009F918F917F916F915F914F913F912F911D
:100320000F900BBE0F900FBE0F901F90189587EF88
:1003300092EC9093250180932401A3E7B0E08C9187
:100340008E7F8C93E0E2F1E080818C7F8083E1E21C
:10035000F1E08081877E80838081856080838081D9
:100360008D7F80838C9181608C93089581E00895C6
:100370008091160291E0980F90931602882349F01D
:1003800021E030E030931802209317028093160288
:1003900008957894DADEF894809116028150F6CFB1
:1003A000CF93DF931092B0041092AF04BFD16EDFF1
:1003B000C0910002D09101021982188265DFF89481
:1003C000B6DF81E028813981232B09F080E080931A
:1003D000AF04789478948091AF04811107C055DF01
:1003E000F89490E080E0DF91CF91089581E028813A
:1003F0003981232B09F480E08093B0049091B004FC
:1004000081E0911180E08093AF04B0DFE4CF5058D9
:10041000BB27AA270ED09FC090D030F095D020F0F7
:1004200031F49F3F11F41EF485C00EF4E095E7FB14
:100430007BC0E92FA1D080F3BA1762077307840746
:10044000950718F071F49EF5B9C00EF4E0950B2EE7
:10045000BA2FA02D0B01B90190010C01CA01A00116
:100460001124FF27591B99F0593F50F4503E68F171
:100470001A16F040A22F232F342F4427585FF3CFB2
:10048000469537952795A795F0405395C9F77EF483
:100490001F16BA0B620B730B840BBAF09150A1F0CC
:1004A000FF0FBB1F661F771F881FC2F70EC0BA0F52
:1004B000621F731F841F48F4879577956795B795DA
:1004C000F7959E3F08F0B3CF9395880F08F09927D2
:1004D000EE0F97958795089503D008F481E008956D
:1004E000990F0008550FAA0BE0E8FEEF1616170645
:1004F000E807F907C0F012161306E407F50798F0AD
:10050000621B730B840B950B39F40A2661F0232BC5
:10051000242B252B21F408950A2609F4A140A69541
:100520008FEF811D811D089597F99F6780E870E026
:1005300060E008959FEF80EC089500240A94161659
:10054000170618060906089500240A9412161306C1
:10055000140605060895092E0394000C11F488234F
:1005600052F0BB0F40F4BF2B11F460FF04C06F5F6B
:100570007F4F8F4F9F4F089557FD9058440F551F41
:1005800059F05F3F71F04795880F97FB991F61F015
:100590009F3F79F087950895121613061406551F8C
:1005A000F2CF4695F1DF08C0161617061806991FF8
:1005B000F1CF86957105610508940895E894BB27ED
:1005C00066277727CB0197F908958ADF08F48FEF24
:1005D00008950BD0C0CFB1DF28F0B6DF18F0952317
:1005E00009F0A2CFA7CF1124EACFC6DFA0F3959FD1
:1005F000D1F3950F50E0551F629FF001729FBB270A
:10060000F00DB11D639FAA27F00DB11DAA1F649FB5
:100610006627B00DA11D661F829F2227B00DA11D68
:10062000621F739FB00DA11D621F839FA00D611DEE
:10063000221F749F3327A00D611D231F849F600D0F
:10064000211D822F762F6A2F11249F5750408AF048
:10065000E1F088234AF0EE0FFF1FBB1F661F771FD4
:10066000881F91505040A9F79E3F510570F05CCF14
:10067000A6CF5F3FECF3983EDCF3869577956795C0
:10068000B795F795E7959F5FC1F7FE2B880F911DF2
:100690009695879597F908951F920F920FB60F922E
:1006A00011242F933F938F939F93AF93BF93809188
:1006B0001A0290911B02A0911C02B0911D02309170
:1006C000190223E0230F2D3758F50196A11DB11D06
:1006D0002093190280931A0290931B02A0931C028C
:1006E000B0931D0280911E0290911F02A0912002E2
:1006F000B09121020196A11DB11D80931E0290931D
:100700001F02A0932002B0932102BF91AF919F914D
:100710008F913F912F910F900FBE0F901F901895C2
:1007200026E8230F0296A11DB11DD2CF789484B57F
:10073000826084BD84B5816084BD85B5826085BDDD
:1007400085B5816085BDEEE6F0E0808181608083C3
:10075000E1E8F0E0108280818260808380818160A6
:100760008083E0E8F0E0808181608083E1EBF0E06D
:10077000808184608083E0EBF0E080818160808311
:10078000E1E9F0E080818260808380818160808304
:10079000E0E9F0E0808181608083E1EAF0E080813F
:1007A00082608083808181608083E0EAF0E08081E4
:1007B00081608083E1E2F1E08081826080838081DA
:1007C00081608083E0E2F1E0808181608083EAE7FC
:1007D000F0E080818460808380818260808380817A
:1007E000816080838081806880831092C100089539
:1007F000FC01918D228D892F90E0805C9F4F821BA0
:1008000091098F7399270895FC01918D828D981716
:1008100031F0828DE80FF11D858D90E008958FEF06
:100820009FEF0895FC01918D828D981761F0A28D44
:10083000AE0FBF2FB11D5D968C91928D9F5F9F7300
:10084000928F90E008958FEF9FEF0895FC01538DF4
:10085000448D252F30E0842F90E0821B930B54179A
:1008600010F0CF96089501970895FC01A48DA80F6C
:10087000B92FB11DA35ABF4F2C91848D90E00196E2
:100880008F739927848FA689B7892C93A089B18902
:100890008C91837080648C93938D848D981306C0A3
:1008A0000288F389E02D80818F7D80830895CF9326
:1008B000DF93EC01888D8823B1F0AA89BB89E88990
:1008C000F9898C9185FD03C0808186FD0CC00FB62F
:1008D00007FCF7CF8C9185FFF2CF808185FFEDCFAC
:1008E000CE01C3DFEACFDF91CF910895EF92FF925F
:1008F0000F931F93CF93DF93EC0181E0888F9B8D43
:100900008C8D98131AC0E889F989808185FF15C0FC
:100910009FB7F894EE89FF896083E889F98980811F
:100920008370806480839FBF81E090E0DF91CF91EE
:100930001F910F91FF90EF900895F62E0B8D10E010
:100940000F5F1F4F0F731127E02E8C8D8E110BC080
:100950000FB607FCFACFE889F989808185FFF5CFCA
:10096000CE0183DFF2CFEB8DEC0FFD2FF11DE35AAB
:10097000FF4FF0829FB7F8940B8FEA89FB89808143
:100980008062D0CFCF92DF92EF92FF921F93CF93EE
:10099000DF93EC016A017B01122FE889F98982E07B
:1009A0008083C11481EED806E104F10499F060E07F
:1009B00079E08DE390E0A7019601A1D221503109A1
:1009C000410951095695479537952795211580E19D
:1009D000380790F0E889F989108260E874E88EE1C0
:1009E00090E0A70196018BD22150310941095109AC
:1009F0005695479537952795EC85FD853083EE858F
:100A0000FF852083188EEC89FD891083EA89FB8994
:100A1000808180618083EA89FB898081886080830E
:100A2000EA89FB89808180688083EA89FB898081EB
:100A30008F7D8083DF91CF911F91FF90EF90DF90AA
:100A4000CF9008951F920F920FB60F9211240BB6FC
:100A50000F922F938F939F93EF93FF93E091320226
:100A6000F09133028081E0913802F091390282FDE9
:100A70001DC0908180913B028F5F8F7320913C025B
:100A8000821741F0E0913B02F0E0EE5DFD4F958F63
:100A900080933B02FF91EF919F918F912F910F9047
:100AA0000BBE0F900FBE0F901F9018958081F2CF54
:100AB0001F920F920FB60F9211240BB60F922F9325
:100AC0003F934F935F936F937F938F939F93AF93D6
:100AD000BF93EF93FF9382E292E0C7DEFF91EF9125
:100AE000BF91AF919F918F917F916F915F914F9146
:100AF0003F912F910F900BBE0F900FBE0F901F9044
:100B00001895E2E2F2E01382128288EE93E0A0E010
:100B1000B0E084839583A683B78386E092E09183D7
:100B2000808385EC90E09587848784EC90E09787BC
:100B3000868780EC90E0918B808B81EC90E0938BAA
:100B4000828B82EC90E0958B848B86EC90E0978B87
:100B5000868B118E128E138E148E08951F920F9213
:100B60000FB60F9211240BB60F922F938F939F9372
:100B7000EF93FF93E091CF02F091D0028081E0915A
:100B8000D502F091D60282FD1DC090818091D802DD
:100B90008F5F8F732091D902821741F0E091D802C4
:100BA000F0E0E154FD4F958F8093D802FF91EF91D3
:100BB0009F918F912F910F900BBE0F900FBE0F90B2
:100BC0001F9018958081F2CF1F920F920FB60F924F
:100BD00011240BB60F922F933F934F935F936F9314
:100BE0007F938F939F93AF93BF93EF93FF938FEB7D
:100BF00092E03BDEFF91EF91BF91AF919F918F917A
:100C00007F916F915F914F913F912F910F900BBE0C
:100C10000F900FBE0F901F901895EFEBF2E013822C
:100C2000128288EE93E0A0E0B0E084839583A683EF
:100C3000B78386E092E0918380838DEC90E0958786
:100C400084878CEC90E09787868788EC90E0918B86
:100C5000808B89EC90E0938B828B8AEC90E0958B73
:100C6000848B8EEC90E0978B868B118E128E138E78
:100C7000148E08951F920F920FB60F9211240BB687
:100C80000F922F938F939F93EF93FF93E0916C03B9
:100C9000F0916D038081E0917203F091730382FD06
:100CA0001DC09081809175038F5F8F7320917603B3
:100CB000821741F0E0917503F0E0E45AFC4F958F04
:100CC00080937503FF91EF919F918F912F910F90DA
:100CD0000BBE0F900FBE0F901F9018958081F2CF22
:100CE0001F920F920FB60F9211240BB60F922F93F3
:100CF0003F934F935F936F937F938F939F93AF93A4
:100D0000BF93EF93FF938CE593E0AFDDFF91EF91FD
:100D1000BF91AF919F918F917F916F915F914F9113
:100D20003F912F910F900BBE0F900FBE0F901F9011
:100D30001895ECE5F3E01382128288EE93E0A0E0D0
:100D4000B0E084839583A683B78386E092E09183A5
:100D5000808385ED90E09587848784ED90E0978788
:100D6000868780ED90E0918B808B81ED90E0938B76
:100D7000828B82ED90E0958B848B86ED90E0978B53
:100D8000868B118E128E138E148E08951F920F92E1
:100D90000FB60F9211240BB60F922F938F939F9340
:100DA000EF93FF93E0910904F0910A048081E091B0
:100DB0000F04F091100482FD1DC0908180911204F7
:100DC0008F5F8F7320911304821741F0E09112041A
:100DD000F0E0E750FC4F958F80931204FF91EF9164
:100DE0009F918F912F910F900BBE0F900FBE0F9080
:100DF0001F9018958081F2CF1F920F920FB60F921D
:100E000011240BB60F922F933F934F935F936F93E1
:100E10007F938F939F93AF93BF93EF93FF9389EF4C
:100E200093E023DDFF91EF91BF91AF919F918F915F
:100E30007F916F915F914F913F912F910F900BBEDA
:100E40000F900FBE0F901F901895E9EFF3E01382FB
:100E5000128288EE93E0A0E0B0E084839583A683BD
:100E6000B78386E092E09183808385E391E0958764
:100E7000848784E391E09787868780E391E0918B74
:100E8000808B81E391E0938B828B82E391E0958B61
:100E9000848B86E391E0978B868B118E128E138E56
:100EA000148E0895AF92BF92CF92DF92EF92FF928D
:100EB0000F931F93CF93DF936C017B018B01040F82
:100EC000151FEB015E01AE18BF08C017D10759F01E
:100ED0006991D601ED91FC910190F081E02DC60160
:100EE0001995892B79F7C501DF91CF911F910F914A
:100EF000FF90EF90DF90CF90BF90AF900895A1E268
:100F00001A2EAA1BBB1BFD010DC0AA1FBB1FEE1F83
:100F1000FF1FA217B307E407F50720F0A21BB30BCE
:100F2000E40BF50B661F771F881F991F1A9469F74A
:100F300060957095809590959B01AC01BD01CF01A6
:100F40000895EE0FFF1F881F8BBF0790F691E02DCD
:060F50001994F894FFCF94
:100F56001402000000007604520726045704F80322
:040F66001204040469
:00000001FF
