:1000000034C000005AC0000058C0000056C00000B4
:1000100054C0000052C0000050C000004EC000009C
:100020004CC000004AC0000048C0000046C00000AC
:1000300044C000000C94800F40C000003EC000008F
:100040000C94AE113AC000000C945D130C948F1305
:1000500034C0000032C0000030C000002EC00000DC
:100060002CC000002AC00000B41311241FBECFEF23
:10007000D8E0DEBFCDBF11E0A0E0B1E0E0E7F8E2FC
:1000800002C005900D92AE3DB107D9F724E0AEED68
:10009000B1E001C01D92A132B207E1F710E0C5E363
:1000A000D0E004C02197FE010E943014C433D10770
:1000B000C9F70E94E30F0C943614A2CFE0916602B8
:1000C000F0916702AFE9B3E090964D915D916D912B
:1000D0007C919397408351836283738394964D916F
:1000E0005D916D917C919797448355836683778367
:1000F00098964D915D916D917C919B97408751872A
:10010000628773879C968D919D910D90BC91A02DD7
:1001100084879587A687B78708952F923F924F923D
:100120005F926F927F928F929F92AF92BF92CF9287
:10013000DF92EF92FF920F931F93CF93DF93CDB790
:10014000DEB7AA970FB6F894DEBF0FBECDBF2091E1
:10015000C8023091C9023A8329832130310509F060
:10016000DBC06091BB027091BC028091BD02909196
:10017000BE026F5F7F4F8F4F9F4F0E94951020915F
:10018000BF023091C0024091C1025091C2020E9450
:100190004B116093EC017093ED018093EE0190930D
:1001A000EF018091000190910101A0910201B091B5
:1001B000030180939F039093A003A093A103B093A6
:1001C000A2038091040190910501A0910601B091D4
:1001D00007018093A3039093A403A093A503B09376
:1001E000A6038091080190910901A0910A01B091A4
:1001F0000B018093A7039093A803A093A903B09346
:10020000AA0380910C0190910D01A0910E01B09173
:100210000F018093AB039093AC03A093AD03B09315
:10022000AE0380917E0390917F03892B09F440C037
:1002300080919F039091A003A091A103B091A2038C
:1002400080938F0390939003A0939103B0939203B4
:100250008091A3039091A403A091A503B091A6035C
:100260008093930390939403A0939503B093960384
:100270008091A7039091A803A091A903B091AA032C
:100280008093970390939803A0939903B0939A0354
:100290008091AB039091AC03A091AD03B091AE03FC
:1002A00080939B0390939C03A0939D03B0939E0324
:1002B000A981BA81119709F014C38091810381113A
:1002C00044C081E08093810387E080938203109291
:1002D000DF031092E0031092E1031092E203109208
:1002E000EB031092EC031092ED031092EE0380E00A
:1002F00090E0A0E8BFE38093E3039093E403A0932E
:10030000E503B093E6038093E7039093E803A0939B
:10031000E903B093EA0385C289819A81892B09F0A8
:1003200080CFE0911C02F0911D020190F081E02D40
:1003300080819181A281B381E091CB02F091CC02C6
:1003400080839183A283B3836CCFC0909B03D090B2
:100350009C03E0909D03F0909E0340908F0350908B
:100360009003609091037090920380909703909017
:100370009803A0909903B0909A0380919303909171
:100380009403A0919503B091960389839A83AB83DC
:10039000BC83909182039987933009F4F7C708F0E2
:1003A00043C0913009F47CC0923009F46FC684E0F8
:1003B000809382031092DF031092E0031092E10316
:1003C0001092E2031092EB031092EC031092ED03F3
:1003D0001092EE0380E090E0A0E0B0E48093EF03A1
:1003E0009093F003A093F103B093F20380E090E0C8
:1003F000A0E4B0E48093F3039093F403A093F50397
:10040000B093F60322E020938D0380E090E0A0E813
:10041000BFE38093E3039093E403A093E503B093D9
:10042000E60320938E036FCFA985A53011F40C94B9
:10043000DB0B10F40C94EC0AA63009F0B8CF8091D5
:10044000300190913101A0913201B09133018D833F
:100450009E83AF83B887A3019201C701B6010E94B2
:100460002C102D813E814F8158850E94471187FFB6
:1004700002C00C94C80CA3019201609140017091DC
:10048000410180914201909143010E94471187FFF1
:1004900002C00C94C80C10928C0310928B032EC0D7
:1004A0008091380190913901A0913A01B0913B01BE
:1004B0008D839E83AF83B887A501940169817A817A
:1004C0008B819C810E942C102D813E814F8158850B
:1004D0000E94471187FD4AC0A5019401609148011F
:1004E0007091490180914A0190914B010E944711FE
:1004F00087FD3CC0109288031092870322E020936E
:1005000082031092E3031092E4031092E503109229
:10051000E6031092EB031092EC031092ED0310929D
:10052000EE0380E090E0A0E8BFE38093EF039093B8
:10053000F003A093F103B093F20340E050E060E4D5
:1005400070E44093F3035093F4036093F5037093C6
:10055000F603209383038093DF039093E003A0933B
:10056000E103B093E20320938403CDCEA50194016F
:10057000C301B2010E942C109B01AC016D817E81F0
:100580008F8198850E94911018169CF0A501940106
:10059000609148017091490180914A0190914B010D
:1005A0000E94471187FD05C01092880310928703AF
:1005B000FECE80903C0190903D01A0903E01B09015
:1005C0003F01A701960169817A818B819C810E94FC
:1005D0002C10A50194010E94471187FD53C0A7016B
:1005E000960160914C0170914D0180914E01909166
:1005F0004F010E94471187FD45C010928803109259
:10060000870383E0809382031092E3031092E40354
:100610001092E5031092E6031092E7031092E803AC
:100620001092E9031092EA0380E090E0A0E8BFE3B3
:100630008093EF039093F003A093F103B093F20340
:1006400040E050E060E870E44093F3035093F4031B
:100650006093F5037093F60322E020938503809363
:10066000DF039093E003A093E103B093E2032093B0
:1006700086038093EB039093EC03A093ED03B09378
:10068000EE03CFC0A7019601C301B2010E942C1056
:100690009B01AC01C501B4010E94911018160CF425
:1006A0004BC0A701960160914C0170914D01809162
:1006B0004E0190914F010E94471187FD3DC010925D
:1006C00088031092870385E0809382031092DF03F2
:1006D0001092E0031092E1031092E2031092E703FC
:1006E0001092E8031092E9031092EA0380E090E090
:1006F000A0E8BFE38093EF039093F003A093F1038E
:10070000B093F20340E050E060E470E44093F30300
:100710005093F4036093F5037093F60322E0209363
:1007200089038093E3039093E403A093E503B093DC
:10073000E60320938A039DCF80918703A301920152
:10074000813009F03FC060911001709111018091DA
:100750001201909113010E94471187FD0FC082E0A2
:100760008093870380E090E0A0E8BFE38093DF03FD
:100770009093E003A093E103B093E2038091880398
:1007800029813A814B815C818130A1F5609114010E
:100790007091150180911601909117010E944711E7
:1007A00087FD3FC082E08093880380E090E0A0E86E
:1007B000BFE38093E3039093E403A093E503B09336
:1007C000E6032FC0609120017091210180912201E8
:1007D000909123010E949110181684F281E0809379
:1007E00087031092DF031092E0031092E10310924E
:1007F000E203C4CF6091240170912501809126010C
:10080000909127010E94911018165CF081E080936E
:1008100088031092E3031092E4031092E503109210
:10082000E6038091DF039091E003A091E103B09192
:10083000E2038093F7039093F803A093F903B09336
:10084000FA038091E3039091E403A091E503B09152
:10085000E6038093FB039093FC03A093FD03B09306
:10086000FE038091E7039091E803A091E903B09122
:10087000EA038093FF0390930004A0930104B093D4
:1008800002048091EB039091EC03A091ED03B091F1
:10089000EE038093030490930404A0930504B093A3
:1008A00006048091EF039091F003A091F103B091C1
:1008B000F2038093070490930804A0930904B09373
:1008C0000A048091F3039091F403A091F503B09191
:1008D000F60380930B0490930C04A0930D04B09343
:1008E0000E0440908F03509090036090910370909D
:1008F000920340920F04509210046092110470927F
:1009000012048090930390909403A0909503B0906C
:1009100096038092130490921404A0921504B0924E
:1009200016048091970390919803A0919903B09138
:100930009A0389839A83AB83BC8380931704909333
:100940001804A0931904B0931A04C0909B03D0908C
:100950009C03E0909D03F0909E03C0921B04D092F4
:100960001C04E0921D04F0921E04A091C802B091F4
:10097000C902BA87A987119709F0B8C0809180038E
:1009800081110C94940D81E0809380031092CF0329
:100990001092D0031092D1031092D2031092D3037D
:1009A0001092D4031092D5031092D6031092D7035D
:1009B0001092D8031092D9031092DA031092DB033D
:1009C0001092DC031092DD031092DE032091DF030E
:1009D0003091E0034091E1035091E2036091A00166
:1009E0007091A1018091A2019091A3010E944B11ED
:1009F0002091CF033091D0034091D1035091D20385
:100A00000E942D106093AF037093B0038093B103E5
:100A10009093B2032091E3033091E4034091E50306
:100A20005091E6036091A4017091A5018091A60107
:100A30009091A7010E944B112091D3033091D403D0
:100A40004091D5035091D6030E942D106093B303BB
:100A50007093B4038093B5039093B6032091E7039A
:100A60003091E8034091E9035091EA036091A801B5
:100A70007091A9018091AA019091AB010E944B1144
:100A80002091D7033091D8034091D9035091DA03D4
:100A90000E942D106093B7037093B8038093B9033D
:100AA0009093BA032091EB033091EC034091ED0356
:100AB0005091EE036091AC017091AD018091AE0157
:100AC0009091AF010E944B112091DB033091DC0328
:100AD0004091DD035091DE030E942D106093BB0313
:100AE0007093BC038093BD039093BE03C090B0018C
:100AF000D090B101E090B201F090B30120918F034A
:100B0000309190034091910350919203C701B60137
:100B10000E942C10209190013091910140919201FE
:100B2000509193010E944B112091AF033091B0037B
:100B30004091B1035091B2030E942D106093BF0306
:100B40007093C0038093C1039093C20320919303D9
:100B5000309194034091950350919603C701B601DB
:100B60000E942C10209194013091950140919601A2
:100B7000509197010E944B112091B3033091B4031F
:100B80004091B5035091B6030E942D106093C303AA
:100B90007093C4038093C5039093C6032091970379
:100BA000309198034091990350919A03C701B6017F
:100BB0000E942C10209198013091990140919A0146
:100BC00050919B010E944B112091B7033091B803C3
:100BD0004091B9035091BA030E942D106093C7034E
:100BE0007093C8038093C9039093CA0320919B0319
:100BF00030919C0340919D0350919E03C701B60123
:100C00000E942C1020919C0130919D0140919E01E9
:100C100050919F010E944B112091BB033091BC0366
:100C20004091BD035091BE030E942D106093CB03F1
:100C30007093CC038093CD039093CE03E985FA851E
:100C4000319709F00AC210927F0310927E03E0915F
:100C50001C02F0911D020190F081E02D80819181B4
:100C6000A281B3818D8B9E8BAF8BB88F8091EC016D
:100C70009091ED01A091EE01B091EF018D8F9E8FCB
:100C8000AF8FB8A3E091F001F091F10180809180E5
:100C9000A280B380E0912002F091210270806180F7
:100CA000E091E401F091E5012080318052804380A1
:100CB0001481058196819B8FA781AC8FE091E20121
:100CC000F091E3011182108280E1E72DF62DD10130
:100CD00001900D928A95E1F7E0911A02F0911B02C2
:100CE00050824182EBD920E030E040E05FE3C50173
:100CF000B4010E944B116B017C013A8E298E5B8AF4
:100D00004C8A798A6A8AF1017096FE87ED8779A20A
:100D10006AA259824A823E822D82ED81FE818191B2
:100D20009191A191B191FE83ED8389879A87AB87D9
:100D3000BC87A981BA812D913D914D915D91BA8376
:100D4000A983C701B6010E944B1129853A854B85BD
:100D50005C850E942D10E9A1FAA1619371938193A2
:100D60009193FAA3E9A32D853E858D819E81281755
:100D7000390799F6E0911C02F0911D02A081B18122
:100D8000BA83A983A70196016D897E898F89988D81
:100D90000E942D10E981FA8160837183828393839D
:100DA000E0911A02F0911B0210830183B6D986D913
:100DB00020E030E0A901C501B4010E944B1169A3F4
:100DC0007AA38BA39CA320E030E040E45FE3C5015D
:100DD000B4010E944B116B017C0119830A8379A62F
:100DE0006AA609811A8159864A86F10181919191F9
:100DF000A191B1911F018D879E87AF87B88BA9857F
:100E0000BA856D917D918D919D91BA87A987F801E1
:100E100041905190619071908F0129A13AA14BA10D
:100E20005CA10E944B116DA37EA38FA398A7A7017D
:100E30009601C301B2010E944B119B01AC016DA14F
:100E40007EA18FA198A50E942D102D853E854F85EE
:100E500058890E942D10A9A5BAA56D937D938D93F5
:100E60009D93BAA7A9A7ED81FE81E215F30509F0CC
:100E7000BCCFE0911C02F0911D02208131813E83A4
:100E80002D83A70196016D897E898F89988D0E9497
:100E90002D10AD81BE816D937D938D939C9313979F
:100EA000E0911A02F0911B02BB8DB0832C8D21833F
:100EB00034D904D929E33EE843E65EE3C501B40131
:100EC0000E944B116D837E838F8398872BEA3AEAC9
:100ED0004AEA5EE3C501B4010E944B116D8B7E8B23
:100EE0008F8B988F29E33EE843EE5EE3C501B401A2
:100EF0000E944B116D877E878F87988B3B8D39A31E
:100F00008C8D8AA3E98DFA8D81919191A191B191F6
:100F1000FA8FE98F89879A87AB87BC87AB89BC89B1
:100F20002D913D914D915D91BC8BAB8BE981FA8107
:100F30004190519061907190FA83E983A9A1BAA17F
:100F4000CD90DD90ED90FD90BAA3A9A36D817E8137
:100F50008F8198850E944B114B015C012D893E8940
:100F60004F89588DC301B2010E944B119B01AC0106
:100F7000C501B4010E942D104B015C012D853E85F9
:100F80004F855889C701B6010E944B119B01AC01E6
:100F9000C501B4010E942D1029853A854B855C85D9
:100FA0000E942D10E989FA8961937193819391933D
:100FB000FA8BE98B298D3A8D2216330609F0A2CFE0
:100FC000E0911C02F0911D020190F081E02D8D8DC9
:100FD0009E8DAF8DB8A180839183A283B383E0916E
:100FE000E201F091E30181E090E0918380838091C0
:100FF000BB029091BC02A091BD02B091BE020196CD
:10100000A11DB11D8093BB029093BC02A093BD02B1
:10101000B093BE028091EC019091ED01A091EE01A0
:10102000B091EF01E091CB02F091CC0280839183EB
:10103000A283B3838091C3029091C402A091C502A0
:10104000B091C6020196A11DB11D8093C302909379
:10105000C402A093C502B093C602AA960FB6F89434
:10106000DEBF0FBECDBFDF91CF911F910F91FF90DB
:10107000EF90DF90CF90BF90AF909F908F907F9038
:101080006F905F904F903F902F9008958091340122
:1010900090913501A0913601B09137018D839E83E7
:1010A000AF83B88729813A814B815C81C501B40146
:1010B000D3D72D813E814F8158850E94471187FDEE
:1010C0004DC029813A814B815C81609144017091CE
:1010D000450180914601909147010E94471187FD8B
:1010E0003DC0109284031092830381E080938203B9
:1010F0001092E7031092E8031092E9031092EA03BA
:101100001092EB031092EC031092ED031092EE0399
:1011100080E090E0A0E8BFE38093EF039093F003BA
:10112000A093F103B093F20340E050E060E070E47C
:101130004093F3035093F4036093F5037093F60325
:10114000E985E09387038093DF039093E003A09306
:10115000E103B093E203E09388032BCB80913C0141
:1011600090913D01A0913E01B0913F0189879A87FE
:10117000AB87BC87A7019601C501B4016DD729854E
:101180003A854B855C850E94471187FD13C0A701F6
:10119000960160914C0170914D0180914E019091AA
:1011A0004F010E94471187FD05C0109284031092E1
:1011B000830327CA29813A814B815C81C301B20133
:1011C0004BD79B01AC016D817E818F819885A9D71A
:1011D0001816ACF029813A814B815C816091440101
:1011E0007091450180914601909147010E944711FD
:1011F00087FD05C01092840310928303D8C8A7010D
:101200009601C301B20128D79B01AC0169857A859B
:101210008B859C8586D718160CF44FC0A7019601C4
:1012200060914C0170914D0180914E0190914F0160
:101230000E94471187FD41C01092840310928303DE
:1012400086E0809382031092DF031092E0031092F5
:10125000E1031092E2031092E3031092E403109270
:10126000E5031092E60380E090E0A0E4B0E4809310
:10127000EF039093F003A093F103B093F20380E0A7
:1012800090E0A0E8B0E48093F3039093F403A0937C
:10129000F503B093F60322E020938B0380E090E007
:1012A000A0E8BFE38093E7039093E803A093E903EA
:1012B000B093EA0320938C03DCC980918303A301DC
:1012C00092018130A1F5609110017091110180911E
:1012D000120190911301DBD787FD0FC082E080934C
:1012E000830380E090E0A0E8BFE38093DF03909366
:1012F000E003A093E103B093E20380918403A5018E
:101300009401813059F56091180170911901809113
:101310001A0190911B01BBD787FD83CA82E080939D
:10132000840380E090E0A0E8BFE30C948301609127
:101330002001709121018091220190912301F1D629
:101340001816DCF281E0809383031092DF03109281
:10135000E0031092E1031092E203CFCF60912801E5
:101360007091290180912A0190912B01DAD61816EB
:101370000CF457CA81E0809384031092E703109223
:10138000E8031092E9031092EA034BCA80913801F6
:1013900090913901A0913A01B0913B018D839E83D8
:1013A000AF83B887A5019401C701B60155D62D8139
:1013B0003E814F8158856BD787FD12C0A5019401EE
:1013C000609148017091490180914A0190914B01CF
:1013D0005ED787FD05C010928603109285038EC8E4
:1013E00029813A814B815C81C701B60135D62091B4
:1013F000340130913501409136015091370147D782
:1014000087FD62C08091440190914501A091460101
:10141000B091470189879A87AB87BC8729813A8138
:101420004B815C81BC01CD0132D787FD3DC010925C
:1014300086031092850381E0809382031092E70374
:101440001092E8031092E9031092EA031092EB0362
:101450001092EC031092ED031092EE0380E090E006
:10146000A0E8BFE38093EF039093F003A093F10310
:10147000B093F20340E050E060E070E44093F30387
:101480005093F4036093F5037093F60322E02093E6
:1014900087038093DF039093E003A093E103B0936D
:1014A000E2032093880385C929813A814B815C81BD
:1014B00069857A858B859C85EAD687FD05C0109263
:1014C000860310928503FFC8A5019401C301B201F0
:1014D000C3D59B01AC016D817E818F81988521D61A
:1014E000181694F0A501940160914801709149018A
:1014F00080914A0190914B01CAD687FD05C0109298
:101500008603109285039CCE80918503A3019201EE
:10151000813099F560911001709111018091120153
:1015200090911301B4D687FD0FC082E080938503AC
:1015300080E090E0A0E8BFE38093DF039093E003B6
:10154000A093E103B093E20380918603A701960183
:10155000813051F560911C0170911D0180911E0137
:1015600090911F0194D687FD5CC982E08093860329
:1015700080E090E0A0E8BFE37CC86091200170911A
:1015800021018091220190912301CBD51816E4F21C
:1015900081E0809385031092DF031092E0031092A4
:1015A000E1031092E203D0CF60912C0170912D01E4
:1015B00080912E0190912F01B4D518160CF431C9E9
:1015C00081E0809386031092EB031092EC0310925B
:1015D000ED031092EE0325C9809130019091310105
:1015E000A0913201B09133018D839E83AF83B88780
:1015F000A3019201C501B4012FD52D813E814F81F8
:10160000588545D687FD12C0A30192016091400123
:1016100070914101809142019091430138D687FD3C
:1016200005C010928E0310928D0305CFA301920185
:1016300069817A818B819C810FD59B01AC016D8181
:101640007E818F8198856DD518169CF0A30192013B
:10165000609140017091410180914201909143015C
:1016600016D687FD06C010928E0310928D030C943F
:101670007E0240903C0150903D0160903E01709090
:101680003F01A7019601C501B401E6D4A30192016F
:10169000FED587FD12C0A701960160914C017091A3
:1016A0004D0180914E0190914F01F1D587FD05C00C
:1016B00010928E0310928D0306C8A70196016981CE
:1016C0007A818B819C81C8D49B01AC01C301B2019A
:1016D00028D5181694F0A701960160914C017091DD
:1016E0004D0180914E0190914F01D1D587FD05C0EC
:1016F00010928E0310928D03A3CD80918D032981CA
:101700003A814B815C81813079F56091140170914F
:1017100015018091160190911701B9D587FD0FC071
:1017200082E080938D0380E090E0A0E8BFE38093A7
:10173000E3039093E403A093E503B093E603809161
:101740008E03A5019401813031F5609118017091EB
:10175000190180911A0190911B0199D587FD61C8EB
:1017600082E080938E03DDCD60912401709125018C
:101770008091260190912701D4D4181604F381E0BA
:1017800080938D031092E3031092E4031092E5031B
:101790001092E603D4CF60912801709129018091C5
:1017A0002A0190912B01BDD418160CF43AC881E09F
:1017B00080938E03E2CDA3019201C701B6014CD400
:1017C000209130013091310140913201509133012B
:1017D0005ED587FD12C0A301920160914001709116
:1017E0004101809142019091430151D587FD05C08F
:1017F00010928A03109289031ECEA7019601698177
:101800007A818B819C8128D420913C0130913D01CB
:1018100040913E0150913F013AD587FD13C0A70189
:10182000960160914C0170914D0180914E01909113
:101830004F012DD587FD06C010928A0310928903AF
:101840000C940103409038015090390160903A01A6
:1018500070903B01A5019401C701B601FDD3A3011E
:10186000920115D587FD13C0A5019401609148012F
:101870007091490180914A0190914B0108D587FDF3
:1018800006C010928A03109289030C94D701A50117
:10189000940169817A818B819C81DED39B01AC01AB
:1018A000C301B2013ED4181694F0A50194016091D1
:1018B00048017091490180914A0190914B01E7D410
:1018C00087FD05C010928A0310928903B9CC8091DC
:1018D000890329813A814B815C81813089F560914E
:1018E0001401709115018091160190911701CFD4C8
:1018F00087FD0FC082E08093890380E090E0A0E83C
:10190000BFE38093E3039093E403A093E503B093D4
:10191000E60380918A03A7019601813041F5609129
:101920001C0170911D0180911E0190911F01AFD487
:1019300087FF02C00C94110482E080938A0318CEC2
:1019400060912401709125018091260190912701D9
:10195000E8D31816F4F281E0809389031092E30330
:101960001092E4031092E5031092E603D2CF609147
:101970002C0170912D0180912E0190912F01D1D3D6
:10198000181614F40C94110481E080938A031BCE82
:10199000A3019201C501B4015FD39B01AC016D812C
:1019A0007E818F819885BDD318169CF0A30192018A
:1019B00060914001709141018091420190914301F9
:1019C00066D487FD06C010928C0310928B030C9492
:1019D00001034090340150903501609036017090C1
:1019E000370129813A814B815C81C701B60134D32B
:1019F000A30192014CD487FD15C029813A814B8106
:101A00005C81609144017091450180914601909103
:101A100047013DD487FD06C010928C0310928B03C2
:101A20000C94D70129813A814B815C81C501B401B5
:101A300013D39B01AC01C301B20173D31816ACF0F0
:101A400029813A814B815C8160914401709145010B
:101A500080914601909147011AD487FD06C01092EB
:101A60008C0310928B030C94630380918B03A5016C
:101A70009401813089F5609118017091190180916C
:101A80001A0190911B0103D487FD0FC082E080935F
:101A90008B0380E090E0A0E8BFE38093E70390939E
:101AA000E803A093E903B093EA0380918C03A701B4
:101AB0009601813041F560911C0170911D0180916A
:101AC0001E0190911F01E3D387FF02C00C94110403
:101AD00082E080938C034CCD6091280170912901A4
:101AE00080912A0190912B011CD31816F4F281E009
:101AF00080938B031092E7031092E8031092E9039E
:101B00001092EA03D2CF60912C0170912D01809147
:101B10002E0190912F0105D3181614F40C94110482
:101B200081E080938C034FCDA3019201C501B401E4
:101B300093D22091600130916101409162015091F6
:101B40006301A9D36D837E838F839887A30192015C
:101B500069817A818B819C817FD220917001309143
:101B60007101409172015091730195D39B01AC01B9
:101B70006D817E818F81988570D26D837E838F8306
:101B80009887A3019201C701B60166D22091800116
:101B90003091810140918201509183017CD39B015E
:101BA000AC016D817E818F81988557D26093CF0380
:101BB0007093D0038093D1039093D203A501940135
:101BC000C301B20149D22091540130915501409195
:101BD0005601509157015FD36D837E838F83988721
:101BE000A501940169817A818B819C8135D22091F4
:101BF00074013091750140917601509177014BD37A
:101C00009B01AC016D817E818F81988526D26D8389
:101C10007E838F839887A5019401C701B6011CD2EA
:101C20002091840130918501409186015091870176
:101C300032D39B01AC016D817E818F8198850DD25D
:101C40006093D3037093D4038093D5039093D6030A
:101C500029813A814B815C81C301B201FDD1209180
:101C600058013091590140915A0150915B0113D3B1
:101C70006D837E838F83988729813A814B815C8134
:101C8000C501B401E9D12091680130916901409109
:101C90006A0150916B01FFD29B01AC016D817E8185
:101CA0008F819885DAD16D837E838F839887298190
:101CB0003A814B815C81C701B601CED12091880168
:101CC0003091890140918A0150918B01E4D29B01AE
:101CD000AC016D817E818F819885BFD16093D703E0
:101CE0007093D8038093D9039093DA03A7019601E8
:101CF000C301B201B1D120915C0130915D014091ED
:101D00005E0150915F01C7D22B013C01A7019601F2
:101D1000C501B401A1D120916C0130916D014091B8
:101D20006E0150916F01B7D29B01AC01C301B201AA
:101D300094D14B015C01A701960169817A818B8165
:101D40009C818AD120917C0130917D0140917E015E
:101D500050917F01A0D29B01AC01C501B4017DD19E
:101D60006093DB037093DC038093DD039093DE03C9
:101D70000C94E6040F931F93CF93DF93EEEDF1E005
:101D8000A8ECB2E0B583A4832BEC32E037AF26AFEA
:101D90000FEB12E0138B028B86E692E095AF84AFD7
:101DA00060E672E0709321026093200285EB92E07E
:101DB00090931F0280931E0287EB92E09093230280
:101DC0008093220282E692E090932502809324027F
:101DD00084E692E09093270280932602F0934702D4
:101DE000E0934602F383E28381E090E08D939C933D
:101DF0004DEA52E0CDE6D2E0DA01CD93DC93ADE7D7
:101E0000B2E0B093B002A093AF02ADE8B2E0B093FD
:101E1000B202A093B102ADE9B2E0B093B402A093D4
:101E2000B302AFE8B3E0EB01B983A88357834683DD
:101E300044EC51E0518740874DEC52E0F901518369
:101E400040834DEC5CEC6CE47EE3E801488359830D
:101E50006A837B83EFE9F3E0C0E0D1E048815981F8
:101E60006A817B8140835183628373834C815D816E
:101E70006E817F8144835583668377834885598546
:101E80006A857B8540875187628773874C855D852E
:101E90006E857F85448755876687778740E050E069
:101EA00064E871E44D935D936D937C93139714965E
:101EB0004D935D936D937C93179718964D935D9317
:101EC0006D937C931B971C964D935D936D937C93C0
:101ED0001F9790937F0380937E031092C702DF9138
:101EE000CF911F910F910895089540E855E260E069
:101EF00070E090E080E000C026E081EE92E07DC3DB
:101F00001F920F920FB60F9211242F933F934F936E
:101F10005F936F937F938F939F93AF93BF93EF9351
:101F2000FF938BEC93EF909385008093840032D0E5
:101F3000FF91EF91BF91AF919F918F917F916F91A1
:101F40005F914F913F912F910F900FBE0F901F9077
:101F500018958BEC93EF9093850080938400AFE607
:101F6000B0E08C918E7F8C93E0E8F0E080818C7FF4
:101F70008083E1E8F0E08081877E808380818560D6
:101F8000808380818D7F80838C9181608C93089584
:101F900081E008958091D50291E0980F9093D50249
:101FA000882349F021E030E03093D7022093D60215
:101FB0008093D502089578940E948D00F8948091C2
:101FC000D5028150F5CF0F931F93CF93DF931092DB
:101FD000200410921F040CD288DFC091C901D09157
:101FE000CA0119821882C6DEF894B3DF888199810C
:101FF000892B31F481E0FE01E451FF4F9081911172
:1020000080E080931F04789478948E0104511F4FD0
:1020100080911F04811109C067DFF89490E080E08F
:10202000DF91CF911F910F91089588819981892B1C
:1020300089F481E0F8019081911101C080E08093E2
:1020400020049091200481E0911180E080931F048E
:102050009FDFDECF81E0F3CF5058BB27AA270ED0F9
:10206000DCC0CDD030F0D2D020F031F49F3F11F45D
:102070001EF4C2C00EF4E095E7FBB8C0E92FDED035
:1020800080F3BA17620773078407950718F071F495
:102090009EF5F6C00EF4E0950B2EBA2FA02D0B0185
:1020A000B90190010C01CA01A0011124FF27591B9D
:1020B00099F0593F50F4503E68F11A16F040A22FA3
:1020C000232F342F4427585FF3CF46953795279514
:1020D000A795F0405395C9F77EF41F16BA0B620B13
:1020E000730B840BBAF09150A1F0FF0FBB1F661F5A
:1020F000771F881FC2F70EC0BA0F621F731F841F9D
:1021000048F4879577956795B795F7959E3F08F0C2
:10211000B3CF9395880F08F09927EE0F9795879581
:10212000089540D008F481E00895E89409C097FB31
:102130003EF490958095709561957F4F8F4F9F4F9E
:102140009923A9F0F92F96E9BB279395F6958795E2
:1021500077956795B795F111F8CFFAF4BB0F11F4A5
:1021600060FF1BC06F5F7F4F8F4F9F4F16C088234C
:1021700011F096E911C0772321F09EE8872F762F82
:1021800005C0662371F096E8862F70E060E02AF0C3
:102190009A95660F771F881FDAF7880F96958795AF
:1021A00097F90895990F0008550FAA0BE0E8FEEF84
:1021B00016161706E807F907C0F012161306E4070B
:1021C000F50798F0621B730B840B950B39F40A2604
:1021D00061F0232B242B252B21F408950A2609F4E2
:1021E000A140A6958FEF811D811D089597F99F67E6
:1021F00080E870E060E008959FEF80EC089500248F
:102200000A941616170618060906089500240A945B
:1022100012161306140605060895092E0394000CE1
:1022200011F4882352F0BB0F40F4BF2B11F460FF70
:1022300004C06F5F7F4F8F4F9F4F089557FD905899
:10224000440F551F59F05F3F71F04795880F97FB7A
:10225000991F61F09F3F79F0879508951216130634
:102260001406551FF2CF4695F1DF08C01616170663
:102270001806991FF1CF8695710561050894089598
:10228000E894BB2766277727CB0197F908958ADF63
:1022900008F48FEF08950BD0C0CFB1DF28F0B6DF80
:1022A00018F0952309F0A2CFA7CF1124EACFC6DFFB
:1022B000A0F3959FD1F3950F50E0551F629FF00159
:1022C000729FBB27F00DB11D639FAA27F00DB11DB2
:1022D000AA1F649F6627B00DA11D661F829F22273B
:1022E000B00DA11D621F739FB00DA11D621F839FC2
:1022F000A00D611D221F749F3327A00D611D231F98
:10230000849F600D211D822F762F6A2F11249F57E5
:1023100050408AF0E1F088234AF0EE0FFF1FBB1F08
:10232000661F771F881F91505040A9F79E3F5105A7
:1023300070F05CCFA6CF5F3FECF3983EDCF3869560
:1023400077956795B795F795E7959F5FC1F7FE2B52
:10235000880F911D9695879597F908951F920F9272
:102360000FB60F9211242F933F938F939F93AF93A8
:10237000BF938091D9029091DA02A091DB02B091D3
:10238000DC023091D80223E0230F2D3758F5019657
:10239000A11DB11D2093D8028093D9029093DA0237
:1023A000A093DB02B093DC028091DD029091DE020B
:1023B000A091DF02B091E0020196A11DB11D8093B2
:1023C000DD029093DE02A093DF02B093E002BF91A2
:1023D000AF919F918F913F912F910F900FBE0F90D2
:1023E0001F90189526E8230F0296A11DB11DD2CF8C
:1023F000789484B5826084BD84B5816084BD85B5E0
:10240000826085BD85B5816085BDEEE6F0E08081A6
:1024100081608083E1E8F0E01082808182608083C7
:10242000808181608083E0E8F0E08081816080834A
:10243000E1EBF0E0808184608083E0EBF0E080817C
:1024400081608083EAE7F0E080818460808380811E
:1024500082608083808181608083808180688083C6
:102460001092C1000895FC01918D228D892F90E07A
:10247000805C9F4F821B91098F7399270895FC01FF
:10248000918D828D981731F0828DE80FF11D858D29
:1024900090E008958FEF9FEF0895FC01918D828D5C
:1024A000981761F0A28DAE0FBF2FB11D5D968C9174
:1024B000928D9F5F9F73928F90E008958FEF9FEFB3
:1024C0000895FC01538D448D252F30E0842F90E03A
:1024D000821B930B541710F0CF960895019708951F
:1024E000FC01A48DA80FB92FB11DA35ABF4F2C9189
:1024F000848D90E001968F739927848FA689B78980
:102500002C93A089B1898C91837080648C93938D76
:10251000848D981306C00288F389E02D80818F7D19
:1025200080830895CF93DF93EC01888D8823B1F0E9
:10253000AA89BB89E889F9898C9185FD03C08081CE
:1025400086FD0CC00FB607FCF7CF8C9185FFF2CF4C
:10255000808185FFEDCFCE01C3DFEACFDF91CF9140
:102560000895EF92FF920F931F93CF93DF93EC01A7
:1025700081E0888F9B8D8C8D98131AC0E889F9892A
:10258000808185FF15C09FB7F894EE89FF8960832D
:10259000E889F98980818370806480839FBF81E0AE
:1025A00090E0DF91CF911F910F91FF90EF900895F0
:1025B000F62E0B8D10E00F5F1F4F0F731127E02ECB
:1025C0008C8D8E110BC00FB607FCFACFE889F98904
:1025D000808185FFF5CFCE0183DFF2CFEB8DEC0F4D
:1025E000FD2FF11DE35AFF4FF0829FB7F8940B8F38
:1025F000EA89FB8980818062D0CFCF92DF92EF920F
:10260000FF921F93CF93DF93EC016A017B01122F9E
:10261000E889F98982E08083C11481EED806E1045B
:10262000F10499F060E079E08DE390E0A701960174
:10263000F5D02150310941095109569547953795F3
:102640002795211580E1380790F0E889F9891082F3
:1026500060E874E88EE190E0A7019601DFD0215098
:102660003109410951095695479537952795EC85CC
:10267000FD853083EE85FF852083188EEC89FD89EA
:102680001083EA89FB89808180618083EA89FB89E4
:10269000808188608083EA89FB898081806880836B
:1026A000EA89FB8980818F7D8083DF91CF911F91A3
:1026B000FF90EF90DF90CF9008951F920F920FB68A
:1026C0000F9211242F938F939F93EF93FF93E09199
:1026D000F102F091F2028081E091F702F091F802AC
:1026E00082FD1BC090818091FA028F5F8F732091D1
:1026F000FB02821741F0E091FA02F0E0EF51FD4F4A
:10270000958F8093FA02FF91EF919F918F912F9176
:102710000F900FBE0F901F9018958081F4CF1F92DD
:102720000F920FB60F9211242F933F934F935F9305
:102730006F937F938F939F93AF93BF93EF93FF9389
:1027400081EE92E0CDDEFF91EF91BF91AF919F912D
:102750008F917F916F915F914F913F912F910F904A
:102760000FBE0F901F901895E1EEF2E013821282D7
:1027700088EE93E0A0E0B0E084839583A683B783DE
:102780008FEC91E09183808385EC90E0958784873E
:1027900084EC90E09787868780EC90E0918B808B2B
:1027A00081EC90E0938B828B82EC90E0958B848B14
:1027B00086EC90E0978B868B118E128E138E148E82
:1027C0000895AF92BF92CF92DF92EF92FF920F9354
:1027D0001F93CF93DF936C017B018B01040F151FB7
:1027E000EB015E01AE18BF08C017D10759F069911F
:1027F000D601ED91FC910190F081E02DC601099583
:10280000892B79F7C501DF91CF911F910F91FF902F
:10281000EF90DF90CF90BF90AF900895A1E21A2E75
:10282000AA1BBB1BFD010DC0AA1FBB1FEE1FFF1F74
:10283000A217B307E407F50720F0A21BB30BE40BC4
:10284000F50B661F771F881F991F1A9469F760950B
:102850007095809590959B01AC01BD01CF010895C5
:10286000EE0FFF1F0590F491E02D0994F894FFCF2F
:102870000000844100008441000084410000844144
:1028800000009841000098410000984100009841E4
:102890000000A0410000A0410000A0410000A041B4
:1028A0000000803F0000803F0000803F0000803F2C
:1028B0000000884100008041000080410000884104
:1028C000000000009A99993ECDCCCC3E9A99993E51
:1028D0009A99993E000000000000003F00000000AF
:1028E000CDCCCC3E0000003F000000009A99993EFC
:1028F0009A99993E000000009A99993E00000000C4
:102900009A99993ECDCC4C3E0000003FCDCCCC3EB8
:10291000000010410000E040000030410000E040B5
:102920000000C04000008441000084410000844158
:10293000000084416F64653300DE0100000000B1D7
:0E29400012E1136112921233124D123F120077
:00000001FF
