:10000000B4C00000DAC00000D8C00000D6C00000B4
:10001000D4C00000D2C00000D0C00000CEC000009C
:10002000CCC00000CAC00000C8C00000C6C00000AC
:10003000C4C000000C944824C0C00000BEC0000032
:100040000C947D32BAC000000C9487340C94B934FF
:10005000B4C00000B2C00000B0C00000AEC00000DC
:10006000ACC00000AAC00000001D3A2774694E53BE
:10007000E8F5D2CF9C81A6BBCDD0F7EAB9A4839E88
:1000800025381F02514C6B76879ABDA0F3EEC9D478
:100090006F7255481B06213C4A57706D3E23041968
:1000A000A2BF9885D6CBECF1130E2934677A5D4058
:1000B000FBE6C1DC8F92B5A8DEC3E4F9AAB7908D48
:1000C000362B0C11425F78659489AEB3E0FDDAC738
:1000D0007C61465B0815322F5944637E2D30170A28
:1000E000B1AC8B96C5D8FFE2263B1C01524F687518
:1000F000CED3F4E9BAA7809DEBF6D1CC9F82A5B808
:10010000031E3924776A4D50A1BC9B86D5C8EFF2F7
:100110004954736E3D20071A6C71564B1805223FE7
:100120008499BEA3F0EDCAD735280F12415C7B66D7
:10013000DDC0E7FAA9B4938EF8E5C2DF8C91B6ABC7
:10014000100D2A3764795E43B2AF8895C6DBFCE1B7
:100150005A47607D2E3314097F6245580B16312CA7
:10016000978AADB0E3FED9C4DE3411241FBECFEFB1
:10017000D8E0DEBFCDBF13E0A0E0B1E0E4ECFDE6E7
:1001800002C005900D92A232B107D9F727E0A2E292
:10019000B3E001C01D92AE32B207E1F710E0C5EB4B
:1001A000D0E004C02197FE010E946E35C43BD10708
:1001B000C9F70E9463300C94E03622CFE091D2035D
:1001C000F091D3038091740690917506A091760604
:1001D000B091770680839183A283B3838091780660
:1001E00090917906A0917A06B0917B0684839583DD
:1001F000A683B78380917C0690917D06A0917E06B0
:10020000B0917F0680879187A287B387809180060F
:1002100090918106A0918206B0918306848795878C
:10022000A687B78708952F923F924F925F926F9261
:100230007F928F929F92AF92BF92CF92DF92EF9276
:10024000FF920F931F93CF93DF93CDB7DEB7AA979B
:100250000FB6F894DEBF0FBECDBF20914A04309197
:100260004B043A8729872130310509F0D9C66091BE
:10027000390470913A0480913B0490913C046F5F83
:100280007F4F8F4F9F4F0E94643120913D043091EA
:100290003E0440913F04509140040E941A32609302
:1002A00058037093590380935A0390935B03809192
:1002B000760190917701A0917801B09179018093B6
:1002C000B4059093B505A093B605B093B70580919A
:1002D0007A0190917B01A0917C01B0917D01809386
:1002E000B8059093B905A093BA05B093BB0580916A
:1002F0007E0190917F01A0918001B0918101809356
:10030000BC059093BD05A093BE05B093BF05809139
:10031000820190918301A0918401B0918501809325
:10032000C0059093C105A093C205B093C305809109
:10033000860190918701A0918801B09189018093F5
:10034000C4059093C505A093C605B093C7058091D9
:10035000960190919701A0919801B0919901809395
:10036000D4059093D505A093D605B093D705809179
:10037000A6019091A701A091A801B091A901809335
:10038000E4059093E505A093E605B093E705809119
:10039000B6019091B701A091B801B091B9018093D5
:1003A000F4059093F505A093F605B093F7058091B9
:1003B0008A0190918B01A0918C01B0918D01809365
:1003C000C8059093C905A093CA05B093CB05809149
:1003D0009A0190919B01A0919C01B0919D01809305
:1003E000D8059093D905A093DA05B093DB058091E9
:1003F000AA019091AB01A091AC01B091AD018093A5
:10040000E8059093E905A093EA05B093EB05809188
:10041000BA019091BB01A091BC01B091BD01809344
:10042000F8059093F905A093FA05B093FB05809128
:100430008E0190918F01A0919001B09191018093D4
:10044000CC059093CD05A093CE05B093CF058091B8
:100450009E0190919F01A091A001B091A101809374
:10046000DC059093DD05A093DE05B093DF05809158
:10047000AE019091AF01A091B001B091B101809314
:10048000EC059093ED05A093EE05B093EF058091F8
:10049000BE019091BF01A091C001B091C1018093B4
:1004A000FC059093FD05A093FE05B093FF05809198
:1004B000920190919301A0919401B0919501809344
:1004C000D0059093D105A093D205B093D305809128
:1004D000A2019091A301A091A401B091A5018093E4
:1004E000E0059093E105A093E205B093E3058091C8
:1004F000B2019091B301A091B401B091B501809384
:10050000F0059093F105A093F205B093F305809167
:10051000C2019091C301A091C401B091C501809323
:10052000000690930106A0930206B0930306809103
:10053000080790910907892B09F440C08091B40500
:100540009091B505A091B605B091B70580931807B5
:1005500090931907A0931A07B0931B078091B805D1
:100560009091B905A091BA05B091BB0580931C0785
:1005700090931D07A0931E07B0931F078091BC05A1
:100580009091BD05A091BE05B091BF058093200755
:1005900090932107A0932207B09323078091C00571
:1005A0009091C105A091C205B091C3058093240725
:1005B00090932507A0932607B093270780911807EB
:1005C00090911907A0911A07B0911B078D839E8304
:1005D000AF83B8878093040690930506A093060620
:1005E000B093070680911C0790911D07A0911E07EC
:1005F000B0911F0789839A83AB83BC8380930806DD
:1006000090930906A0930A06B0930B0680902007EA
:1006100090902107A0902207B090230780920C06AB
:1006200090920D06A0920E06B0920F06C09024077D
:10063000D0902507E0902607F0902707C09210067B
:10064000D0921106E0921206F0921306A985BA859F
:10065000119709F058C080910B078111FAC481E00D
:1006600080930B0787E090E0A0E0B0E08093D40691
:100670009093D506A093D606B093D7061092A40601
:100680001092A5061092A6061092A7061092B00628
:100690001092B1061092B2061092B30680E090E07C
:1006A000A0E8BFE38093A8069093A906A093AA06AA
:1006B000B093AB068093AC069093AD06A093AE06C4
:1006C000B093AF0680E090E0A0E0B0E48093B40681
:1006D0009093B506A093B606B093B70680E090E07D
:1006E000A0E4B0E48093B8069093B906A093BA064C
:1006F000B093BB0680E4E6ECF1E0A4E1B6E0019043
:100700000D928A95E1F78090180790901907A090B4
:100710001A07B0901B078092540690925506A0923B
:100720005606B0925706C0901C07D0901D07E09067
:100730001E07F0901F07C0925806D0925906E0920B
:100740005A06F0925B068091200790912107A091B4
:100750002207B091230789839A83AB83BC8380935C
:100760005C0690935D06A0935E06B0935F06809151
:10077000240790912507A0912607B09127078D8324
:100780009E83AF83B8878093600690936106A093A1
:100790006206B0936306A0914A04B0914B04BA87F5
:1007A000A987119709F0C4C080910A0781110C94A0
:1007B000DF1381E080930A07109294061092950649
:1007C000109296061092970610929806109299062B
:1007D00010929A0610929B0610929C0610929D060B
:1007E00010929E0610929F061092A0061092A106EB
:1007F0001092A2061092A30681E090E0A0E0B0E083
:100800008093D0069093D106A093D206B093D306DE
:100810002091A4063091A5064091A6065091A70606
:10082000609116027091170280911802909119023E
:100830000E941A32209194063091950640919606B6
:10084000509197060E94FC30609364067093650691
:1008500080936606909367062091A8063091A906BA
:100860004091AA065091AB0660911A0270911B024A
:1008700080911C0290911D020E941A3220919806CC
:100880003091990640919A0650919B060E94FC3047
:10089000609368067093690680936A0690936B066E
:1008A0002091AC063091AD064091AE065091AF0656
:1008B00060911E0270911F0280912002909121028E
:1008C0000E941A3220919C0630919D0640919E060E
:1008D00050919F060E94FC3060936C0670936D06E9
:1008E00080936E0690936F062091B0063091B1060A
:1008F0004091B2065091B30660912202709123029A
:1009000080912402909125020E941A322091A00623
:100910003091A1064091A2065091A3060E94FC309E
:1009200060937006709371068093720690937306BD
:100930004090260250902702609028027090290271
:100940002091540630915506409156065091570615
:10095000C301B2010E94FB302091060230910702D0
:1009600040910802509109020E941A3220916406B7
:100970003091650640916606509167060E94FC30F2
:10098000609374067093750680937606909377064D
:10099000209158063091590640915A0650915B06B5
:1009A000C301B2010E94FB3020910A0230910B0278
:1009B00040910C0250910D020E941A32209168065B
:1009C0003091690640916A0650916B060E94FC3096
:1009D000609378067093790680937A0690937B06ED
:1009E00020915C0630915D0640915E0650915F0655
:1009F000C301B2010E94FB3020910E0230910F0220
:100A000040911002509111020E941A3220916C06FE
:100A100030916D0640916E0650916F060E94FC3039
:100A200060937C0670937D0680937E0690937F068C
:100A300020916006309161064091620650916306F4
:100A4000C301B2010E94FB302091120230911302C7
:100A500040911402509115020E941A3220917006A2
:100A60003091710640917206509173060E94FC30DD
:100A7000609380067093810680938206909383062C
:100A8000E985FA85319709F0B2C280928406909286
:100A90008506A0928606B0928706C0928806D092FC
:100AA0008906E0928A06F0928B0689819A81AB8151
:100AB000BC8180938C0690938D06A0938E06B09394
:100AC0008F068D819E81AF81B8858093900690932B
:100AD0009106A0939206B093930610920907109284
:100AE000080782E090E00E94EC23E0914D04F09131
:100AF0004E04408151816281738190E080E00E94C8
:100B0000E82380914A0490914B04019709F06FC249
:100B10006091410470914204809143049091440497
:100B20000E9464312DEC3CEC4CE45EE30E941A32EE
:100B3000AB01BC0181E090E00E94E82380914A046F
:100B400090914B04019709F052C280904604909016
:100B50004704A0904804B090490420E030E040E809
:100B60005FEBC501B4010E946031882381F160917F
:100B700041047091420480914304909144040E9486
:100B800064312DEC3CEC4CE45EE30E941A326B01C4
:100B90007C01AC019B01C501B4010E94FB304B01FB
:100BA0005C0120E030E040E054E3C701B6010E9460
:100BB0001A329B01AC01C501B4010E94163218160D
:100BC00034F08EE392E09093490380934803809140
:100BD0004C04882331F08EE392E090934903809394
:100BE0004803E0918803F09189030190F081E02DA2
:100BF00080819181A281B3818D8B9E8BAF8BB88FC9
:100C00008091580390915903A0915A03B0915B03CE
:100C10008D8F9E8FAF8FB8A3E0915C03F0915D0341
:100C200080809180A280B380E0918C03F0918D034D
:100C300070806180E0915003F091510320803180F9
:100C4000528043801481058196819B8FA781AC8F50
:100C5000E0914E03F0914F031182108280E1E72D65
:100C6000F62DD10101900D928A95E1F7E09186036E
:100C7000F091870350824182A1DA20E030E040E029
:100C80005FE3C501B4010E941A326B017C013A8E08
:100C9000298E5B8A4C8A798A6A8AF1017096FE876E
:100CA000ED8779A26AA259824A823E822D82ED8125
:100CB000FE8181919191A191B191FE83ED8389870C
:100CC0009A87AB87BC87A981BA812D913D914D91BF
:100CD0005D91BA83A983C701B6010E941A322985A2
:100CE0003A854B855C850E94FC30E9A1FAA16193AD
:100CF000719381939193FAA3E9A32D853E858D810C
:100D00009E812817390799F6E0918803F0918903AD
:100D1000A081B181BA83A983A70196016D897E89DB
:100D20008F89988D0E94FC30E981FA8160837183FC
:100D300082839383E0918603F0918703108301837C
:100D400072DA3CDA20E030E0A901C501B4010E946A
:100D50001A3269A37AA38BA39CA320E030E040E47D
:100D60005FE3C501B4010E941A326B017C01198353
:100D70000A8379A66AA609811A8159864A86F101F1
:100D800081919191A191B1911F018D879E87AF872C
:100D9000B88BA985BA856D917D918D919D91BA870A
:100DA000A987F80141905190619071908F0129A11C
:100DB0003AA14BA15CA10E941A326DA37EA38FA31E
:100DC00098A7A7019601C301B2010E941A329B01A4
:100DD000AC016DA17EA18FA198A50E94FC302D854C
:100DE0003E854F8558890E94FC30A9A5BAA56D9310
:100DF0007D938D939D93BAA7A9A7ED81FE81E215FE
:100E0000F30509F0BCCFE0918803F09189032081BC
:100E100031813E832D83A70196016D897E898F895B
:100E2000988D0E94FC30AD81BE816D937D938D9332
:100E30009C931397E0918603F0918703BB8DB08359
:100E40002C8D2183F0D9BAD929E33EE843E65EE34D
:100E5000C501B4010E941A326D837E838F83988707
:100E60002BEA3AEA4AEA5EE3C501B4010E941A326B
:100E70006D8B7E8B8F8B988F29E33EE843EE5EE38C
:100E8000C501B4010E941A326D877E878F87988BC7
:100E90003B8D39A38C8D8AA3E98DFA8D8191919137
:100EA000A191B191FA8FE98F89879A87AB87BC8727
:100EB000AB89BC892D913D914D915D91BC8BAB8BE4
:100EC000E981FA814190519061907190FA83E983B0
:100ED000A9A1BAA1CD90DD90ED90FD90BAA3A9A3F0
:100EE0006D817E818F8198850E941A324B015C0151
:100EF0002D893E894F89588DC301B2010E941A3253
:100F00009B01AC01C501B4010E94FC304B015C01A6
:100F10002D853E854F855889C701B6010E941A323A
:100F20009B01AC01C501B4010E94FC3029853A85C2
:100F30004B855C850E94FC30E989FA896193719345
:100F400081939193FA8BE98B298D3A8D2216330682
:100F500009F0A2CFE0918803F09189030190F0811C
:100F6000E02D8D8D9E8DAF8DB8A180839183A2835E
:100F7000B383E0914E03F0914F0381E090E09183C1
:100F800080838091390490913A04A0913B04B09100
:100F90003C040196A11DB11D8093390490933A043D
:100FA000A0933B04B0933C04809158039091590363
:100FB000A0915A03B0915B03E0914D04F0914E046F
:100FC00080839183A283B3838091410490914204F2
:100FD000A0914304B09144040196A11DB11D8093DA
:100FE000410490934204A0934304B0934404AA960E
:100FF0000FB6F894DEBF0FBECDBFDF91CF911F912A
:101000000F91FF90EF90DF90CF90BF90AF909F90A7
:101010008F907F906F905F904F903F902F900895AA
:1010200089859A85892B09F082CAE0918803F0911D
:1010300089030190F081E02D80819181A281B381AB
:10104000E0914D04F0914E0480839183A283B38399
:101050006ECA4090D4065090D5066090D606709027
:10106000D706B3E04B1651046104710409F499C525
:1010700008F068C0F1E04F1651046104710409F4EE
:10108000B1C022E0421651046104710409F44AC35C
:1010900084E090E0A0E0B0E08093D4069093D50681
:1010A000A093D606B093D7061092A4061092A50678
:1010B0001092A6061092A7061092B0061092B106E2
:1010C0001092B2061092B30680E090E0A0E0B0E487
:1010D0008093B4069093B506A093B606B093B70676
:1010E00080E090E0A0E4B0E48093B8069093B90665
:1010F000A093BA06B093BB0621E02093160742E006
:1011000050E060E070E04093000750930107609367
:1011100002077093030780E090E0A0E8BFE38093AC
:10112000A8069093A906A093AA06B093AB062093B5
:1011300017074093040750930507609306077093C1
:101140000707DAC035E0431651046104710411F455
:101150000C941E1108F4F5C696E04916510461047A
:10116000710409F095CF4090E4055090E50560903A
:10117000E6057090E7052D813E814F815885C701B6
:10118000B6010E94FB30A30192010E94163287FF34
:1011900002C00C949A122091F4053091F50540910B
:1011A000F6055091F7056D817E818F8198850E94AB
:1011B0006031181614F40C949A121092FC061092D6
:1011C000FD061092FE061092FF061092150710926F
:1011D000F8061092F9061092FA061092FB06109289
:1011E000140739C04090EC055090ED056090EE0575
:1011F0007090EF05A501940169817A818B819C81B2
:101200000E94FB30A30192010E94163287FD7DC02F
:101210002091FC053091FD054091FE055091FF05A0
:10122000C501B4010E94603118160CF46EC0109212
:10123000EC061092ED061092EE061092EF06109258
:1012400011071092E8061092E9061092EA06109231
:10125000EB061092100742E050E060E070E040932F
:10126000D4065093D5066093D6067093D706109295
:10127000A8061092A9061092AA061092AB06109228
:10128000B0061092B1061092B2061092B30680E03A
:1012900090E0A0E8BFE38093B4069093B506A093D6
:1012A000B606B093B70600E010E020E430E4009307
:1012B000B8061093B9062093BA063093BB0621E016
:1012C00020930C074093D8065093D9066093DA0612
:1012D0007093DB068093A4069093A506A093A606C0
:1012E000B093A70620930D074093DC065093DD06CC
:1012F0006093DE067093DF068093AC069093AD0694
:10130000A093AE06B093AF06F5C9A50194016D8117
:101310007E818F8198850E94FB309B01AC01C301C7
:10132000B2010E94603118161CF12091FC05309129
:10133000FD054091FE055091FF05C501B4010E94D5
:1013400060311816ACF01092EC061092ED06109277
:10135000EE061092EF06109211071092E806109216
:10136000E9061092EA061092EB061092100790CE52
:101370008090F0059090F105A090F205B090F305F3
:10138000A701960169817A818B819C810E94FB3043
:10139000A50194010E94163287FD81C020910006AC
:1013A000309101064091020650910306C701B60133
:1013B0000E94603118160CF472C01092EC06109264
:1013C000ED061092EE061092EF06109211071092A1
:1013D000E8061092E9061092EA061092EB061092C7
:1013E000100783E090E0A0E0B0E08093D4069093F3
:1013F000D506A093D606B093D7061092A8061092F1
:10140000A9061092AA061092AB061092AC06109292
:10141000AD061092AE061092AF0680E090E0A0E814
:10142000BFE38093B4069093B506A093B606B0933D
:10143000B70640E050E060E870E44093B80650938F
:10144000B9066093BA067093BB0621E020930E079D
:1014500042E050E060E070E04093E0065093E10627
:101460006093E2067093E3068093A4069093A5062A
:10147000A093A606B093A70620930F074093E40617
:101480005093E5066093E6067093E7068093B006F6
:101490009093B106A093B206B093B3062BC9A701EF
:1014A00096016D817E818F8198850E94FB309B0122
:1014B000AC01C501B4010E94603118160CF479C06A
:1014C00020910006309101064091020650910306DA
:1014D000C701B6010E94603118160CF46AC0109260
:1014E000EC061092ED061092EE061092EF061092A6
:1014F00011071092E8061092E9061092EA0610927F
:10150000EB061092100785E090E0A0E0B0E0809339
:10151000D4069093D506A093D606B093D706109222
:10152000A4061092A5061092A6061092A706109285
:10153000AC061092AD061092AE061092AF0680E097
:1015400090E0A0E8BFE38093B4069093B506A09323
:10155000B606B093B70640E050E060E470E4409314
:10156000B8065093B9066093BA067093BB0621E0A3
:101570002093120742E050E060E070E04093F006F4
:101580005093F1066093F2067093F3068093A806D9
:101590009093A906A093AA06B093AB0620931307D5
:1015A0004093F4065093F5066093F6067093F706A1
:1015B0006DCF8091E8069091E906A091EA06B0917E
:1015C000EB060197A105B10509F05FC02091C405A4
:1015D0003091C5054091C6055091C7056D817E814A
:1015E0008F8198850E9460311816C4F082E090E0E7
:1015F000A0E0B0E08093E8069093E906A093EA06A5
:10160000B093EB0680E090E0A0E8BFE38093A406EF
:101610009093A506A093A606B093A7068091EC062A
:101620009091ED06A091EE06B091EF060197A1050D
:10163000B10509F04FC02091C8053091C90540910E
:10164000CA055091CB0569817A818B819C810E946A
:10165000603118160CF44EC882E090E0A0E0B0E0D3
:101660008093EC069093ED06A093EE06B093EF0600
:1016700080E090E0A0E8BFE38093A8069093A906DD
:10168000A093AA06B093AB0635C82091D40530913B
:10169000D5054091D6055091D7056D817E818F810A
:1016A00098850E94163287FDB9CF81E090E0A0E0D6
:1016B000B0E08093E8069093E906A093EA06B09321
:1016C000EB061092A4061092A5061092A6061092A0
:1016D000A706A4CF2091D8053091D9054091DA050D
:1016E0005091DB0569817A818B819C810E94163241
:1016F00087FF02C00C947A0381E090E0A0E0B0E0A4
:101700008093EC069093ED06A093EE06B093EF065F
:101710001092A8061092A9061092AA061092AB0683
:101720000C947A038091E8059091E905A091EA056F
:10173000B091EB0589879A87AB87BC8729813A816D
:101740004B815C81C501B4010E94FB3029853A853B
:101750004B855C850E94163287FD77C02091F80585
:101760003091F9054091FA055091FB0569817A8124
:101770008B819C810E94603118160CF466C0109217
:10178000DC061092DD061092DE061092DF06109243
:101790000D071092D8061092D9061092DA06109210
:1017A000DB0610920C0781E090E0A0E0B0E08093AF
:1017B000D4069093D506A093D606B093D706109280
:1017C000AC061092AD061092AE061092AF061092C3
:1017D000B0061092B1061092B2061092B30680E0E5
:1017E00090E0A0E8BFE38093B4069093B506A09381
:1017F000B606B093B70640E050E060E070E4409376
:10180000B8065093B9066093BA067093BB0621E000
:10181000209310074092E8065092E9066092EA068B
:101820007092EB068093A4069093A506A093A6065B
:10183000B093A706209311074092EC065092ED0654
:101840006092EE067092EF0617CF4090F005509030
:10185000F1056090F2057090F305A7019601C501AE
:10186000B4010E94FB30A30192010E94163287FD51
:1018700023C020910006309101064091020650914C
:101880000306C701B6010E9460311816ACF0109231
:10189000DC061092DD061092DE061092DF06109232
:1018A0000D071092D8061092D9061092DA061092FF
:1018B000DB0610920C0795CD29813A814B815C8122
:1018C0006D817E818F8198850E94FB309B01AC01E8
:1018D00069857A858B859C850E94603118162CF16C
:1018E0002091F8053091F9054091FA055091FB05DA
:1018F00069817A818B819C810E9460311816ACF0DD
:101900001092DC061092DD061092DE061092DF06C1
:1019100010920D071092D8061092D9061092DA068E
:101920001092DB0610920C07B3CBA70196016D81D4
:101930007E818F8198850E94FB309B01AC01C301A1
:10194000B2010E94603118160CF47DC0209100068F
:10195000309101064091020650910306C701B6017D
:101960000E94603118160CF46EC01092DC061092C2
:10197000DD061092DE061092DF0610920D0710921F
:10198000D8061092D9061092DA061092DB06109251
:101990000C0786E090E0A0E0B0E08093D40690933E
:1019A000D506A093D606B093D7061092A40610923F
:1019B000A5061092A6061092A7061092A8061092ED
:1019C000A9061092AA061092AB0680E090E0A0E46F
:1019D000B0E48093B4069093B506A093B606B09396
:1019E000B70680E090E0A0E8B0E48093B80690935A
:1019F000B906A093BA06B093BB0621E02093140762
:101A000042E050E060E070E04093F8065093F90641
:101A10006093FA067093FB0680E090E0A0E8BFE3D5
:101A20008093AC069093AD06A093AE06B093AF063C
:101A3000209315074093FC065093FD066093FE0625
:101A40007093FF0623CD8091D8069091D906A0917E
:101A5000DA06B091DB060197A105B10509F056C081
:101A60002091C4053091C5054091C6055091C70528
:101A70006D817E818F8198850E9460311816C4F037
:101A800082E090E0A0E0B0E08093D8069093D90681
:101A9000A093DA06B093DB0680E090E0A0E8BFE315
:101AA0008093A4069093A506A093A606B093A706DC
:101AB0008091DC069091DD06A091DE06B091DF06F4
:101AC0000197A105B10509F046C02091CC053091E0
:101AD000CD054091CE055091CF05C501B4010E94BE
:101AE0006031181614F40C947A0382E090E0A0E0C0
:101AF000B0E08093DC069093DD06A093DE06B09301
:101B0000DF0680E090E0A0E8BFE3F6CB2091D405AB
:101B10003091D5054091D6055091D7056D817E81D4
:101B20008F8198850E94163287FDC2CF81E090E0B8
:101B3000A0E0B0E08093D8069093D906A093DA068F
:101B4000B093DB061092A4061092A5061092A6068A
:101B50001092A706ADCF2091DC053091DD054091B4
:101B6000DE055091DF05C501B4010E94163287FFE2
:101B700002C00C947A0381E090E0A0E0B0E0809392
:101B8000DC069093DD06A093DE06B093DF0610928C
:101B9000AC061092AD061092AE061092AF060C94F1
:101BA0007A038091EC059091ED05A091EE05B0913E
:101BB000EF0589879A87AB87BC87A5019401C70188
:101BC000B6010E94FB3029853A854B855C850E94D1
:101BD000163287FD23C02091FC053091FD05409110
:101BE000FE055091FF05C501B4010E946031181631
:101BF000ACF01092E4061092E5061092E606109200
:101C0000E70610920F071092E0061092E10610927C
:101C1000E2061092E30610920E071DCB29813A814D
:101C20004B815C81C701B6010E94FB302091E80521
:101C30003091E9054091EA055091EB050E9416327A
:101C400087FD9CC04090F8055090F9056090FA051A
:101C50007090FB05A301920169817A818B819C813F
:101C60000E94603118160CF46AC01092E4061092BB
:101C7000E5061092E6061092E70610920F07109202
:101C8000E0061092E1061092E2061092E30610922E
:101C90000E0781E090E0A0E0B0E08093D40690933E
:101CA000D506A093D606B093D7061092AC06109234
:101CB000AD061092AE061092AF061092B0061092CA
:101CC000B1061092B2061092B30680E090E0A0E850
:101CD000BFE38093B4069093B506A093B606B09385
:101CE000B70640E050E060E070E44093B8065093DF
:101CF000B9066093BA067093BB0621E020931007E3
:101D000042E050E060E070E04093E8065093E9065E
:101D10006093EA067093EB068093A4069093A50661
:101D2000A093A606B093A706209311074093EC0654
:101D30005093ED066093EE067093EF069DCCA301E1
:101D4000920169817A818B819C810E946031181691
:101D5000ACF01092E4061092E5061092E60610929E
:101D6000E70610920F071092E0061092E10610921B
:101D7000E2061092E30610920E07C5CBA50194016E
:101D80006D817E818F8198850E94FB309B01AC0123
:101D900069857A858B859C850E94603118161CF1B7
:101DA0002091FC053091FD054091FE055091FF0505
:101DB000C501B4010E9460311816ACF01092E4061F
:101DC0001092E5061092E6061092E70610920F07B1
:101DD0001092E0061092E1061092E2061092E306DD
:101DE00010920E07D6CD8091E0069091E106A09169
:101DF000E206B091E3060197A105B10509F056C0CE
:101E00002091C4053091C5054091C6055091C70584
:101E10006D817E818F8198850E9460311816C4F093
:101E200082E090E0A0E0B0E08093E0069093E106CD
:101E3000A093E206B093E30680E090E0A0E8BFE361
:101E40008093A4069093A506A093A606B093A70638
:101E50008091E4069091E506A091E606B091E70630
:101E60000197A105B10509F046C02091D005309138
:101E7000D1054091D2055091D305C701B6010E940A
:101E80006031181614F40C947A0382E090E0A0E01C
:101E9000B0E08093E4069093E506A093E606B09345
:101EA000E70680E090E0A0E8BFE3F0CA2091D40507
:101EB0003091D5054091D6055091D7056D817E8131
:101EC0008F8198850E94163287FDC2CF81E090E015
:101ED000A0E0B0E08093E0069093E106A093E206D4
:101EE000B093E3061092A4061092A5061092A606DF
:101EF0001092A706ADCF2091E0053091E105409109
:101F0000E2055091E305C701B6010E94163287FF32
:101F100002C00C947A0381E090E0A0E0B0E08093EE
:101F2000E4069093E506A093E606B093E7061092C8
:101F3000B0061092B1061092B2061092B3060C943D
:101F40007A034090E4055090E5056090E6057090B6
:101F5000E7052D813E814F815885C501B4010E945E
:101F6000FB30A30192010E94163287FD25C020910B
:101F7000F4053091F5054091F6055091F7056D8116
:101F80007E818F8198850E9460311816ACF0109286
:101F90000407109205071092060710920707109287
:101FA0001707109200071092010710920207109273
:101FB0000307109216076DCE2D813E814F81588503
:101FC00069817A818B819C810E94FB309B01AC01ED
:101FD000C301B2010E94603118162CF12091F40562
:101FE0003091F5054091F6055091F7056D817E81A0
:101FF0008F8198850E9460311816ACF0109204070A
:102000001092050710920607109207071092170703
:102010001092000710920107109202071092030716
:102020001092160718C94090F0055090F105609085
:10203000F2057090F305A7019601C501B4010E9455
:10204000FB30A30192010E94163287FD23C020912C
:102050000006309101064091020650910306C70127
:10206000B6010E9460311816ACF01092040710926D
:102070000507109206071092070710921707109293
:1020800000071092010710920207109203071092A6
:10209000160739CAA701960169817A818B819C81D3
:1020A0000E94FB309B01AC01C301B2010E94603170
:1020B00018161CF12091000630910106409102068D
:1020C00050910306C701B6010E9460311816ACF0AA
:1020D0001092040710920507109206071092070746
:1020E0001092170710920007109201071092020732
:1020F00010920307109216074CCC80910007909124
:102100000107A0910207B09103070197A105B1054E
:1021100009F052C02091C8053091C9054091CA0507
:102120005091CB0569817A818B819C810E946031BD
:102130001816C4F082E090E0A0E0B0E080930007C1
:1021400090930107A0930207B093030780E090E00B
:10215000A0E8BFE38093A8069093A906A093AA06DF
:10216000B093AB068091040790910507A0910607F4
:10217000B09107070197A105B10509F042C0209170
:10218000CC053091CD054091CE055091CF05C501CC
:10219000B4010E946031181614F40C947A0382E0A2
:1021A00090E0A0E0B0E08093040790930507A0932F
:1021B0000607B0930707A5CC2091D8053091D90523
:1021C0004091DA055091DB0569817A818B819C8190
:1021D0000E94163287FDC6CF81E090E0A0E0B0E01B
:1021E0008093000790930107A0930207B093030721
:1021F0001092A8061092A9061092AA061092AB0699
:10220000B1CF2091DC053091DD054091DE05509184
:10221000DF05C501B4010E94163287FF02C00C948D
:102220007A0381E090E0A0E0B0E08093040790930F
:102230000507A0930607B0930707A9CC2D813E811F
:102240004F815885C701B6010E94FB302091E405FB
:102250003091E5054091E6055091E7050E94163260
:1022600087FD25C02091F4053091F5054091F605D4
:102270005091F7056D817E818F8198850E94603134
:102280001816ACF01092F4061092F5061092F606AD
:102290001092F706109213071092F0061092F106B2
:1022A0001092F2061092F30610921207F2CCA701D8
:1022B000960169817A818B819C810E94FB302091FB
:1022C000F0053091F1054091F2055091F3050E941F
:1022D000163287FD23C020910006309101064091FF
:1022E000020650910306C701B6010E94603118161C
:1022F000ACF01092F4061092F5061092F6061092C9
:10230000F706109213071092F0061092F106109241
:10231000F2061092F3061092120763C84090EC0583
:102320005090ED056090EE057090EF05A5019401C9
:10233000C701B6010E94FB30A30192010E94163230
:1023400087FD24C02091FC053091FD054091FE05DC
:102350005091FF05C501B4010E9460311816B4F018
:102360001092F4061092F5061092F6061092F706F7
:10237000109213071092F0061092F1061092F206D6
:102380001092F306109212070C944808A5019401CC
:1023900069817A818B819C810E94FB309B01AC0119
:1023A000C301B2010E94603118161CF12091FC0596
:1023B0003091FD054091FE055091FF05C501B40126
:1023C0000E9460311816ACF01092F4061092F506D7
:1023D0001092F6061092F706109213071092F0066C
:1023E0001092F1061092F2061092F3061092120764
:1023F000D0CA8091F0069091F106A091F206B091BA
:10240000F3060197A105B10509F052C02091C80556
:102410003091C9054091CA055091CB0569817A81F7
:102420008B819C810E9460311816C4F082E090E09C
:10243000A0E0B0E08093F0069093F106A093F2063E
:10244000B093F30680E090E0A0E8BFE38093A80695
:102450009093A906A093AA06B093AB068091F406C8
:102460009091F506A091F606B091F7060197A105A7
:10247000B10509F042C02091D0053091D1054091BD
:10248000D2055091D305C701B6010E9460311816DC
:1024900014F40C947A0382E090E0A0E0B0E0809322
:1024A000F4069093F506A093F606B093F706F9CCE0
:1024B0002091D8053091D9054091DA055091DB057E
:1024C00069817A818B819C810E94163287FDC6CFFB
:1024D00081E090E0A0E0B0E08093F0069093F106F8
:1024E000A093F206B093F3061092A8061092A906E4
:1024F0001092AA061092AB06B1CF2091E005309160
:10250000E1054091E2055091E305C701B6010E9443
:10251000163287FF02C00C947A0381E090E0A0E0BD
:10252000B0E08093F4069093F506A093F606B0937E
:10253000F706FDCC2D813E814F815885C501B40140
:102540000E94FB309B01AC01C301B2010E946031CB
:10255000181634F12091F4053091F5054091F605F7
:102560005091F7056D817E818F8198850E94603141
:102570001816B4F01092FC061092FD061092FE069A
:102580001092FF06109215071092F8061092F906A5
:102590001092FA061092FB06109214070C94F1099F
:1025A0004090E8055090E9056090EA057090EB05D1
:1025B00029813A814B815C81C701B6010E94FB30C1
:1025C000A30192010E94163287FD26C02091F805D2
:1025D0003091F9054091FA055091FB0569817A81A6
:1025E0008B819C810E9460311816B4F01092FC0619
:1025F0001092FD061092FE061092FF06109215072B
:102600001092F8061092F9061092FA061092FB0644
:10261000109214070C94480829813A814B815C81FF
:10262000C501B4010E94FB309B01AC01C301B201A2
:102630000E946031181634F12091F8053091F905A7
:102640004091FA055091FB0569817A818B819C81CB
:102650000E9460311816B4F01092FC061092FD062C
:102660001092FE061092FF06109215071092F806BF
:102670001092F9061092FA061092FB0610921407B7
:102680000C94830A8091F8069091F906A091FA06BD
:10269000B091FB060197A105B10509F050C020914A
:1026A000CC053091CD054091CE055091CF05C501A7
:1026B000B4010E9460311816C4F082E090E0A0E0FE
:1026C000B0E08093F8069093F906A093FA06B093D1
:1026D000FB0680E090E0A0E8BFE38093AC06909317
:1026E000AD06A093AE06B093AF068091FC06909124
:1026F000FD06A091FE06B091FF060197A105B10568
:1027000009F040C02091D0053091D1054091D2050B
:102710005091D305C701B6010E946031181614F418
:102720000C947A0382E090E0A0E0B0E08093FC0695
:102730009093FD06A093FE06B093FF06B2CB2091C6
:10274000DC053091DD054091DE055091DF05C501C6
:10275000B4010E94163287FDC8CF81E090E0A0E06E
:10276000B0E08093F8069093F906A093FA06B09330
:10277000FB061092AC061092AD061092AE061092B7
:10278000AF06B3CF2091E0053091E1054091E2051D
:102790005091E305C701B6010E94163287FF02C0BF
:1027A0000C947A0381E090E0A0E0B0E08093FC0616
:1027B0009093FD06A093FE06B093FF06B8CBA5014B
:1027C0009401C701B6010E94FB302091240630918C
:1027D000250640912606509127060E941A322B01A9
:1027E0003C01A501940169817A818B819C810E94C1
:1027F000FB302091340630913506409136065091D9
:1028000037060E941A329B01AC01C301B2010E943B
:10281000FC302B013C01A50194016D817E818F81EB
:1028200098850E94FB3020914406309145064091E6
:102830004606509147060E941A329B01AC01C30123
:10284000B2010E94FC3060939406709395068093C9
:10285000960690939706A7019601C501B4010E94C0
:10286000FB30209118063091190640911A065091BC
:102870001B060E941A322B013C01A70196016981B7
:102880007A818B819C810E94FB30209138063091A7
:10289000390640913A0650913B060E941A329B013C
:1028A000AC01C301B2010E94FC302B013C01A70125
:1028B00096016D817E818F8198850E94FB302091E9
:1028C00048063091490640914A0650914B060E94B5
:1028D0001A329B01AC01C301B2010E94FC3060932B
:1028E00098067093990680939A0690939B06298187
:1028F0003A814B815C81C501B4010E94FB3020917B
:102900001C0630911D0640911E0650911F060E9424
:102910001A322B013C0129813A814B815C81C7012C
:10292000B6010E94FB3020912C0630912D0640917B
:102930002E0650912F060E941A329B01AC01C30152
:10294000B2010E94FC302B013C0129813A814B816C
:102950005C816D817E818F8198850E94FB30209102
:102960004C0630914D0640914E0650914F060E9404
:102970001A329B01AC01C301B2010E94FC3060938A
:102980009C0670939D0680939E0690939F062D81D2
:102990003E814F815885C501B4010E94FB302091D2
:1029A00020063091210640912206509123060E9474
:1029B0001A322B013C012D813E814F815885C70180
:1029C000B6010E94FB3020913006309131064091D3
:1029D0003206509133060E941A329B01AC01C301AA
:1029E000B2010E94FC302B013C012D813E814F81C0
:1029F000588569817A818B819C810E94FB3020916E
:102A000040063091410640914206509143060E9493
:102A10001A329B01AC01C301B2010E94FC306093E9
:102A2000A0067093A1068093A2069093A3060C942F
:102A30000804EF92FF920F931F93CF93DF93E8E484
:102A4000F3E0CAE4D4E0D783C6832DE434E03093C6
:102A50008903209388038DE3E82E84E0F82EF58A1D
:102A6000E48A82ED93E097AF86AF6CEC73E07093ED
:102A70008D0360938C0381E394E090938B038093A8
:102A80008A0383E394E090938F0380938E038EEC0C
:102A900093E0909391038093900380ED93E0909363
:102AA000930380939203F093B303E093B203F5830F
:102AB000E48381E090E09983888349E154E0A9EDC3
:102AC000B3E0EA01B983A883C9EED3E0D0931C0434
:102AD000C0931B04C9EFD3E0D0931E04C0931D0420
:102AE000C9E0D4E0D0932004C0931F04C8E1D7E02C
:102AF000DB01CD93DC935187408742E552E0538759
:102B000042874FE454E0D9014D935C9300E010E01C
:102B100020E83FEB009346041093470420934804B9
:102B2000309349040DEC1CEC2CE43EE3D7010D93EB
:102B30001D932D933C93139761E274E006E91EE424
:102B400029E131EBDB010D931D932D933C931397FA
:102B500000E115E420E535E60093250410932604F2
:102B6000209327043093280409ED11E12EE33AEE77
:102B70000093290410932A0420932B0430932C04EF
:102B800009EA19E128E034EB00932D0410932E0498
:102B900020932F0430933004ACE3B3E0B383A283DB
:102BA000E6E3F3E01196FC93EE9327E532E0318300
:102BB0002083338322833583248327E334E01596EF
:102BC0003C932E93149713967C936E9312971796BB
:102BD0005C934E931697ECE2F3E04AE0DF011D921E
:102BE0004A95E9F7E2E2F3E0D901ED93FC932EE098
:102BF00030E0318320832AE531E0338322832EE3E2
:102C000031E03583248322E131E03783268326E0D7
:102C100031E031872087E4EBF5E0A6E7B1E04D91A4
:102C20005D916D917C91139740835183628373838F
:102C300050964D915D916D917C915397408B518B46
:102C4000628B738B90964D915D916D917C91939772
:102C500040A351A362A373A3D0964D915D916D9152
:102C60007C91D39740AB51AB62AB73AB4091B60153
:102C70005091B7016091B8017091B9014093F4058A
:102C80005093F5056093F6057093F70514964D91F2
:102C90005D916D917C91179744835583668377830B
:102CA00054964D915D916D917C915797448B558BC6
:102CB000668B778B94964D915D916D917C919797F2
:102CC00044A355A366A377A3D4964D915D916D91CE
:102CD0007C91D79744AB55AB66AB77AB4091BA01CB
:102CE0005091BB016091BC017091BD014093F8050A
:102CF0005093F9056093FA057093FB0518964D9172
:102D00005D916D917C911B97408751876287738796
:102D100058964D915D916D917C915B97408F518F4D
:102D2000628F738F98964D915D916D917C919B9779
:102D300040A751A762A773A7D8964D915D916D9159
:102D40007C91DB9740AF51AF62AF73AF4091BE0152
:102D50005091BF016091C0017091C1014093FC0589
:102D60005093FD056093FE057093FF051C964D91F1
:102D70005D916D917C911F97448755876687778712
:102D80005C964D915D916D917C915F97448F558FCD
:102D9000668F778F9C964D915D916D917C919F97F9
:102DA00044A755A766A777A7DC964D915D916D91D5
:102DB0007C91DF9744AF55AF66AF77AF4091C201CA
:102DC0005091C3016091C4017091C5014093000608
:102DD00050930106609302067093030620E4E6EC2C
:102DE000F1E0A4E1B6E001900D922A95E1F740E010
:102DF00050E064E871E4488359836A837B834C83A1
:102E00005D836E837F83488759876A877B874C877A
:102E10005D876E877F8790930907809308071092DC
:102E20004504DF91CF911F910F91FF90EF9008958E
:102E30000895EF92FF920F931F93CF93DF93EA01D0
:102E4000F901DC011496ED90FC90159712964D91C6
:102E50005C9113974E0D5F1D2881398118960D9155
:102E60001C9119970217130730F00D911C911197BF
:102E7000012B09F441C08A01021B130BDC011896D7
:102E80008D919C918E199F09800F911F861797072E
:102E9000DCF1C901860F971F8417950778F47183B9
:102EA000608333832283158214821782168288817D
:102EB0009981680F791F7983688316C01183008315
:102EC00033832283601B710B7583648390E080E001
:102ED0001616170614F49E2D8F2D96838783D7011F
:102EE000A60FB71FB983A88380E0DF91CF911F9110
:102EF0000F91FF90EF90089518968D919C91821BF1
:102F0000930B861797075CF681E0EFCFCF92DF92A5
:102F1000EF92FF92CF93DF936B0184E4869FE001F1
:102F2000879FD00D1124C95ADB4F8AA99BA900970E
:102F300021F00E943E361BAA1AAA84E48C9DF0015F
:102F40008D9DF00D1124E95AFB4F86A997A9009792
:102F500011F00E943E3684E48C9DF0018D9DF00DB1
:102F60001124E95AFB4F138A128A168A178A108E87
:102F7000118E128E138E148E158E168E178E10A231
:102F800011A281E090E093A382A315A214A216A23D
:102F900017A210A611A613A612A615A614A616A669
:102FA00017A610AA11AA13AA12AA15AA14AA17AA38
:102FB00016AA11AE10AE12AE13AE14AE15AEDF01EE
:102FC000DE961D921D921D921C921397EE5BFF4F91
:102FD00011821082DF91CF91FF90EF90DF90CF9020
:102FE0000895CF93DF93FB01DC016D917C91DB01B0
:102FF0001696CD91DC918081918123E0880F991FF5
:103000002A95E1F7AA81BB81A80FB91F8D919C91E8
:10301000119724853585220F331FEB016A817B814F
:10302000EB01C20FD31F0990D881C02D14962D91AA
:103030003C9161E070E0232B11F062E070E0C69FEC
:103040009001C79F300DD69F300D1124A085B1850A
:103050002A9FB0012B9F700D3A9F700D1124A481FF
:10306000B5812A9FF0012B9FF00D3A9FF00D11249E
:103070008E0F9F1FFA019183808373836283DF9198
:10308000CF9108952F923F924F925F926F927F92CD
:103090008F929F92AF92BF92CF92DF92EF92FF9268
:1030A0000F931F93CF93DF9300D000D000D0CDB704
:1030B000DEB7DC011496ED91FC910190F081E02DDA
:1030C000808591859A838983A281B381BC83AB83F8
:1030D000FB0181909190A190B190C12CD12C7601EF
:1030E000C814D904EA04FB04CCF026960FB6F89471
:1030F000DEBF0FBECDBFDF91CF911F910F91FF902B
:10310000EF90DF90CF90BF90AF909F908F907F9087
:103110006F905F904F903F902F900895448055801E
:10312000668077804085518562857385CF014096A2
:103130009E838D83A081B1819D0183E0220F331F87
:103140008A95E1F7A981BA8112968D919C91D90156
:10315000A80FB91F2D903C9011970484F585E02DA0
:10316000EE0FFF1F8B819C81E80FF91F0190F0810A
:10317000E02D14968D919C91892B41F581E090E092
:10318000E89F9001E99F300DF89F300D1124249F96
:103190008001259F100D349F100D1124249DC00126
:1031A000259D900D349D900D1124A8016D817E8187
:1031B000820D931D0E94C736ED81FE81E00FF11F45
:1031C0009FEFC91AD90AE90AF90A8ACF82E090E08A
:1031D000D7CFCF93DF93DB01A65CBD4F2C91222389
:1031E00069F024E4269FF001279FF00D1124E95A8D
:1031F000FB4FEF0119922A95E9F71C9224E4269FD0
:10320000F001279FF00D1124E95AFB4F148215821B
:10321000168217821186108613861286118A108AEA
:1032200017861686DF91CF9171CE2F923F924F92E3
:103230005F926F927F928F929F92AF92BF92CF9246
:10324000DF92EF92FF920F931F93CF93DF93CDB74F
:10325000DEB728970FB6F894DEBF0FBECDBF24E4CB
:10326000269FF001279FF00D1124E95AFB4F04819E
:10327000158126813781012B022B032B09F4B7C05E
:103280002A016B017C0110E000E0812C912C54019B
:103290003F019F01285F3F4F3C832B83CF01049662
:1032A0009E838D83AB81BC818D919C91ED81FE814C
:1032B000408151816281738184169506A606B70606
:1032C000E4F10E943E36D3011A968D919C91892B90
:1032D00009F07EC084E48C9DD0018D9DB00D112439
:1032E000A95ABB4FBC83AB8350968D919C910E9491
:1032F0003E36EB81FC81868597850E943E36C7016C
:10330000B60104DEC701B60128960FB6F894DEBFF9
:103310000FBECDBFDF91CF911F910F91FF90EF9026
:10332000DF90CF90BF90AF909F908F907F906F90E5
:103330005F904F903F902F904CCFFC01E00FF11F1A
:1033400092819983A381AA839F83A887312C212C02
:103350002414350464F089819A810E943E36EFEF8F
:103360008E1A9E0AAE0ABE0A0C5F1F4F9BCFAF811A
:10337000B885ED91FD91B887AF83309759F084817E
:1033800095810E943E36EF81F88532978081918148
:103390000E943E36BFEF2B1A3B0ADACF800F911FF7
:1033A000FC01848195810E943E362B813C812F5FF8
:1033B0003F4F3C832B83025F1F4FF501808191813A
:1033C0002B813C81241535054CF30E943E3682CF7B
:1033D00010E000E01C821B8224E42C9DC0012D9D86
:1033E000900D1124DC01AF59BB4F5D01E6CF28964B
:1033F0000FB6F894DEBF0FBECDBFDF91CF911F9106
:103400000F91FF90EF90DF90CF90BF90AF909F9083
:103410008F907F906F905F904F903F902F90089586
:1034200024E4269FF001279FF00D1124E95AFB4F59
:10343000828993890497029758F485E090E0938BF2
:10344000828B8FEF9FEFDC01828F938FA48FB58FDC
:1034500008952F923F924F925F926F927F928F9238
:103460009F92AF92BF92CF92DF92EF92FF920F9313
:103470001F93CF93DF93CDB7DEB7AA970FB6F8941B
:10348000DEBF0FBECDBF9AA389A37E8B6D8B1A01C1
:10349000098B1A8B2B8B3C8B84E429893A89829F78
:1034A0006001839FD00C11248601095A1B4F898922
:1034B0009A89AB89BC89F80180839183A283B38305
:1034C000AB01BC01CD01B1DED601A55ABB4F84E0F2
:1034D000F10101900D928A95E1F7F4E02F0E311C75
:1034E00064E070E0D80114968D919C910E9488351B
:1034F000F80191878087892B09F0F5C04D895E8995
:1035000069897A898B899C8990DE81E0AA960FB6B9
:10351000F894DEBF0FBECDBFDF91CF911F910F9109
:10352000FF90EF90DF90CF90BF90AF909F908F90E3
:103530007F906F905F904F903F902F900895A9A536
:10354000BAA58D919C91E98DFA8DE80FF91FF88F3E
:10355000EF8BD1018D919C91880F991FA9A1BAA1E0
:10356000ED91FC91E80FF91F80819181EF89F88D31
:1035700091838083D10114962D913D914D915C9161
:1035800017972BA33CA34DA35EA362E070E08D8947
:103590009E890E948835EF89F88D93838283892BD9
:1035A00009F4ACCFF8E02F0E311C412C512C320124
:1035B0002BA13CA14DA15EA14216530664067506DF
:1035C0009CF02B8D3C8D4D8D5E8D2F5F3F4F4F4F6F
:1035D0005F4F2B8F3C8F4D8F5E8F498D5A8D4C5F87
:1035E0005F4F5A8F498F90C0610124E0C20ED11CF9
:1035F000D101ED90FC90EE0CFF1CEF89F88D8281DB
:103600009381E80EF91E68E070E081E090E00E948E
:1036100088358C01D7018D939C93892B09F46ECF4B
:1036200084E0F601D80101900D928A95E1F7B8E0A7
:103630002B0E311CF80180819181A281B381181673
:1036400019061A061B06DCF464E070E00E94883557
:10365000D80115969C938E931497892B09F44ECF1D
:10366000D12CC12C812C912C5401F80180819181A5
:10367000A281B38188169906AA06BB0634F0FFEF33
:103680004F1A5F0A6F0A7F0A93CFF801E480F58032
:10369000EC0CFD1C80E1F101DE01119601900D9210
:1036A0008A95E1F7F0E12F0E311CA701BE016F5F93
:1036B0007F4FA9A1BAA114968D919C9192DCF8013B
:1036C00086819781D70112962D913C91820F931F8D
:1036D00097838683BFEF8B1A9B0AAB0ABB0AE4E091
:1036E000CE0ED11CC2CF1A8E198E1B8E1C8E1D8E33
:1036F0001E8E18A30F8FA8014C5F5F4F58A74FA3D2
:10370000C80108969AA789A7EFA1F8A580819181A1
:10371000A281B3812B8D3C8D4D8D5E8D281739078D
:103720004A075B070CF40BCF6EE070E08D899E8931
:103730000E948835AF8DB8A11B969C938E931A97E3
:10374000B12CA12CD12CC12CF12CE12C24E4E98941
:10375000FA892E9FC0012F9F900D11249C012F5993
:103760003B4F388F2F8B88248394912C4D895E8911
:10377000C416D50654F184E4A989BA898A9F8001C8
:103780008B9F100D1124095A1B4FF80115861486C2
:10379000C70133E0880F991F3A95E1F70E94A235DF
:1037A000D80151969C938E935097892B09F4A6CEFD
:1037B000C701880F991F0E94A235F8019787868755
:1037C000892B09F49BCE80E0A1CED1014D905D9074
:1037D0006D907D901D0177FC91CEEF89F88D008171
:1037E00011810A0D1B1DD80111969C928E924114D5
:1037F00051046104710429F1C2010E94A235F8014B
:1038000095838483892B09F479CEF801538242820F
:10381000848195819783868391878087138612861A
:1038200081E090E045284628472811F490E080E0A8
:10383000E80EF91EFFEFCF1ADF0A2EE0A20EB11C30
:1038400095CF15961C921E921497DFCF2F923F9220
:103850004F925F926F927F928F929F92AF92BF92A0
:10386000CF92DF92EF92FF920F931F93CF93DF934C
:10387000CDB7DEB76A970FB6F894DEBF0FBECDBFE7
:103880009E8B8D8B49015A0184E4829F7001839F36
:10389000F00C11249701295A3B4F6901FB018081EB
:1038A0009181F901958B848BD701A359BB4FFB0103
:1038B000349684E001900D928A95E1F7D701AF58D4
:1038C000BB4FFB01389684E001900D928A95E1F799
:1038D000D701AB58BB4FFB013C9684E001900D92A1
:1038E0008A95E1F7D701AB57BB4FFB01709684E097
:1038F00001900D928A95E1F78B010C5E1F4FF90143
:1039000086A597A5A0A9B1A918161906DCF5880FF8
:10391000991F880F991F0E94A235F60193AB82ABC5
:10392000892B09F4D3C0312C212C412C512C32018C
:103930009601225D3F4F388F2F8BC601C2969A8F1A
:10394000898FF496FC8BEB8BB301A2012FEF421A07
:10395000520A620A720AEF89F88D80819181A281F0
:10396000B381481759076A077B070CF47BC0F6013F
:1039700084A995A90E94A235F60197AB86AB892B45
:1039800009F4A4C0F80180819181A281B38124E46B
:10399000289DF001299DF00D1124E95AFB4FAC013F
:1039A000BD014D7F21E030E0452B462B472B11F028
:1039B00030E020E033A322A324E4289DF001299DD8
:1039C000F00D1124E95AFB4F0197A109B10921E03B
:1039D00030E00297A105B10510F030E020E035A3FA
:1039E00024A3D701A358BB4FF801349684E001907B
:1039F0000D928A95E1F784E4889DF001899DF00D90
:103A00001124E95AFB4F868D978DA0A1B1A1B7FF74
:103A100058C0B095A095909581959F4FAF4FBF4FDF
:103A200082AF93AFA4AFB5AF168E178E10A211A2BE
:103A300080E06A960FB6F894DEBF0FBECDBFDF916F
:103A4000CF911F910F91FF90EF90DF90CF90BF909B
:103A5000AF909F908F907F906F905F904F903F902E
:103A60002F900895E98DFA8D808191819C01220D1E
:103A7000331D3A8B298B80E1F801DE01119601900C
:103A80000D928A95E1F7005F1F4F49895A89BE015F
:103A90006F5F7F4FED89FE8984819581A2DAEB8982
:103AA000FC8980819181E989FA8922813381820FA1
:103AB000931FEB89FC8991838083F4E02F0E311CE6
:103AC00043CF12AE13AE14AE15AEB2CFC501B401E2
:103AD0001DDA81E0AECFCF92DF92EF92FF92CF93CB
:103AE000DF931092DF0424E4269FF001279FF00D5E
:103AF0001124E95AFB4F15A614A630E020E0D12C82
:103B0000C12CDF011A96C1E0D0E0C416D506F4F04E
:103B100024E4269FF001279FF00D1124E95AFB4F62
:103B200013A612A611AE10AEDF01DE961D921D92F5
:103B30001D921C92139782E090E0938B828BDF9111
:103B4000CF91FF90EF90DF90CF900895ED91FC9191
:103B50001197E20FF31FE280F3801E141F0454F448
:103B6000E480F580F782E682F186E086138612868D
:103B7000D183C083EFEFCE1ADE0A225F3F4FC5CF5D
:103B800024E4269FF001279FF00D1124E95AFB4FF2
:103B9000138A128A4ACB24E4269FF001279FF00D56
:103BA0001124E95AFB4F8289938981309105C8F02D
:103BB0008530910518F0059769F008958FEF9FEF14
:103BC000DC01828F938FA48FB58F85E090E0938B7B
:103BD000828B08958FEF9FEFDC01828F938FA48FEC
:103BE000B58F089524E4249FD001259FB00D1124A2
:103BF000A95ABB4F2EE0AC01249FC001259F900D18
:103C000011241A96ED91FC91E80FF91F81E0809341
:103C1000DF04828593859187808740855185268141
:103C2000378181E090E04217530711F090E080E087
:103C30009183808308952F923F924F925F926F926B
:103C40007F928F929F92AF92BF92CF92DF92EF922C
:103C5000FF920F931F93CF93DF93CDB7DEB7C0557D
:103C6000D1090FB6F894DEBF0FBECDBF9EAF8DAFAA
:103C70004BA75CA76DA77EA76801790184E4809FAC
:103C8000F001819FF00D1124E95AFB4F2285338505
:103C900023963FAF2EAF239782899389029761F4D1
:103CA00086A597A5A0A9B1A9892B8A2B8B2BC9F52D
:103CB00084E090E0938B828B84E48C9DF0018D9D59
:103CC000F00D1124E95AFB4F8289938982309105C6
:103CD00009F037C282AD93ADA4ADB5AD22242394D3
:103CE000312C181619061A061B060CF42FC2C05BDD
:103CF000DF4F0FB6F894DEBF0FBECDBFDF91CF917F
:103D00001F910F91FF90EF90DF90CF90BF90AF90F9
:103D10009F908F907F906F905F904F903F902F90EB
:103D20000895848995894DAD5EAD8417950721F678
:103D300006A917A918AE1FAA1BAA1CAA1DAA1EAA6B
:103D40001F01CF018E9627969FAF8EAF2797DF0179
:103D5000D2962996BFAFAEAF2997F8962B96FFAFB4
:103D6000EEAF2B9791012A5D3F4F2D963FAF2EAFBF
:103D70002D97A1014E5D5F4F2F965FAF4EAF2F97EE
:103D80000A9761969FAF8EAF61972796EEADFFAD14
:103D9000279780819181A281B3812BA93CA94DA94C
:103DA0005EA9281739074A075B0744F081E090E0D5
:103DB000D101D9969C938E93D8977ECF2996AEAD9C
:103DC000BFAD2997ED91FC912FA938ADE20FF31FFC
:103DD000428153815AAF49AF50815FAF81812196B3
:103DE0008FAF21972B96AEADBFAD2B978D919C9148
:103DF000892B21F12D96EEADFFAD2D97808091801E
:103E0000A280B3801AAB09AB5FA72196FFAD2197C3
:103E1000F8AB29AD3AAD3695279536952795259679
:103E20003FAF2EAF25971CAE1BAE2596AEADBFADF6
:103E30002597EBADFCADEA17FB070CF149AD5AAD88
:103E40006FAD21967FAD2197C8010E94C73689AD1D
:103E50009AAD8C7F080F191F2BA93CA94DA95EA90B
:103E60002F5F3F4F4F4F5F4F2BAB3CAB4DAB5EAB2C
:103E70004FA958AD4C5F5F4F58AF4FAB86CF2F96D1
:103E8000AEADBFAD2F978D919C91892B71F1EFA5B0
:103E9000F8A94080518062807380A3019201C5011E
:103EA000B4010E946031181664F0A9A9BAA92D9135
:103EB0003D914D915C91C501B4010E9416321816D6
:103EC000BCF1A3019201C501B4010E94603187FFDA
:103ED0000CC0E9A9FAA92081318142815381C50131
:103EE000B4010E946031882319F16196AEADBFAD77
:103EF00061978D919C91892B09F445C0EFA5F8A994
:103F00004080518062807380A3019201C501B40199
:103F10000E94163218161CF5A9A9BAA92D913D9137
:103F20004D915C91C501B4010E94603118165CF19D
:103F300084E48C9DF0018D9DF00D1124E95AFB4F16
:103F4000868D978DA0A1B1A1892B8A2B8B2B69F12E
:103F500083E090E0938B828B81E090E02CC0A30102
:103F60009201C501B4010E94603181110CC0E9A920
:103F7000FAA92081318142815381C501B4010E9497
:103F8000603187FDD5CF2BAD3CAD2F5F3F4F3CAFB0
:103F90002BAF49A95AA94C5F5F4F5AAB49AB8FA5CC
:103FA00098A9049698AB8FA740CF84E090E0938BBC
:103FB000828B86AD97AD93A782A77ECEEBADFCAD8D
:103FC00080819181F401EE0FFF1FEE0FFF1FE80FBC
:103FD000F91FA081B1818C9181110AC0FFEF8F1A66
:103FE0009F0AAF0ABF0A8DA29EA2AFA2B8A68FC138
:103FF0008330A1F30280F381E02D2FA938ADE20FC9
:10400000F31F808191819AAB89AB892B39F34F5F84
:104010005F4F6F4F7F4F49875A876B877C879E0121
:10402000235E3F4FAE01475D5F4F64E070E0C80123
:104030000E9419178111D0C18D819E81AF81B885F1
:104040000496A11DB11D8D839E83AF83B8874D8DCE
:104050005E8DBE016B5D7F4F8F8D98A10E94C7362C
:104060008BA19CA1009761F06D8D7E8DA5E2B0E0E3
:10407000AC0FBD1F6A0F7B1F49A15AA10E94C73612
:104080001CAA1BAA412C512C3201E9A9FAA9808152
:104090009181A281B381481659066A067B060CF00D
:1040A0009DCFE9A9FAA9848195812BA93CA9280F64
:1040B000391F38AB2FA7D90112966D917C919E01C3
:1040C000235E3F4FAE01475D5F4FC8010E94191745
:1040D000811182C1EFA5F8A982819381092E000C7C
:1040E000AA0BBB0B4D815E816F817885840F951F74
:1040F000A61FB71F8D839E83AF83B88760817181B0
:104100004D8D5E8D8F8D98A10E94C7368BA19CA18D
:10411000009761F0AFA5B8A96D917C912D8D3E8D72
:10412000620F731F49A15AA10E94C736BFEF4B1AF5
:104130005B0A6B0A7B0AEBA9FCA93496FCABEBABE0
:10414000A4CF312C212C049709F0D1CD8EE0EDAD18
:10415000FEAD8E9F80018F9F100D112423962EADF2
:104160003FAD2397020F131FD80112964D915C911A
:1041700013974115510509F4BACD16968D919C916E
:104180009AA789A780E1FE013196DF011D928A95E9
:10419000E9F7C98ADA8AEB8AFC8A2114310409F426
:1041A00058C084E48C9DF0018D9DF00D1124E95AD6
:1041B000FB4FDF01DE968D909D90AD90BC9082AD5F
:1041C00093ADA4ADB5AD88169906AA06BB0609F055
:1041D00040C0F801848195810084F185E02D3496FA
:1041E00024E0DE01559601900D922A95E1F72D8984
:1041F0003E89285F3F4F3E8B2D8BD80118966D91DD
:104200007C911997260F371F19963C932E93189778
:1042100018962D913C911997480F591F241B350B67
:1042200037FD06C0820F931F19969C938E931897A3
:1042300084E48C9DF0018D9DF00D1124EB56FB4F15
:10424000B1E08B1A9108A108B10880829182A28204
:10425000B3829E012B5E3F4FAE01475D5F4F64E12D
:1042600070E0C8010E9419178111B6C08CE090E07F
:10427000A0E0B0E08D839E83AF83B8879E01235E6C
:104280003F4FAE01475D5F4F64E070E0C8010E94A0
:1042900019178111A1C080E190E0A0E0B0E08D830A
:1042A0009E83AF83B8874D8D5E8DBE01655D7F4F68
:1042B0008F8D98A10E94C7368BA19CA1009761F0B9
:1042C0006D8D7E8DEBE2F0E0EC0FFD1F6E0F7F1F1A
:1042D00049A15AA10E94C7361DA21EA21FA218A65C
:1042E0002DAD3EAD220F331F38AF2FAB24E42C9DF4
:1042F000C0012D9D900D1124895A9B4FAC014C5F3C
:104300005F4F5AAF49AFDC011896BCAFABAF8DA081
:104310009EA0AFA0B8A449855A856B857C85E9AD80
:10432000FAAD80819181A281B38188169906AA068F
:10433000BB060CF443CE452B462B472B09F4D7CCB8
:104340008AE190E0A0E0B0E089839A83AB83BC83EC
:104350002DAD3EADC901330FAA0BBB0B8D879E87D8
:10436000AF87B88B4D895E89BE016F5F7F4F8F89A4
:10437000988D0E94C7368B8D9C8D009761F06D895A
:104380007E8941E050E04C0F5D1F640F751F498D21
:104390005A8D0E94C73689A59AA5D80117969C9375
:1043A0008E93169711961C921E92232809F49FCC87
:1043B00084E48C9DF0018D9DF00D1124EB56FB4F94
:1043C00080819181A281B3810196A11DB11D80835D
:1043D0009183A283B3838BCC232809F088CC84E417
:1043E0008C9DF0018D9DF00D1124E95AFB4F81E069
:1043F00090E095A784A785E090E0938B828B77CCA3
:10440000CF92DF92EF92FF920F931F9324E4269FA7
:10441000F001279FF00D1124E95AFB4F22893389BF
:104420002115310509F452C06B017C0121303105A1
:10443000B1F482A593A59C012F5F3F4F33A722A71C
:10444000092E000CAA0BBB0B028D138D248D358D0C
:1044500080179107A207B307C9F5C7013CDB84E4C5
:104460008C9DF0018D9DF00D1124E95AFB4F82893E
:104470009389039759F582A593A59C012F5F3F4F20
:1044800033A722A7092E000CAA0BBB0B468D578D14
:1044900060A171A184179507A607B707BCF086AD88
:1044A00097AD93A782A784E090E0938B828B82AD37
:1044B00093ADA4ADB5AD181619061A061B0634F453
:1044C000EE5BFF4F81E090E0918380831F910F911D
:1044D000FF90EF90DF90CF90089524E4269FF001A5
:1044E000279FF00D1124E95AFB4F82899389049785
:1044F000B1F482A593A5019693A782A7092E000C7B
:10450000AA0BBB0B46895789608D718D841795075F
:10451000A607B70721F485E090E0938B828B08957E
:104520002F923F924F925F926F927F928F929F92C3
:10453000AF92BF92CF92DF92EF92FF920F931F93B1
:10454000CF93DF93CDB7DEB72E970FB6F894DEBFCB
:104550000FBECDBFDC0149835A836B837C83290165
:1045600084E4849FF001859FF00D1124E95AFB4FEC
:1045700022883388C1010497029708F0D5C01196AC
:104580001C921E9213961C921E92129715861486E8
:10459000912C812C90E080E08F019F01205F3F4FA4
:1045A00038872F833F013CE0630E711CBF01625FBF
:1045B0007F4F7A8769873A96FC87EB87EF81F8858A
:1045C00020813181F30140815181E985FA85A08004
:1045D000B180841595050CF445C011965C934E93FB
:1045E00013963C932E9312971596BC92AE92149705
:1045F000452BF9F4F5E02F163104D9F41092DF04BD
:10460000F801828D938DA48DB58DAE014F5F5F4F04
:1046100064E070E08F3F9F4FAF4FBF4F09F079C00C
:1046200080E290E0D5D469817A818B819C81A2015E
:10463000A7DA2E960FB6F894DEBF0FBECDBFDF917E
:10464000CF911F910F91FF90EF90DF90CF90BF908F
:10465000AF909F908F907F906F905F904F903F9022
:104660002F900895EB85FC8560817181FB01E80D39
:10467000F91DFE87ED8760817181672B89F5E084E4
:10468000F184628173817E836D83668177816A01A3
:10469000E3E0CC0CDD1CEA95E1F72C0D3D1D440F49
:1046A000551F4A0D5B1DFA0191838083F301408100
:1046B00051814F5F5F4F51834083F901F382E28262
:1046C000ED85FE8573876287E616F70670F46E192E
:1046D0007F09F90171836083158214821782168223
:1046E0000196FEE08F0E911C69CFED85FE85C4809A
:1046F000D5804D815E814C0D5D1D4E195F09F9011C
:10470000518340836C197D0975836483D782C68287
:10471000E7CF8FE190E05CD4F80113A612A681E008
:1047200090E0938B828B85CF1586148611961C9210
:104730001E9213961C921E9212977BCFEF92FF92BD
:104740000F931F93CF93DF937C018B01EA011ED55A
:1047500081111BC080913C0290913D020497F9F4B5
:10476000DF91CF911F910F91FF90EF90089528ED69
:1047700038EB45E050E060E070E0CB01BDD7AE0122
:10478000B801C701C7D7C80190D78091E0049091C4
:10479000E104892BF9F68881882349F3DBCF83E094
:1047A00090E090933D0280933C02DACFCF93DF9369
:1047B00020913C0230913D022430310531F0EB0173
:1047C000A9D7CE01DF91CF9170C7DF91CF91089526
:1047D0000C94852F0C947A2F0C94682F76C70C9428
:1047E0000D2F089570E060E090E080E0AAC4089585
:1047F000AF92BF92CF92DF92EF92FF920F931F93EF
:10480000CF93DF9300D0CDB7DEB75C018B01690198
:104810007A0190E080E0C114D104E104F10469F46C
:104820000F900F90DF91CF911F910F91FF90EF901C
:10483000DF90CF90BF90AF9008959C2D8D2DC11427
:10484000D10421E0E206F10410F09FEF8FEF9E010A
:104850002F5F3F4F492F582FB801C5010E940E30DE
:104860008F3F9807E9F229813A81C21AD30AE108F9
:10487000F108020F131FCFCF40E855E260E070E06F
:1048800090E080E000C026E087E195E00C942734BA
:104890001F920F920FB60F9211242F933F934F93B5
:1048A0005F936F937F938F939F93AF93BF93EF9398
:1048B000FF938BEC93EF90938500809384000E948C
:1048C0004730FF91EF91BF91AF919F918F917F9171
:1048D0006F915F914F913F912F910F900FBE0F906D
:1048E0001F9018958BEC93EF909385008093840034
:1048F000AFE6B0E08C918E7F8C93E0E8F0E08081B1
:104900008C7F8083E1E8F0E08081877E80838081F6
:104910008560808380818D7F80838C9181608C9382
:10492000089581E008958F929F92AF92BF92CF92A7
:10493000DF92EF92FF920F931F93CF93DF935C016F
:104940007B018A01C1E0D0E0CE15DF05CCF081E02B
:10495000F5018083B801C7010E94AF2FF501928352
:10496000818390E080E0DF91CF911F910F91FF90C4
:10497000EF90DF90CF90BF90AF909F908F90089571
:104980006E018FEFC81AD80AFE01EE0FFF1FE00F6D
:10499000F11F808091808114910469F066EC72E0CF
:1049A000C4010E94D736892B41F4CC0FDD1FC00F04
:1049B000D11F19821882E601C7CF69EC72E0C401E9
:1049C0000E94D736892BB9F7EC14FD04A1F36E01D0
:1049D000E2E0CE0ED11CCC0FDD1FC00FD11F19821B
:1049E00018821B821A82E7CF82EE94E0089580E05D
:1049F00008950F931F93CF93DF938B01BA01E901C1
:104A0000198218829801012E000C440B550BFC01F1
:104A100081819281EDDE019641F01983088380E067
:104A2000DF91CF911F910F91089581E0F9CF0F93FE
:104A30001F93CF93DF9300D0CDB7DEB7FB018A0180
:104A4000B9019E012F5F3F4FAF01FC01818192812F
:104A50000E94C32F019669F089819A81F8019183A0
:104A6000808380E00F900F90DF91CF911F910F9185
:104A7000089581E0F7CFFC0180810895089508959D
:104A800081E0FB01808380E00895089510920A057B
:104A90000895FC01818192810C94A72FCF93DF931D
:104AA000CDB7DEB72A970FB6F894DEBF0FBECDBFE5
:104AB000B0E0A0E089839A83AB83BC83CB01770FFE
:104AC000AA0BBB0B8D839E83AF83B8879E01275FA4
:104AD0003F4FAE014F5F5F4F68E070E08091F90497
:104AE0009091FA0486DF811110C081E029853A8512
:104AF0002830310509F480E02A960FB6F894DEBF1D
:104B00000FBECDBFDF91CF91089581E0F5CF0F9318
:104B10001F93CF93DF9300D0CDB7DEB78B019E01FB
:104B20002F5F3F4FAC018091F9049091FA0461DF4F
:104B300081110EC081E029813A812017310709F4E3
:104B400080E00F900F90DF91CF911F910F9108950A
:104B500081E0F7CFCF93DF93EC011092FD04109228
:104B6000FC041092090510920805AC0160E070E0A9
:104B7000CB0106D8AE0161E070E080E090E000D8A3
:104B80008091F9049091FA04DF91CF917ECF4F92FA
:104B90005F926F927F928F929F92AF92BF92CF92CD
:104BA000DF92EF92FF920F931F93CF93DF9300D08A
:104BB000CDB7DEB78C017C0197FF03C087E0E80E1C
:104BC000F11C23E0F594E7942A95E1F7C80168E029
:104BD00070E00E9439356C010E5F1F4F8091F70421
:104BE0009091F80480179107D4F48091F504909186
:104BF000F604009731F00E943E361092F8041092AD
:104C0000F704C8010E94A2359093F6048093F5043E
:104C1000892B09F482C01093F8040093F70410E084
:104C200000E047C1412C512C3201B12CA12C95013F
:104C300022503B4FAE014F5F5F4F61E070E08091CB
:104C4000F9049091FA04F3DE811149C0EFEF4E1A96
:104C50005E0A6E0A7E0AF0E94F16FFE55F06F1E094
:104C60006F06710444F060910805709109058DEE9E
:104C700090E014DFD7CF89819A81A80EB91E8AE00F
:104C8000A816B10409F043C049E050E070E060E0CC
:104C90008EEF94E00E94393060910805709109050B
:104CA000882391F18091060590E08617970781F49B
:104CB000BC018EEE90E0F2DE80910805909109052E
:104CC0000196992790930905809308050F5F1F4F60
:104CD0000E151F050CF4A6CFCD2809F07CC090E07E
:104CE00080E00F900F90DF91CF911F910F91FF9077
:104CF000EF90DF90CF90BF90AF909F908F907F907C
:104D00006F905F904F9008958FEE90E0B2CFEAE001
:104D1000AE16B1040CF48BCFDBCF10E000E0D8CF9F
:104D20000A30110531F549E050E070E060E08EEFA7
:104D300094E00E943930609108057091090588233C
:104D4000A9F08091060590E08617970741F6BC010F
:104D50008EEE90E0A3DE8091080590910905019602
:104D600099279093090580930805B9CF8FEE90E0BD
:104D70002BC00A3011050CF0B2CF980122503B4FE6
:104D8000AE014F5F5F4F61E070E08091F904909158
:104D9000FA044DDE8111A3CF89819A81080F191F72
:104DA000FFEFCF1ADF0AEF0AFF0A80E9C8168FE586
:104DB000D80681E0E806F1040CF4B2CF6091080552
:104DC000709109058DEE90E069DE10E000E0C12CE5
:104DD000D12C7601D2CFC12CD12C760110E000E08D
:104DE000CCCF412C512C3201B12CA12C480193E0A5
:104DF000880C991C9A95E1F72091F5043091F604FE
:104E0000C501880D991D280F391FAE014F5F5F4FF7
:104E100061E070E08091F9049091FA0408DE81115C
:104E20005ECFEFEF4E1A5E0A6E0A7E0A60910805A9
:104E3000709109058DEE90E0F0E94F16FFE55F06F1
:104E4000F1E06F0671040CF043C089819A81A80ECD
:104E5000B91E8AE0A816B10409F041C049E050E04B
:104E6000B4018091F5049091F6040E94393060916C
:104E7000080570910905882349F18091F504909106
:104E8000F604880E991EF401808590E08617970736
:104E900081F4BC018EEE90E001DE809108059091D6
:104EA00009050196992790930905809308050F5FDE
:104EB0001F4F0E151F050CF494CFC114D10409F037
:104EC00081C08091F5049091F6040BCF8FEE90E0B5
:104ED000E5DD412C512C3201B12CA12C8DCFFAE013
:104EE000AF16B1040CF488CFE4CF8FEE90E0D6DD9E
:104EF000F12CE12C812C912C5401970122503B4F35
:104F0000AE014F5F5F4F61E070E08091F9049091D6
:104F1000FA048DDD8111E3CE8FEF881A980AA80A72
:104F2000B80A60910805709109058DEE90E0E0E9FE
:104F30008E16EFE59E06E1E0AE06B104C4F6898167
:104F40009A81E80EF91EFAE0EF16F104A9F549E09E
:104F500050E070E060E08EEF94E00E9439306091A4
:104F6000080570910905882309F4BFCF80910605D3
:104F700090E08617970709F0A4CFBC018EEE90E071
:104F80008DDD83E0000F111F8A95E1F78091F50414
:104F90009091F604A6016EEF74E0800F911F0E94BD
:104FA000C73680910805909109050196992790933D
:104FB00009058093080585CF8AE0E816F1040CF412
:104FC0009CCF7FCF812C912C5401F12CE12C95CFDB
:104FD000CF92DF92EF92FF920F931F93CF93DF93C5
:104FE0001F92CDB7DEB76C017B018A01452B39F0EA
:104FF000AB0170E060E0C8010E9435308983B701E1
:10500000C6014CDD81110DC00115110551F0B7012C
:10501000C8017DDD811105C061E070E0CE0101961F
:1050200076DD0F90DF91CF911F910F91FF90EF9060
:10503000DF90CF900895CF92DF92EF92FF92CF93BF
:10504000DF93CDB7DEB728970FB6F894DEBF0FBE5B
:10505000CDBF6B01F12CE12CC982DA82EB82FC829C
:105060002D833E834F835887AE014F5F5F4F68E0CB
:1050700070E0AEDF28960FB6F894DEBF0FBECDBF4E
:10508000DF91CF91FF90EF90DF90CF9008958F92B6
:105090009F92AF92BF92CF92DF92EF92FF920F93C7
:1050A0001F93CF93DF937C01EB01CA0169016FDD90
:1050B0000097B1F42FEF3FEFA90161E070E0C70165
:1050C000BADFC1E08C2FDF91CF911F910F91FF903C
:1050D000EF90DF90CF90BF90AF909F908F9008950A
:1050E000FC0181909190A190B190BF01FCE1EF167D
:1050F000F10479F4A5019401CE010E94261CC82F69
:10510000A5019401882369F061E070E0C70193DF95
:10511000D9CF95018401AB01B601CE010E94291AB5
:10512000EECF70E060E0C701DF91CF911F910F914A
:10513000FF90EF90DF90CF90BF90AF909F908F90B7
:105140007ACF0F931F93CF93DF93EC018B014CDC4D
:105150009093FA048093F9040097A9F0A801BE0186
:10516000E2DBEC01892B49F08091F9049091FA047B
:1051700085DC1092FA041092F904CE01DF91CF91F0
:105180001F910F910895C5EDD2E0EECF8091F90403
:105190009091FA0470CC2F923F924F925F926F924F
:1051A0007F928F929F92AF92BF92CF92DF92EF92B7
:1051B000FF920F931F93CF93DF93CDB7DEB769971D
:1051C0000FB6F894DEBF0FBECDBF2091FD042223A1
:1051D000F1F05B8B4A8B6E877F87888B998B9A0166
:1051E000AB01BC01CE0101967C019AD910E048E0E8
:1051F000242E312CE88EF98E89819A811816190691
:105200000CF450C2112319F08A899B89A3DC69969A
:105210000FB6F894DEBF0FBECDBFDF91CF911F91C7
:105220000F91FF90EF90DF90CF90BF90AF909F9045
:105230008F907F906F905F904F903F902F90089548
:10524000EB81FC818C859D8533E0880F991F3A9511
:10525000E1F7E80FF91F808191819093F404809326
:10526000F30424813581428153815093F2044093A9
:10527000F104468157815093F0044093EF04820F6C
:10528000931F9C01990F440B550B2C8B3D8B4E8B20
:105290005F8B812C912C54018C899D89AE89BF89AB
:1052A00088169906AA06BB0638F18C859D85880F5D
:1052B000991FED81FE81E80FF91F4E855F85688992
:1052C0007989808191810E94F21DAC85BD851196FE
:1052D000BD87AC8789819A81EC85FD85E817F90740
:1052E0000CF4AECF2A893B894E855F856889798920
:1052F000888D998D15D980CF1F826091F3047091AC
:10530000F404CB01072E000CAA0BBB0B8401750122
:10531000640134E0C30ED11CE11CF11CC816D9068F
:10532000EA06FB0608F0B3C02091F1043091F204C4
:10533000A4014C5F5F4F240F351FF901C080D12CB1
:10534000F12CE12C24013501F5E04F0E511C611CBC
:10535000711C481659066A067B0608F0A3C0209106
:10536000F1043091F204F8013596E20FF31F208129
:10537000D22A2401350126E0420E511C611C711C09
:10538000481659066A067B0608F097C02091F1047A
:105390003091F204F8013696E20FF31F2081E22AE1
:1053A0002401350137E0430E511C611C711C481665
:1053B00059066A067B0608F08BC02091F1043091F3
:1053C000F204F8013796E20FF31F2081260137011E
:1053D000722A7501640148E0C40ED11CE11CF11C65
:1053E0008C159D05AE05BF0508F41DC188169906EC
:1053F000AA06BB0608F077C08091F1049091F204F0
:10540000800F911F68E070E082DBE091F304F0917F
:10541000F4049F010F2E000C440B550BD301C20165
:105420008C0D9D1DAE1DBF1D281739074A075B0750
:1054300008F478C0C216D306E406F50608F05DC08D
:105440008091F1049091F2049801285F3F4F820F00
:10545000931FB2015CDB8091F3049091F404AC01E2
:10546000092E000C660B770BC416D506E606F70668
:1054700008F04DC0085F1F4F8091F1049091F20435
:10548000800F911FA20170E060E0EFD5A7C044E05B
:1054900050E0461B570B480D591D2091EF043091E9
:1054A000F00449CFE5E0F0E0E61BF70BE00FF11F59
:1054B0002091EF043091F00458CFE6E0F0E0E61BD5
:1054C000F70BE00FF11F2091EF043091F00464CF4F
:1054D000E7E0F0E0E61BF70BE00FF11F2091EF048F
:1054E0003091F00470CF9801261B370B8091EF04A8
:1054F0009091F004820F931F85CF91012E1B3F0BDB
:10550000200F311F8091EF049091F004A0CFD101C2
:10551000A81BB90BCD01080F191F8091EF049091C2
:10552000F004AECFBF0168507109601B710BC21649
:10553000D306E406F50608F062C08091F10490916C
:10554000F2049801285F3F4F820F931FE0DA8091A9
:10555000F3049091F404B101681B790B600F711F83
:10556000640D751D8091EF049091F004D0DA809164
:10557000F3049091F404AC0148505109FA01E01B86
:10558000F10BAC01092E000C660B770BC416D50687
:10559000E606F70608F03DC08091F1049091F20410
:1055A0009801285F3F4F820F931FAF0170E060E0CA
:1055B0005CD58F832091F3043091F404F101E21B58
:1055C000F30B9F01200F311F240D351D50E040E0EB
:1055D000682F8091EF049091F00433D58F8361E0C0
:1055E00070E0CE01079693DA182F38E0430E511C75
:1055F000611C711C840C951CA61CB71C4DCE91011E
:105600002E1B3F0B200F311F8091EF049091F0046F
:105610009BCF9101281B390B200F311F8091EF0484
:105620009091F004C0CF88169906AA06BB0668F5CB
:10563000601B710B8091F1049091F204800F911F17
:1056400066DA8091F3049091F404B101681B790B40
:10565000600F711F640D751D8091EF049091F0042F
:1056600056DA8091F3049091F404AC01092E000CF9
:10567000660B770BC416D506E606F70608F4FACED5
:105680009101281B390BC90146CFC801861B970B16
:105690002091EF043091F004B201685F7F4F820FD8
:1056A000931FDECF1D861C8615CECF93DF93EC01B2
:1056B000AC0160E070E0CB016EDDAE0161E070E056
:1056C00080E090E0DF91CF9166CDCF938091F90497
:1056D0009091FA048CD9C82F81110BC060E070E062
:1056E000CB010E94E91861E070E080E090E00E9448
:1056F000E9188C2FCF9108950F931F9389019A0178
:10570000AB01BC018091F9049091FA04B8D91F91C2
:105710000F9108954F925F926F927F928F929F9216
:10572000AF92BF92CF92DF92EF92FF920F931F93AF
:10573000CF93DF93CDB7DEB763970FB6F894DEBF94
:105740000FBECDBF6C018B015A018091FD048823EF
:1057500009F43DC08091FD04882309F442C0809182
:10576000FC041A821982882309F4BEC0F0E94F2E86
:10577000FFE55F2E66246394712CF12CE12C9701D8
:105780002B513B4FAE014F5F5F4F61E070E0809166
:10579000F9049091FA044BD9982E811169C089813E
:1057A0009A81E80EF91EE114F10409F461C081E068
:1057B000481A51086108710859F5609108057091FF
:1057C00009058DEE90E06AD91A82198251C06DEFF9
:1057D00074E08091F9049091FA0452D9882309F475
:1057E000B9CF63960FB6F894DEBF0FBECDBFDF9181
:1057F000CF911F910F91FF90EF90DF90CF90BF90CE
:10580000AF909F908F907F906F905F904F90089592
:10581000AAE0EA16F10409F061C049E050E070E046
:1058200060E085EE94E025D460910805709109054B
:10583000882309F450C08091ED0490E08617970703
:1058400019F6BC018EEE90E029D988E0E5EEF4E08F
:10585000DE01199601900D928A95E1F78091080575
:105860009091090501969927909309058093080561
:1058700081E029813A81121613060CF080E0911024
:10588000C8C2882309F4ADCF8091FC04811104C003
:1058900019861A861B861C8689859A85AB85BC85E8
:1058A00080319105A105B10508F09BCFFC01E55AB7
:1058B000F34D0C946E35DB2C9A2E092FF12BDF2D36
:1058C000122ECB2CD32CAF2CEE2EDD2EEA2EF12B6C
:1058D000F12BF12B9A2C8FEE90E075CFBAE0EB16FE
:1058E000F1040CF44CCFC4CFF12CE12CE8E06E2E87
:1058F000712C29E030E02C0F3D1F2E0D3F1DAE0115
:105900004F5F5F4FB3016E197F098091F904909149
:10591000FA048DD8982E29813A81811109C0E20EAE
:10592000F31EE114F10421F0E8E0EE16F1040CF3AB
:1059300081E0A1CFD6011696ED91FC9180819181F5
:10594000A281B38189839A83AB83BC83AE014F5F0D
:105950005F4F64E070E085E190E03ADB42CF8D85F7
:105960009E8515D92FEF3FEFA90161E070E0009708
:1059700071F0FC01C080D180E280F380A801C701F2
:10598000B6010E946B1DA701960170E060E08DE1F9
:1059900090E051DB26CF4D855E859801B6018BE105
:1059A00090E075DB1ECF4D855E852FEF3FEFB60192
:1059B0008CE190E0F6CFD6011496ED91FC91008138
:1059C0001181F80182809380A080B18070E1472E20
:1059D000512C612C712C49825A826B827C8288E026
:1059E00090E0A0E0B0E08D839E83AF83B8879E01F6
:1059F0002F5E3F4FAE014F5F5F4F68E070E08091D8
:105A0000F9049091FA040E94F9248823D9F010E057
:105A100000E0C80163960FB6F894DEBF0FBECDBF9D
:105A2000DF91CF911F910F91FF90EF90DF90CF907A
:105A3000BF90AF909F908F907F906F905F904F90AE
:105A40000C943E3689899A89089709F7D801ED9018
:105A5000FC90B8E0EB0EF11CEE0CFF1CEE0CFF1CF2
:105A6000C7010E94A2358C01892B89F249825A8292
:105A70006B827C82C7010F2C000CAA0BBB0B8D83A1
:105A80009E83AF83B8879E012F5E3F4FAE014F5F6D
:105A90005F4F68E070E08091F9049091FA040E94F1
:105AA000F9248111B6CF89899A89089709F0B1CF75
:105AB000D6011296ED91FC914081518162817381F2
:105AC000D8014D935D936D937C93139744815581D9
:105AD0006681778114964D935D936D937C931797B0
